:020000040800F2
:1000000028520020F1030008D1030008D3030008A0
:10001000D7030008DB030008DF030008000000002E
:10002000000000000000000000000000E3030008E2
:10003000E5030008000000000704000809040008A8
:100040000B0400080B0400080B0400080B04000854
:100050000B0400080B0400080B040008E903000867
:10006000EB030008ED0300080B0400080B04000874
:100070000B0400080B0400080B0400080B04000824
:100080000B0400080B0400080B0400080B04000814
:100090000B0400080B0400080B040008E703000829
:1000A0000B0400080B0400080B0400080B040008F4
:1000B0000B040008DF3D00085F3D00080B0400084A
:1000C0000B0400080B0400080B0400080B040008D4
:1000D0000B0400089F4400080B0400080B040008F0
:1000E0000B0400080B0400080B0400080B040008B4
:1000F0000B0400080B0400080B0400080B040008A4
:100100000B0400080B0400080B0400080B04000893
:100110000B0400080B040008593E00080B040008FB
:100120000B0400080B0400080B0400080B04000873
:1001300000F002F800F064F80AA090E8000C824495
:100140008344AAF10107DA4501D100F059F8AFF272
:10015000090EBAE80F0013F0010F18BFFB1A43F0A5
:1001600001031847E01A0700001B07000A444FF07C
:10017000000C10F8013B13F0070408BF10F8014B06
:100180001D1108BF10F8015B641E05D010F8016B4B
:10019000641E01F8016BF9D113F0080F1EBF10F8AF
:1001A000014BAD1C0C1B09D16D1E58BF01F801CBD2
:1001B000FAD505E014F8016B01F8016B6D1EF9D555
:1001C0009142D6D37047000000230024002500266A
:1001D000103A28BF78C1FBD8520728BF30C148BFAA
:1001E0000B607047692908F0C385782908F0FC8501
:1001F000002070471FB508F038FE1FBD10B510BDB8
:1002000009F0E4F81146FFF7F5FF00F085F809F072
:1002100002F903B4FFF7F2FF03BC04F0E1F80000B9
:100220000B49D1F800C04A685CF8043B10681844D8
:1002300042F8040B8C4528BFA1F1DC0C8A4228BF90
:10024000A1F1DC02C1F800C04A6020F00040704714
:10025000C03D00200EB50CF061FF48480DF060FF76
:100260000CF010F846480BF061FF6FF07F400DF086
:100270003FFF00200DF040FF0CF042F841A00CF0D1
:100280001FFA48E068460EF093F90EF09FF9054614
:100290000EF0A2F906464FF47F000DF02DFF282244
:1002A000002141A00CF08CFA0CF0C0FE841C20460A
:1002B0000CF032FF40A00CF003FA042128460CF0A9
:1002C000B9F93EA00CF0FCF9042130460CF0B2F96B
:1002D000FF200DF011FF0CF0A9FE041D20460CF0CC
:1002E0001BFF38A00CF0ECF90CF0A0FE841C20469B
:1002F0000CF012FF30A00CF0E3F9042100980CF090
:1003000099F92EA00CF0DCF9042101980CF092F977
:10031000322004F03DF8B5E7482003F0FBFF4FF42E
:10032000A06000F075F902F0D7FC4FF4165004F00D
:100330006AF802F095FF03F058FF02F0C7FD0020B5
:1003400004F0E3F8012004F0E0F8472140F2E73040
:1003500003F018FD40F2CF2140F2E73003F04FFDEB
:100360000121402000F0D1FC042014F00FF90CF022
:10037000D5FE05F0DBFA00BFFEE70000E4D9060871
:10038000689206084D6561737572656D656E7420BF
:100390006F660A412F4420636F6E766572746572D2
:1003A0002076616C75657300416E616C6F672069C2
:1003B0006E7075743A0A0000783A00002C20793A81
:1003C000000000000A506F736974696F6E3A0A008A
:1003D000704700BFFEE700BFFEE700BFFEE700BFBB
:1003E000FEE77047704770477047704770470000DE
:1003F0000948804709480047FEE7FEE7FEE7FEE7B9
:10040000FEE7FEE7FEE7FEE7FEE7FEE704480549F4
:10041000054A064B704700000F050008310100082F
:10042000283E00202852002028400020284000209C
:100430000CB50020019000906C48006840F48030BA
:100440006A49086000BF6948006800F40030009005
:100450000198401C0190009818B90198B0F5A06F60
:10046000F1D16248006800F4003010B10120009022
:1004700001E0002000900098012843D15C4800680A
:1004800040F010005A4908600846006820F0030058
:1004900008600846006840F0020008605348406861
:1004A000524948600846406848600846406840F441
:1004B000806048600846406820F47C104860084628
:1004C000406840F4E81048600846006840F08070DA
:1004D000086000BF4548006800F000700028F9D0AF
:1004E0004248406820F003004049486008464068A0
:1004F00040F00200486000BF3C48406800F00C003B
:100500000828F9D10CBD10B5FFF792FF10BD10B54A
:100510003648006840F001003449086008464068E9
:10052000344908403149486008460068324908406B
:100530002E4908600846006820F4802008600846BC
:10054000406820F4FE0048604FF41F008860FFF709
:10055000DAFF4FF000602949086010BD10B5002196
:1005600000200022214B5B6803F00C0121B104291B
:1005700006D0082928D107E0214B224C236027E030
:100580001F4B204C236023E0184B5B6803F4701072
:10059000164B5B6803F48032022303EB904022B9D0
:1005A000194B4343174C23600DE0104B5B6803F479
:1005B000003323B1144B4343124C236003E0104B30
:1005C0004343104C236003E00D4B0E4C236000BFEF
:1005D00000BF064B5B68C3F303130C4CE15C094B93
:1005E0001B68CB40074C236010BD00000010024088
:1005F000002002400000FFF8FFFFF6FE08ED00E0DB
:1006000000127A000000002000093D0004000020D4
:1006100031490143314A1160704770B50021002310
:100620000F22C47804B32D4C246804F4E064C4F5AC
:10063000E064210AC1F10403CA40447804FA03F1DA
:100640008478144021430901254C0678A15504788B
:1006500004F01F050124AC4005786D11AD0005F1D3
:10066000E025C5F8004109E0047804F01F050124E5
:10067000AC401C4D0678761145F8264070BD1A4AEC
:100680000A400243154B1B1F1A60704739B1134AC9
:10069000121D12680243114B1B1D1A6006E00F4A1F
:1006A000121D126882430D4B1B1D1A6070470428EF
:1006B00008D14FF0E021096941F004014FF0E02238
:1006C000116107E04FF0E021096921F004014FF0CA
:1006D000E0221161704700000000FA050CED00E017
:1006E00000E400E080E100E080FFFF1F10B5044659
:1006F000CC48844208D10121042000F02DFB0021C8
:10070000042000F029FB46E0C748844208D10121BB
:10071000082000F021FB0021082000F01DFB3AE03A
:10072000C248844208D10121102000F015FB0021AD
:10073000102000F011FB2EE0BD48844208D10121B9
:10074000202000F009FB0021202000F005FB22E022
:10075000B848844208D10121402000F0FDFA002170
:10076000402000F0F9FA16E0B348844208D1012194
:10077000802000F0F1FA0021802000F0EDFA0AE07C
:10078000AE48844207D10121801500F0E5FA00212E
:10079000A01500F0E1FA10BD10B50121084600F0E7
:1007A000DBFA0021012000F0D7FA10BD2DE9F0415D
:1007B000024600250026002000230024002791F88F
:1007C00003C00CF00F0591F803C00CF0100CBCF145
:1007D000000F03D091F802C04CEA050591F800C063
:1007E000BCF1000F31D0146800202BE04FF0010C59
:1007F0000CFA00F3B1F800C00CEA03069E4220D1C7
:1008000083004FF00F0C0CFA03F7BC4305FA03FC0E
:100810004CEA040491F803C0BCF1280F06D14FF054
:10082000010C0CFA00FCC2F814C00AE091F803C0F5
:10083000BCF1480F05D14FF0010C0CFA00FCC2F8D6
:1008400010C0401C0828D1D31460B1F800C0BCF11E
:10085000FF0F34DD546800202EE000F1080C4FF04B
:10086000010808FA0CF3B1F800C00CEA03069E4236
:1008700021D183004FF00F0C0CFA03F7BC4305FAAB
:1008800003FC4CEA040491F803C0BCF1280F05D125
:1008900000F1080C08FA0CF8C2F8148091F803C0B3
:1008A000BCF1480F07D100F1080C4FF0010808FA1D
:1008B0000CF8C2F81080401C0828CED35460BDE864
:1008C000F0814FF6FF710180022181700421C17017
:1008D00070470246002093680B400BB1012000E0F6
:1008E000002070470146886880B2704702460020A9
:1008F000D3680B400BB1012000E000207047014697
:10090000C86880B2704701617047416170470AB1A1
:10091000016100E041617047C16070474FF480326F
:100920000A438261816182618269826970470246FD
:100930000020434B18684FF68073184040EA0210BD
:1009400008433F4B186070473E49C8617047F0B597
:100950000A46002300240021002500F00046B6F1DD
:10096000004F02D1364EF16901E0354E7168C0F397
:10097000034583B200F44016B6F5401F08D121F0BC
:1009800070612F4E766826F070662D4F7E6012E003
:1009900000F48016B6F5801F06D1032606FA05F48A
:1009A000A14341F0706106E0460D360103FA06F6F8
:1009B000B14341F0706122B1460D360103FA06F6EB
:1009C000314300F00046B6F1004F02D11C4EF161F8
:1009D00001E01B4E7160F0BD30B500228B071C0F8B
:1009E0000F2303FA04F2164B08338C1053F824300B
:1009F0009343134C08348D1044F8253023468C1053
:100A000053F824308C07240F00FA04F423430C4CD1
:100A100008348D1044F8253030BD0A49DC310860B7
:100A20007047000000080140000C01400010014028
:100A30000014014000180140001C0140002001404A
:100A40000000014000002042DF48006840F0010043
:100A5000DD49086008464068DC490840DA494860DA
:100A600008460068DA490840D74908600846006827
:100A700020F4802008600846406820F4FE004860AA
:100A80004FF41F0088607047CF49096821F4803116
:100A9000CD4A11601146096821F480211160B0F53A
:100AA000803F03D0B0F5802F0ED106E0C64909681B
:100AB00041F48031C44A116007E0C349096841F438
:100AC000A021C14A116000E000BF00BF704710B50F
:100AD00001460022002300204A11012A02D1BA4C0B
:100AE000236806E0022A02D1B74C236A01E0B64C23
:100AF000636A01F01F02012494401C400CB10120E4
:100B000000E0002010BD38B5002000900024002532
:100B100000BF3120FFF7DBFF05460098401C009026
:100B20000098B0F5A06F01D0002DF2D03120FFF772
:100B3000CEFF08B1012400E00024204638BD014664
:100B40000020A14A106820F0F80040EAC1001060BF
:100B50007047A04908607047024600209A4B5868C9
:100B600020F47C1042EA01031843974B5860704709
:100B700098490866704701460020934A506820F063
:100B800003000843506070478F48406800F00C0035
:100B90007047014600208C4A506820F0F00008435E
:100BA0005060704701460020874A506820F4E0609A
:100BB00008435060704701460020834A506820F483
:100BC000605040EAC1005060704729B17E4A527AB5
:100BD00002437D4B5A7204E07B4A527A82437A4B3D
:100BE0005A7270477B49D83108607047014600202F
:100BF000754A506820F44040084350607047002117
:100C0000714A20321170704A82F82010012802D0F7
:100C100004280AD104E001216B4A2032117005E05A
:100C20000521694A2032117000E000BF00BF704703
:100C30006949086070476449096A0143624A116260
:100C40007047654944390860704730B5002100227B
:100C5000002400235C4D6D6805F00C0121B10429CE
:100C600005D0082923D105E05C4D056022E05B4DED
:100C700005601FE0544D6D6805F47012524D6D68AB
:100C800005F48034022505EB92421CB9544D5543BE
:100C900005600BE04C4D6D6805F400351DB1504DFD
:100CA0005543056002E04D4D5543056002E04B4D54
:100CB000056000BF00BF444D6D6805F0F0010909F3
:100CC000484D6B5C0568DD4045603F4D6D6805F43F
:100CD000E061090A434D6B5C4568DD4085603A4D33
:100CE0006D6805F46051C90A3E4D6B5C4568DD4096
:100CF000C560354D6D6805F44041890B3A4D6B5C1C
:100D0000C568B5FBF3F5056130BD29B12E4A5269BE
:100D100002432D4B5A6104E02B4A526982432A4B0D
:100D20005A61704729B1284A92690243264B9A6159
:100D300004E0254A92698243234B9A61704729B1A6
:100D4000214AD2690243204BDA6104E01E4AD2698B
:100D500082431D4BDA61704729B11B4AD2680243B6
:100D6000194BDA6004E0184AD2688243164BDA6005
:100D7000704729B1144A12690243134B1A6104E007
:100D8000114A12698243104B1A6170471249403967
:100D9000086070470F49C86470470B49C8717047B5
:100DA0000948406A40F08070074948627047014630
:100DB0000020054A92680A400AB1012000E00020A4
:100DC0007047014988727047001002400000FFF828
:100DD000FFFFF6FE000042428004424200127A0009
:100DE00000093D00140000202400002010B5044636
:100DF000FB48844209D101218803FFF7ADFF0021A0
:100E00004FF48040FFF7A8FF32E0F648844209D152
:100E100001214804FFF7ADFF00214FF40030FFF738
:100E2000A8FF25E0F048844209D101218804FFF79A
:100E3000A0FF00214FF48020FFF79BFF18E0EB4854
:100E4000844209D10121C804FFF793FF00214FF428
:100E50000020FFF78EFF0BE0E548844208D1012116
:100E60000805FFF786FF00214FF48010FFF781FF90
:100E700010BD2DE9F04786B005460E460024A24677
:100E800000BFA1460027B08900B100BF2F462C8AC1
:100E90004CF6FF700440F08804432C82AC894EF677
:100EA000F3100440B0883189084371890843044332
:100EB000AC81AC8A4FF6FF400440B0890443AC8259
:100EC00001A8FFF7C2FEC648874202D1DDF810A094
:100ED00001E0DDF80CA0A88900F4004040B10AEB65
:100EE000CA0000EB0A1031684900B0FBF1F807E0D6
:100EF0000AEBCA0000EB0A1031688900B0FBF1F878
:100F00006420B8FBF0F004012009642101FB108982
:100F1000A88900F4004040B1322000EBC900B0FBCA
:100F2000F1F000F00700044308E0322000EB091064
:100F30006421B0FBF1F000F00F0004432C8106B0F7
:100F4000BDE8F0874FF41651016000218180C18017
:100F500001810C21418100218181704710B5024639
:100F60000020108A4FF2FF0318400B884C8823435F
:100F70008C882343CC8823431843108210BD002162
:100F8000018041808180C180704721B1828942F413
:100F90000052828104E082894DF6FF731A408281FB
:100FA0007047F0B50346002400260025002040F6D7
:100FB0006A17B94200D100BF1846C1F3421401F0CC
:100FC0001F06012707FA06F5012C01D10C3004E0B9
:100FD000022C01D1103000E014301AB107682F4301
:100FE000076002E00768AF430760F0BD1AB1838A6B
:100FF0000B43838202E0838A8B4383827047028A99
:101000004FF6F0731A400282028A0A430282704746
:1010100082894FF2FF731A40828182890A4382815A
:10102000704721B1828942F00202828104E0828904
:101030004FF6FD731A4082817047028A4FF6DF73C4
:101040001A400282028A0A430282704721B1028A50
:1010500042F48042028204E0028A4BF6FF731A4097
:1010600002827047C1F30802828070470146888877
:10107000C0F308007047818941F001018181704708
:10108000028BD2B20283028B42EA012202837047B2
:10109000028B02F47F420283028B0A430283704771
:1010A00021B1828A42F02002828204E0828A4FF6D5
:1010B000DF731A408282704721B1828A42F01002A7
:1010C000828204E0828A4FF6EF731A408282704770
:1010D00021B1828A42F00802828204E0828A4FF6BD
:1010E000F7731A408282704721B1828942F400422C
:1010F000828103E08289C2F30E028281704721B1AE
:10110000828A42F40062828204E0828A4FF2FF7394
:101110001A4082827047828A4FF6FB731A4082829D
:10112000828A0A438282704721B1828A42F0020297
:10113000828204E0828A4FF6FD731A4082827047F1
:1011400002460020B1F5007F00D100BF13880B409C
:101150000BB1012000E00020704701F40072B2F5ED
:10116000007F00D100BFCA430280704770B50246BD
:10117000002400230025002040F66A16B14200D169
:1011800000BFC1F3421501F01F03012606FA03F365
:10119000012D02D19689334006E0022D02D1168A34
:1011A000334001E0968A33400C12012606FA04F41B
:1011B0001688344013B10CB1012000E0002070BD4E
:1011C00010B50022002340F66A14A14200D100BFEE
:1011D0000A1201249440A3B2DC43048010BD000035
:1011E000003801400044004000480040004C0040EE
:1011F0000050004030B943F2DB028100A1F1C04150
:101200000A6005E043F2D2028100A1F1C0410A6008
:101210006FF07042411C8900A1F1C0410A60810059
:10122000A1F1C041C1F80421704710280AD118214A
:101230004FF020421166402151664FF0FC3191661B
:10124000D16610E01821F74A116040214FF020428A
:10125000C2F884104FF0FC31F24A083211604FF0AE
:101260002042C2F88C1070471820EE4920310860E7
:1012700000200906C1F8A4004FF0FC30E9492831EC
:101280000860091D0860091D08607047D0E9011257
:101290001143C268114302691143426911438269D3
:1012A0001143C2691143026A1143426A1143826ABF
:1012B0001143C26A1143026B114302689200A2F10A
:1012C000C0421160816808290BD101688900A1F131
:1012D000C041096841F0400201688900A1F1C041A4
:1012E0000A60416B0968426B526841EA0211426B25
:1012F000926841EA0221426B928941EA0241426BC3
:10130000128A41EA0251426B127D41EA0261426B4C
:10131000926911430268521C9200A2F1C04211600E
:10132000C16AB1F5804F1BD1816B0968826B52682D
:1013300041EA0211826B926841EA0221826B128AB1
:1013400041EA0251826B127D41EA0261826B92692D
:10135000114302689200A2F1C042C2F8041107E0F2
:101360006FF0704201688900A1F1C041C1F8042109
:10137000704730B5002100220023446844F008047F
:1013800085682C43C5682C4305692C43456944EAAC
:101390004524856944EA4531C4692468C5696D6896
:1013A00044EA0524C5692D8944EA0544C5692D7BB5
:1013B00044EA0562046A2468056A6D6844EA052403
:1013C000056A2D8944EA0544056A2D7B44EA0563D4
:1013D0000468102C05D14FF020442166A266E36614
:1013E00008E0904C21604FF02044C4F888208D4CD8
:1013F0000C34236030BD016841F01001426841EABD
:101400004221826841EA4231864A20321160C16835
:101410000968C268526841EA0221C268128941EA39
:101420000241C268127B41EA02617E4A28321160A1
:10143000016909680269526841EA02210269128958
:1014400041EA02410269127B41EA0261754A2C328B
:101450001160416909684269526841EA02214269A2
:10146000128941EA02414269127B41EA02614FF06E
:101470002042C2F8B0107047002101600221416093
:1014800000218160C160016141618161C1610162CE
:101490004FF480514162490081620021C1620163C1
:1014A0000F21426B1160426B5160FF21426B9160D2
:1014B0000F21426BD160426B1161426B516100217F
:1014C000426B91610F21826B1160826B5160FF2131
:1014D000826B91600F21826BD160826B1161826B94
:1014E00051610021826B91617047102101600021E0
:1014F00041608160C160016141618161FC21C2691B
:101500001160C2695160C2699160C269D160026AAA
:101510001160026A5160026A9160026AD16070478C
:101520000021016041608160FC21C2681160C268D5
:101530005160C2689160C268D1600269116002693D
:101540005160026991600269D1604269116042692B
:101550005160426991604269D160704751B1820027
:10156000A2F1C042126842F001038200A2F1C0421F
:10157000136009E08200A2F1C04212682A4B1A40AF
:101580008300A3F1C0431A60704799B1102808D1B5
:101590004FF02042126E42F004024FF020431A66D0
:1015A0001DE0204A126842F004024FF02043C3F8C5
:1015B000802014E0102809D14FF02042126E1A4BFF
:1015C000DB1E1A404FF020431A6608E0154A1268E5
:1015D000154BDB1E1A404FF02043C3F880207047A4
:1015E00048B110492031096841F004014FF0204210
:1015F000C2F8A01009E00B49203109680A4AD21E3E
:1016000011404FF02042C2F8A0107047B9B1102825
:101610000CD14FF02042126E42F040024FF02043B6
:101620001A661FE0800000A0FEFF0F00724A1268D9
:1016300042F040024FF02043C3F8802012E010280F
:1016400008D14FF02042126E6C4B1A404FF02043ED
:101650001A6607E0684A1268684B1A404FF0204348
:10166000C3F88020704701460020102903D14FF0B5
:101670002042506F02E0604A14321068704710B583
:10168000F2B1102807D14FF020435B6E0B434FF0AF
:101690002044636632E0B0F5807F08D1564B1B1DB5
:1016A0001B680B434FF02044C4F8843026E0524BB3
:1016B00024331B680B434FF02044C4F8A4301DE0D2
:1016C000102807D14FF020435B6E8B434FF020442E
:1016D000636613E0B0F5807F08D1474B1B1D1B6884
:1016E0008B434FF02044C4F8843007E0424B24334E
:1016F0001B688B434FF02044C4F8A43010BD10B5D4
:10170000024600200023102A03D14FF02044636ECC
:1017100009E0B2F5807F03D1374C241D236802E035
:10172000354C2434236803EA01040CB1012000E0A5
:10173000002010BD102807D14FF02042526E8A437E
:101740004FF020435A6613E0B0F5807F08D12A4A53
:10175000121D12688A434FF02043C3F8842007E02B
:10176000254A243212688A434FF02043C3F8A4204C
:10177000704770B502460020002300240025102A7F
:1017800003D14FF02046736E09E0B2F5807F03D19C
:10179000194E361D336802E0174E2436336803EACB
:1017A000010403EAD10514B10DB1012000E00020CD
:1017B00070BD102808D14FF02042526E22EAD102AB
:1017C0004FF020435A6615E0B0F5807F09D10A4AF0
:1017D000121D126822EAD1024FF02043C3F8842080
:1017E00008E0054A2432126822EAD1024FF0204371
:1017F000C3F8A42070470000800000A0BFFF0F00C6
:1018000010B50446BE48844208D101218014FFF778
:10181000A3FA0021A014FFF79FFA16E0B94884420A
:1018200008D101210014FFF7A4FA00212014FFF7CA
:10183000A0FA0AE0B448844207D10121C013FFF79F
:1018400098FA0021E013FFF794FA10BD10B50022BA
:10185000028802F441520B884C8823438C8823432E
:10186000CC8823430C8923434C8923438C8923430D
:10187000CC8923431A430280838B4FF2FF742340A9
:1018800083830B8A038210BD2DE9F04F85B0054696
:101890000C464FF0000902274FF000084FF0010BF3
:1018A0000026B246A88B4FF240010840A8830220D0
:1018B0002884B5F81C90A068022801D100BF38E048
:1018C000A08810B94FF0010B01E04FF0020B8D48DA
:1018D000854200D100E000BF6846FFF7B6F9DDF8A9
:1018E00000A0E088B0F5007F0AD14FEA1A2000EB93
:1018F00080004000A168B0FBF1F0401D86B20BE013
:101900004FEA4B10BAFBF0F000EB80004000A168FA
:10191000B0FBF1F0401D86B20A20B6FBF0F606F0EF
:101920000108A6EB0800C0F34F074FF6FF7000EA6E
:101930000828022F01DBFF2F02DD02274FF00008ED
:10194000E08840EA080038432884A088A189084339
:10195000618808432188084340F4006040EA09098F
:10196000A5F81C9005B0BDE8F08F002101804180F2
:101970008180C180018141818181C18107210182F2
:1019800070470021018041808180C18002218160F7
:1019900000218181704721B1028842F0400202801B
:1019A00004E002884FF6BF731A400280704721B1ED
:1019B000828B42F48062828304E0828B4FF6FF3395
:1019C0001A408283704730B5002400230C11012592
:1019D000A540ABB21AB185881D43858002E0858899
:1019E0009D43858030BD1AB183880B43838002E01C
:1019F00083888B4383807047818170470146888943
:101A000070474FF6FF62914204D0028842F4807220
:101A1000028004E002884FF6FF631A40028070479C
:101A200021B1828842F00402828004E082884FF66D
:101A3000FB731A408280704702884FF2FF731A408E
:101A4000028002880A4302807047018841F4805175
:101A50000180704721B1028842F40052028004E004
:101A600002884DF6FF731A4002807047024600203C
:101A7000012901D0108B00E0908A70470146088A46
:101A80007047B1F5804F04D1028842F48042028051
:101A900004E002884BF6FF731A400280704702464A
:101AA000002013890B400BB1012000E0002070479B
:101AB000CA4302817047F0B502460020002400238B
:101AC000002501F00F070126BE40B4B20B1101261C
:101AD0009E40B3B2968806EA03051689264016B1E1
:101AE0000DB1012000E00020F0BD10B5002201F092
:101AF0000F040123A3409AB2D343038110BD000019
:101B00000030014000380040003C004010B5044661
:101B1000FE48844208D10121C014FFF71DF90021BD
:101B2000E014FFF719F9C4E0B4F1804F08D10121A6
:101B30000846FFF71EF900210120FFF71AF9B8E067
:101B4000F348844208D101210220FFF712F9002155
:101B50000220FFF70EF9ACE0EE48844208D10121E3
:101B60000420FFF706F900210420FFF702F9A0E0A6
:101B7000E948844208D101210820FFF7FAF8002142
:101B80000820FFF7F6F894E0E448844208D10121E8
:101B90001020FFF7EEF800211020FFF7EAF888E0A8
:101BA000DF48844208D101212020FFF7E2F800211C
:101BB0002020FFF7DEF87CE0DA48844208D10121DA
:101BC0004014FFF7C9F800216014FFF7C5F870E072
:101BD000D548844209D10121C804FFF7BDF800218E
:101BE0004FF40020FFF7B8F863E0D048844209D1F1
:101BF00001210805FFF7B0F800214FF48010FFF72E
:101C0000ABF856E0CA48844209D101214805FFF7E4
:101C1000A3F800214FF40010FFF79EF849E0C548F3
:101C2000844208D101214020FFF7A3F80021402081
:101C3000FFF79FF83DE0C048844208D10121802091
:101C4000FFF797F800218020FFF793F831E0BB48B9
:101C5000844208D101218015FFF78BF80021A015DF
:101C6000FFF787F825E0B648844209D1012108042E
:101C7000FFF772F800214FF48030FFF76DF818E09D
:101C8000B048844209D101214804FFF765F80021DA
:101C90004FF40030FFF760F80BE0AB48844208D106
:101CA00001218804FFF758F800214FF48020FFF746
:101CB00053F810BD00220288944B98420ED0994BE5
:101CC00098420BD0B0F1804F08D0914B984205D08C
:101CD000904B984202D0904B984204D14FF68F73AC
:101CE0001A404B881A438D4B984207D08C4B984230
:101CF00004D04FF6FF431A40CB881A4302808B88EA
:101D000083850B880385814B98420BD0854B984285
:101D100008D08B4B984205D08A4B984202D08A4B10
:101D2000984201D10B7A038601238382704770B5F4
:101D3000002400220023058C4FF6FE7635400584F2
:101D4000028C8388048B4FF68F752C40B51E2C4077
:101D50000D882C43751E2A400D892A434D882A433D
:101D60006A4DA8420BD06F4DA84208D0744DA842CE
:101D700005D0744DA84202D0734DA84213D14FF63E
:101D8000F7752A404D892A434FF6FB752A408D8806
:101D90002A434FF6FF652B404FF6FF552B408D89A8
:101DA0002B43CD892B4383800483CD888586028491
:101DB00070BD70B5002400220023058C4FF6EF762D
:101DC00035400584028C8388048B48F6FF752C40CF
:101DD0004FF6FF452C400D884FF6FF7606EA0525A5
:101DE0002C434FF6DF752A400D8906EA05152A4374
:101DF0004D8806EA05152A43444DA84202D0494DB4
:101E0000A8421DD14FF67F752A404D894FF6FF76C7
:101E100006EA05152A434FF6BF752A408D8806EA63
:101E200005152A434FF6FF352B404FF2FF752B4027
:101E30008D8906EA85052B43CD8906EA85052B4366
:101E400083800483CD880587028470BD70B500242B
:101E500000220023058C4FF6FF6635400584028C76
:101E60008388848B4FF68F752C404FF6FC752C4081
:101E70000D882C434FF6FF552A400D894FF6FF760B
:101E800006EA05252A434D8806EA05252A431F4D03
:101E9000A84202D0234DA8421DD14FF2FF752A401F
:101EA0004D894FF6FF7606EA05252A434FF6FF35A2
:101EB0002A408D8806EA05252A434EF6FF752B40F9
:101EC0004DF6FF752B408D8906EA05152B43CD890C
:101ED00006EA05152B4383808483CD888587028499
:101EE00070BD70B5002200230024058C4EF6FF76ED
:101EF00035400584038C8488828B48F6FF752A4020
:101F00004FF6FF452A400D8820E00000002C0140DC
:101F10000004004000080040000C00400010004099
:101F20000014004000340140004C014000500140CA
:101F30000054014000180040001C004000200040F8
:101F40000040014000440140004801404FF6FF7648
:101F500006EA05252A434DF6FF752B400D8906EA52
:101F600005352B434D8806EA05352B43FA4DA8422B
:101F700002D0FA4DA84208D14BF6FF752C408D894E
:101F80004FF6FF7606EA85152C4384808283CD8840
:101F9000A0F84050038470BD828B4FF2FF331A408B
:101FA0008283828B4FF6FF7303EA01231A438283F5
:101FB0007047F0B50C461546002200210026078C1C
:101FC0004EF6FF7C07EA0C070784828B018C4FF6E4
:101FD000FF7707EA043640F6FF473A404FF6FF77AF
:101FE00007EA05273A434FF6FF7707EA03373A43F4
:101FF000D94FB8420ED0D94FB8420BD0B0F1804F74
:1020000008D0D74FB84205D0D64FB84202D0D64FED
:10201000B84206D14DF6FF77394046F48057394330
:1020200005E047F6FF57394044F48057394382832F
:102030000184F0BD828B4FF6F3731A408283828B4A
:102040000A4382837047F0B50C46154600220021F2
:102050000026078C4FF6FF6C07EA0C070784828B7B
:10206000018C4FF6FF7707EA04264FF60C773A40CB
:102070004FF6FF7707EA03172F433A43B64FB842AC
:102080000ED0B64FB8420BD0B0F1804F08D0B44F4D
:10209000B84205D0B34FB84202D0B34FB84206D1D0
:1020A0004FF6FF57394046F48077394305E04FF249
:1020B000FF57394044F48077394382830184F0BD6F
:1020C000028B4FF2FF331A400283028B4FF6FF73ED
:1020D00003EA01231A4302837047F0B50C46154604
:1020E000002200210026078C4FF6EF7C07EA0C0740
:1020F0000784028B018C4FF6FF7707EA041640F63F
:10210000FF473A404FF6FF7707EA03373A434FF667
:10211000FF7707EA05273A438F4FB8420ED08F4F1B
:10212000B8420BD0B0F1804F08D08D4FB84205D0E7
:102130008C4FB84202D08C4FB84206D14FF6DF77B1
:10214000394046F01007394305E04FF65F773940D4
:1021500044F01007394302830184F0BD028B4FF62F
:10216000F3731A400283028B0A4302837047F0B56F
:102170000C46154600220021068C4FF6FE773E40A5
:102180000684028B018C4FF60C7632407E1C06EAE8
:1021900003162E433243704EB0420ED06F4EB04203
:1021A0000BD0B0F1804F08D06D4EB04205D06D4ECF
:1021B000B04202D06C4EB04206D14FF6FD763140AF
:1021C00044F00106314305E04FF6F576314044F026
:1021D0000106314302830184F0BD70B505460C460B
:1021E0005D4885420ED05D4885420BD0B5F1804FE9
:1021F00008D05B48854205D05A48854202D05A48EB
:10220000854200D100E000BF208850B92389A28810
:1022100061882846FFF7ABFFE1882846FFF79EFF5D
:1022200025E0208804280AD12389A28861882846CD
:10223000FFF753FFE1882846FFF742FF17E02088A9
:1022400008280AD12389A28861882846FFF7FBFE67
:10225000E1882846FFF7EEFE09E02389A28861881D
:102260002846FFF7A6FEE1882846FFF795FE70BDD9
:102270002DE9F04105460C4600260127608808B983
:10228000022600E00026A088012801D1022700E0F4
:1022900001272088A0B92389A28861882846FFF7F2
:1022A00066FFE1882846FFF759FF23893A46314601
:1022B0002846FFF712FFE1882846FFF701FF13E0E9
:1022C0002389A28861882846FFF707FFE18828460E
:1022D000FFF7F6FE23893A4631462846FFF747FFC7
:1022E000E1882846FFF73AFFBDE8F0810A884B886D
:1022F0001A438B881A43CB881A430B891A434B899C
:102300001A438B891A43A0F8442070474FF6FF7197
:10231000818000210180C1804180017270470021CD
:10232000018041808180C180018141818181C181A1
:102330007047002101804180012181800021C180FE
:10234000018170470021018041808180C18001812D
:102350004181818170470000002C01400034014020
:102360000004004000080040000C004021B1028839
:1023700042F00102028004E002884FF6FE731A4028
:102380000280704731B1B0F8442042F40042A0F816
:10239000442005E0B0F84420C2F30E02A0F8442027
:1023A00070471AB183890B43838102E083898B4391
:1023B000838170478182704741EA0203A0F8483068
:1023C00070471AB183890B43838102E083898B4371
:1023D0008381704701894FF6F8721140018170477F
:1023E0000A46002101894FF68F731940114301817C
:1023F000704730B504460D4629462046FFF7F0FFEA
:10240000208940F00700208130BD2DE9F0410446CD
:102410000D4616461F46602D06D13B460122314629
:102420002046FFF75AFE05E03B4601223146204692
:10243000FFF79DFE29462046FFF7D2FF208940F096
:1024400007002081BDE8F08130B50C4600210189EC
:10245000C9B24FF6FF7505EA032515432543294305
:10246000018130BD2DE9F04105460E4617469846DC
:10247000002443463A4631462846FFF7E5FF2C89BB
:102480004FF6F870044044F007044FF68F70044094
:1024900044F070042C81BDE8F081F0B504460D468F
:1024A00016461F463B46324629462046FFF7CCFFDC
:1024B000208940F480402081F0BD018582827047F0
:1024C0000A46002101884FF68F731940114301809D
:1024D0007047F0B50C4615461E4600210022002329
:1024E0000189028B038C4FF6F877394021434FF670
:1024F000FC473A4040F201173A434FF6DD773B4044
:102500004FF6FF7707EA06172F433B43018102830B
:102510000384F0BD0A460021018B4FF68F731940EA
:102520001143018370470A460021018B48F6FF736F
:1025300019404FF6FF7303EA0223194301837047E2
:102540000A460021818B4FF68F7319401143818316
:1025500070470A460021818B48F6FF7319404FF6F9
:10256000FF7303EA022319438183704721B1028874
:1025700042F08002028004E002884FF67F731A4026
:102580000280704721B1828842F00402828004E018
:1025900082884FF6FB731A408280704721B182888F
:1025A00042F00802828004E082884FF6F7731A40F6
:1025B0008280704721B1828842F00102828004E06B
:1025C00082884FF6FE731A40828070470A460021C7
:1025D000018B4FF6F77319401143018370470A4688
:1025E0000021018B4FF2FF7319404FF6FF7303EA8E
:1025F00002231943018370470A460021818B4FF65D
:10260000F77319401143818370470A460021818B7B
:102610004FF2FF7319404FF6FF7303EA0223194389
:10262000818370470A460021018B4FF6FB731940E6
:102630001143018370470A460021018B4FF6FF3397
:1026400019404FF6FF7303EA0223194301837047D1
:102650000A460021818B4FF6FB7319401143818399
:1026600070470A460021818B4FF6FF3319404FF621
:10267000FF7303EA02231943818370470A4600214E
:10268000018B4FF67F7319401143018370470A464F
:102690000021018BC1F30E014FF6FF7303EA022301
:1026A0001943018370470A460021818B4FF67F73DF
:1026B00019401143818370470A460021818BC1F381
:1026C0000E014FF6FF7303EA02231943818370471B
:1026D0000A460021018C4FF6FD7319401143018415
:1026E00070470A460021018C4FF6F77319401143D9
:1026F000018470470A460021018C4FF6DF731940B0
:102700004FF6FF7303EA02131943018470470A4628
:102710000021018C4FF67F7319404FF6FF7303EAD7
:1027200002131943018470470A460021018C4FF6B9
:10273000FF5319404FF6FF7303EA02231943018444
:1027400070470A460021018C4FF2FF7319404FF683
:10275000FF7303EA02231943018470470A460021EC
:10276000018C4DF6FF7319404FF6FF7303EA0233F5
:1027700019430184704730B5002301248C40A3B273
:10278000048C9C430484048C02FA01F5ADB22C4302
:10279000048430BD30B5002304248C40A3B2048CE3
:1027A0009C430484048C02FA01F5ADB22C430484EA
:1027B00030BD70B5034600200024184618300125AE
:1027C0008D40ACB21D8CA5431D8409B1082909D1E7
:1027D00000EB6100056825F070050560056815438C
:1027E00005600EE00D1FC5F34E052844056825F46D
:1027F000E045056005684FF6FF7606EA0226354398
:10280000056070BD21B1028842F00202028004E03E
:1028100002884FF6FD731A400280704721B102888A
:1028200042F00402028004E002884FF6FB731A4073
:102830000280704721B1828842F08002828004E0E9
:1028400082884FF67F731A408280704702884FF665
:10285000F7731A40028002880A4302807047828818
:102860004FF68F731A40828082880A4382807047B5
:1028700002894FF6F8731A40028102890A430281E5
:10288000704702894FF67F731A40028102890A431A
:1028900002817047818470478185704781867047C7
:1028A0000187704781877047A0F840107047028801
:1028B0004FF6FF431A40028002880A4302807047A5
:1028C0000146888E70470146088F70470146888F01
:1028D00070470146B1F8400070470146888C704748
:1028E0000146088D704702460020138A0B400BB149
:1028F000012000E000207047CA430282704730B5D3
:102900000246002000230024158A05EA0103958968
:1029100005EA010413B10CB1012000E0002030BD34
:10292000CA430282704710B500F0BAF810BD70B506
:102930000446002600F0F3F82546E11704EB116188
:102940000912A02202EB4101C8B200F06AF900F0BE
:1029500016F9E11704EB11610912A4EB0121C8B2C9
:1029600000F05FF900F00BF900F0D9F8A12000F0B9
:1029700058F900F004F9002000F080F9064600F054
:10298000E7F8304670BD70B504460E4600F0C7F853
:102990002546E11704EB11610912A02202EB410167
:1029A000C8B200F03EF900F0EAF8E11704EB11615B
:1029B0000912A4EB0121C8B200F033F900F0DFF8EE
:1029C000304600F02EF900F0DAF800F0C1F80A20E5
:1029D00001F0DEFC70BD2DE9F04105460E461746BC
:1029E000002409E0E20026FA02F2D1B22A1990B2DC
:1029F000FFF7C9FF601CC4B2BC42F3DBBDE8F08145
:102A00002DE9F04107460C460026002509E0360274
:102A10003919491B491E88B2FFF789FF0644681C13
:102A2000C5B2A542F3DB3046BDE8F08110B5FF200A
:102A3000FFF77DFF0446362C01D1002010BD362162
:102A4000FF20FFF7A0FFFF20FFF771FF0446362CA1
:102A500001D10020F2E70120F0E770B506460C46F0
:102A6000154608E03046721C96B2FFF760FF04F886
:102A7000010B681E85B2002DF4D170BD70B50546FE
:102A80000C46164606E021782846FFF77CFF681CB6
:102A900085B2641C3000A6F101018EB2F3D170BD85
:102AA00008B501210820FEF73DF94FF48060ADF82C
:102AB000000003208DF8020010208DF80300694605
:102AC0008248FDF773FE4FF40060ADF800006946E0
:102AD0007E48FDF76BFE01207D4908607D49C1F805
:102AE000AC0108BD08B54FF40060ADF8000003204C
:102AF0008DF8020010208DF8030069467348FDF739
:102B000055FE08BD08B54FF40060ADF80000482040
:102B10008DF8030069466D48FDF748FE08BD10B505
:102B2000FFF7E0FF01206A49091D08606949C1F803
:102B3000A801052001F008FC00206549091D086076
:102B4000062001F001FC00206249C1F8A80110BD77
:102B500010B5FFF7C7FF00205D4908605D49C1F867
:102B6000AC0101205A490860062001F0EDFB01206C
:102B70005849C1F8AC01062001F0E6FB10BD10B5C4
:102B80000024FFF7BFFF01205149091D086001F033
:102B9000DBFB01204F49C1F8A80101F0D5FB07E09C
:102BA000601CC4B2FA2C03DDFFF7D2FF012010BD78
:102BB00047487C3800680028F2D14549086000BFCA
:102BC000F5E710B5002042490860FFF78BFF0020B1
:102BD0004049C1F8AC01022001F0B6FB01203C499C
:102BE0000860052001F0B0FB00203A49C1F8A801B7
:102BF00010BD10B5002036490860FFF773FF0120B3
:102C00003449C1F8AC01022001F09EFB012030499B
:102C10000860052001F098FB00202E49C1F8A801AA
:102C200010BD70B50446FFF75DFF0020284908601D
:102C3000002520E004F08000002804DD0120244964
:102C4000091D086003E000202149091D0860600695
:102C5000040E022001F078FB01201D4908600220CB
:102C600001F072FB00201B49C1F8A801022001F00D
:102C70006BFB681CC5B2082DDCDB70BD70B505466A
:102C80000024FFF73FFF002616E0002010490860EF
:102C9000022001F059FB01200E49C1F8A80160068D
:102CA000040E0B487C38006808B1601CC4B20120D7
:102CB00001F04AFB701CC6B2082EE6DB15B9FFF71F
:102CC00098FF01E0FFF77DFF204670BD000C01403A
:102CD000A88121420080214208B501211020FEF781
:102CE00021F8FF20ADF8000010208DF8030003202C
:102CF0008DF8020069460448FDF758FDFF2102489F
:102D0000FDF701FE08BD00000010014010B50446AB
:102D100000BF02216948FEF7C2FE0028F9D0214613
:102D20006648FEF769FE00BF01216448FEF7B7FE62
:102D30000028F9D06148FEF761FEC0B210BD00B5B1
:102D400087B001210420FDF7EDFF01210803FDF705
:102D5000E9FFE020ADF8180018208DF81B000320D3
:102D60008DF81A0006A95648FDF720FD0020ADF8A1
:102D700004004FF48270ADF806000020ADF80800A2
:102D80000220ADF80A000120ADF80C004002ADF8B9
:102D90000E003820ADF810000020ADF8120007201A
:102DA000ADF8140001A94548FEF750FD0121434844
:102DB000FEF7F1FDFF20FFF7A9FF07B000BD10B53A
:102DC00004463E4800884FF6C77108403B490880DA
:102DD000084600882043088001213848FEF7DBFDC3
:102DE00010BD10B5044600BF02213648FEF757FE5D
:102DF0000028F9D021463348FEF7FEFD00BF01212F
:102E00003048FEF74CFE0028F9D02E48FEF7F6FDBC
:102E1000C0B210BD00B587B001210820FDF782FFC8
:102E200001218803FDF78BFF4FF46040ADF81800D7
:102E300018208DF81B0003208DF81A0006A92248DF
:102E4000FDF7B4FC0020ADF804004FF48270ADF83B
:102E500006000020ADF808000220ADF80A000120AD
:102E6000ADF80C004002ADF80E003820ADF81000AF
:102E70000020ADF812000720ADF8140001A9114898
:102E8000FEF7E4FC01210F48FEF785FDFF20FFF768
:102E9000A8FF07B000BD10B504460A4800884FF6E9
:102EA000C771084007490880084600882043088009
:102EB00001210448FEF76FFD10BD00000030014005
:102EC0000008014000380040000C014000B597B0F8
:102ED00001214FF4F070FDF725FF01210802FDF7F5
:102EE00014FF03208DF85A004FF48060ADF85800AD
:102EF00018208DF85B0016A93848FDF757FC032011
:102F0000ADF8580016A93648FDF750FC3020ADF852
:102F1000580016A93348FDF749FC4FF60370ADF889
:102F2000580016A92F48FDF741FC4FF68070ADF808
:102F3000580016A92A48FDF739FC4FF23F00ADF8BA
:102F4000580016A92848FDF731FC3F20ADF858007D
:102F500016A92248FDF72AFC0020009001901820B5
:102F600002900020039004900590069004200790A2
:102F700000200890099010200A9000200B900D90DE
:102F80000C900E900F904FF48050109000201190F4
:102F900012901390CDF850D0CDF854D007A8FEF77A
:102FA00075F901210420FEF7D9FA17B000BD10B55C
:102FB00006E010F8014B4FF0D0435C54491C521E00
:102FC000002AF6D110BD06E04FF0D0435B5C00F85C
:102FD000013B491C521E002AF6D1704700200140D7
:102FE0000018014000140140001C014008B50121F7
:102FF0004FF4B070FDF796FE4CF23370ADF8000060
:1030000018208DF8030003208DF802006946FE4861
:10301000FDF7CCFB4FF68070ADF8000018208DF85E
:10302000030003208DF802006946F848FDF7BEFB57
:1030300041F20100ADF8000018208DF803000320D4
:103040008DF802006946F248FDF7B0FB08BD00B5F7
:103050009DB001210802FDF758FE012007900020D5
:1030600008900F20099000200A900B900C900D9072
:10307000009001900320029000200390049005909E
:10308000069006200E9000200F90109010201190B6
:103090000020129014901390159016904FF48050C9
:1030A0001790002018904FF48040199000201A903B
:1030B00007A81B90CDF870D00EA8FEF7E7F8012105
:1030C0000620FEF74BFA1DB000BDD24908807047BC
:1030D000D049891C0880704700B503460A46184647
:1030E000FFF7F3FF1046FFF7F3FF00BDC949891C46
:1030F00008807047C748801C0088704700B50246AA
:10310000B2B90120FFF7E1FF4FF48070FFF7E0FF55
:103110000320FFF7DAFF41F23000FFF7D9FF4FF449
:10312000C870BD494880F02008800020887114E0F4
:103130000120FFF7CAFF0020FFF7CAFF0320FFF7B7
:10314000C4FF41F23800FFF7C3FFF020B2494880C6
:103150004FF4C87008800120887100BD30B5054665
:103160000C46AD48807950BB4FF40470FFF7ADFFBB
:103170002846FFF7ADFF40F21120FFF7A6FF1046EB
:10318000FFF7A6FF40F21220FFF79FFF2046FFF750
:103190009FFF40F21320FFF798FF1846FFF798FFB4
:1031A0004FF40070FFF791FF2846FFF791FF40F2C0
:1031B0000120FFF78AFF2046FFF78AFF29E040F24F
:1031C0001220FFF782FF2846FFF782FF40F213200C
:1031D000FFF77BFF1046FFF77BFF4FF40470FFF70C
:1031E00074FF2046FFF774FF40F21120FFF76DFFD8
:1031F0001846FFF76DFF40F20120FFF766FF2846F3
:10320000FFF766FF4FF40070FFF75FFF2046FFF700
:103210005FFF40F20220FFF758FF30BD70B5064651
:103220007D484088401E83B27B480088401E82B2A1
:1032300000210846FFF792FF00240CE0002504E07F
:103240003046FFF753FF681C85B273484088A84298
:10325000F6DC601C84B270480088A042EEDC70BDD1
:1032600010B5FFF7C3FEFFF7F2FE322001F090F831
:103270000020FFF72AFFFFF73DFF674988800846D7
:10328000818866A005F020FD0020FFF71EFF0020CA
:10329000FFF71EFF0020FFF718FF0020FFF718FFC1
:1032A0000020FFF712FF0020FFF712FF4FF48060AD
:1032B000FFF70BFF4FF4C440FFF70AFF0820FFF7AA
:1032C00004FF40F60800FFF703FF0120FFF7FDFEB3
:1032D0004FF48070FFF7FCFE0220FFF7F6FE4FF47C
:1032E0008070FFF7F5FE0320FFF7EFFE41F230009C
:1032F000FFF7EEFE0820FFF7E8FE40F60800FFF7B4
:10330000E7FE4FF44070FFF7E0FE0C20FFF7E0FE11
:1033100040F20130FFF7D9FE45F60B20FFF7D8FE4B
:1033200040F20230FFF7D1FE40F60610FFF7D0FE64
:1033300040F20330FFF7C9FE41F21700FFF7C8FE65
:103340004FF44170FFF7C1FE4FF40C50FFF7C0FE81
:1033500040F20530FFF7B9FE4FF4B850FFF7B8FE62
:1033600040F20630FFF7B1FE46F20930FFF7B0FE3B
:1033700040F20730FFF7A9FE40F60940FFF7A8FE2C
:103380004FF44270FFF7A1FE41F20C00FFF7A0FEE0
:1033900040F20930FFF799FE42F23220FFF798FE23
:1033A0001020FFF792FE1420FFF792FE1120FFF786
:1033B0008CFE40F20110FFF78BFE4FF48070FFF798
:1033C00084FE4FF40C70FFF783FE322000F0E0FF24
:1033D00040F20110FFF779FE40F24720FFF778FE38
:1033E0004FF4FA7401E0601E84B2002CFBDC322042
:1033F00000F0CEFF40F20310FFF767FE4FF42060AD
:10340000FFF766FE12E000000014014000180140C2
:1034100000200140FE07006C2C000020204C43449B
:103420002049443A25780D0A000000004FF4FA7450
:1034300001E0601E84B2002CFBDC0A2000F0A8FF33
:103440004FF42070FFF741FE4FF2FF00FFF740FE00
:10345000322000F09DFF4FF4FA7401E0601E84B248
:10346000002CFBDC4FF48170FFF72FFE4BF2B01005
:10347000FFF72EFE4FF4FA7401E0601E84B2002CB8
:10348000FBDC322000F084FF4FF40470FFF71DFED8
:103490000020FFF71DFE40F21120FFF716FEEF207F
:1034A000FFF716FE40F21220FFF70FFE0020FFF795
:1034B0000FFE40F21320FFF708FE40F28F10FFF7D7
:1034C00007FE4FF40070FFF700FE0020FFF700FE3C
:1034D00040F20120FFF7F9FD0020FFF7F9FD40F26F
:1034E0000140FFF7F2FD0020FFF7F2FD0720FFF794
:1034F000ECFD4FF48070FFF7EBFD4FF4FA7401E040
:10350000601E84B2002CFBDC322000F041FF40F250
:103510000220FFF7DAFD0120FFF7F0FD4FF6FF7004
:10352000FFF77CFE10BD2DE9F04304460D4616461C
:103530001F46DDF81C80B44201DCBD4201DDBDE860
:10354000F0833B46324629462046FFF707FE301BF4
:10355000401C84B2781B401C85B20BE0A94602E0F7
:103560004046FFF7C3FD5FEA0900A9F101011FFA18
:1035700081F9F5D12000A4F101018CB2EED100BF98
:10358000DDE730B504460D462B4622462946204647
:10359000FFF7E4FDFE480088FFF7A8FD30BD70B5D9
:1035A00004460D4616462B46224629462046FFF77E
:1035B000D5FD3046FFF79AFD70BD2DE9F041044678
:1035C0000D4600260027B046F2480088A04203DDE1
:1035D000F0484088A84202DC0020BDE8F0812B467C
:1035E000224629462046FFF7B9FD40F20220FFF7A8
:1035F0006CFDFFF77FFD0646FFF77CFD0646FFF7F3
:1036000079FD06463046E8E72DE9FF4F84B0814654
:103610008A460020039002900698A0EB09050798BF
:10362000A0EB0A06CDF80490CDF800A0002D01DD36
:10363000012705E00DB9002702E04FF0FF376D428A
:10364000002E02DD4FF0010806E016B94FF0000829
:1036500002E04FF0FF387642B54201DD2C4600E033
:1036600034464FF0000B21E0009A91B2019A90B2DB
:10367000FFF787FF03982844039002983044029094
:103680000398A04205DD0398001B0390019838447D
:1036900001900298A04205DD0298001B029000985C
:1036A000404400900BF101001FFA80FB601C834531
:1036B000DADD08B0BDE8F08F2DE9FF4F84B0814618
:1036C0008A460020029083460698A0EB09050798D9
:1036D000A0EB0A06CDF80490CDF800A0002D01DD86
:1036E000012705E00DB9002702E04FF0FF376D42DA
:1036F000002E02DD4FF0010806E016B94FF0000879
:1037000002E04FF0FF387642B54201DD2C4600E082
:103710003446002003901EE0009A91B2019A90B2C4
:10372000119AFFF73CFF029828440290B344029894
:10373000A04205DD0298001B0290019838440190D8
:10374000A34504DDABEB040B0098404400900398C4
:10375000401C80B20390611C03988842DCDD08B0F5
:10376000BDE8F08FF0B504460D46174605F1010C93
:103770001FFA8CF304F1010C1FFA8CF2A5F1010C75
:103780001FFA8CF1A4F1010C1FFA8CF0FFF7E6FC94
:10379000002604E03846FFF7A9FC701CC6B2092ECB
:1037A000F8DB211D8AB2211F88B22B462946FFF77C
:1037B000D5FC002604E03846FFF798FC701CC6B222
:1037C000092EF8DB281D83B2281F81B2224620462D
:1037D000FFF7C4FC002604E03846FFF787FC701CA6
:1037E000C6B2092EF8DBF0BDF0B504460D4616460C
:1037F0001F462B46324629462046FFF705FF3B462B
:10380000224629462046FFF7FFFE3B463246394610
:103810002046FFF7F9FE3B46324629463046FFF781
:10382000F3FEF0BD2DE9F04306460F469046002416
:1038300045460320A0EB48093CE07A1B91B23219BF
:1038400090B2FFF79EFE3A1B91B2721990B2FFF749
:1038500098FE3A1991B2721990B2FFF792FE7A1956
:1038600091B2321990B2FFF78CFE7A1991B2321BE5
:1038700090B2FFF786FE3A1991B2721B90B2FFF731
:1038800080FE7A1B91B2321B90B2FFF77AFE3A1B90
:1038900091B2721B90B2FFF774FE641CB9F1000F75
:1038A00003DAA000801D814404E0601B80000A3020
:1038B00081446D1EAC42C0DDBDE8F0832DE9F84FB8
:1038C00080460E4617461C46B3462046E31704EBD7
:1038D0005373DB1021464FEAE47C04EB5C7C4FEA37
:1038E000EC0CA4EBCC0CBCF1000F02D04FF0010C9F
:1038F00001E04FF0000C6344224604EBD27C4FEA17
:103900006C0C03FB0CF3DBB20093A7F12000C7B2F1
:10391000002562E00C2C07D107EB47001E4901EBA4
:10392000800010F8059013E0102C05D11B4800EB27
:10393000071010F805900BE0182C07D107EBC70013
:10394000174901EB800010F8059001E0BDE8F88F01
:103950004FF0000A3BE009F0800030B10C480288CB
:1039600031464046FFF71BFE07E00A9828B90D488C
:10397000028831464046FFF712FE4FEA49604FEA9F
:103980001069701C86B203484088B0420CDCDDE749
:10399000280000202C0000202E3A0208A23E020837
:1039A000924402082A000020A6EB0B00A0420AD194
:1039B0005E4608F101001FFA80F8CC4800884045B7
:1039C00000DCC3E706E00AF1010000F0FF0ABAF1EB
:1039D000080FC0DB00BF681CC5B20098854299DBA8
:1039E00000BFB3E710B50246012000E050430B00D2
:1039F000A1F10104E1B2F9D110BD2DE9FF4F81B071
:103A0000074691461E460E9D4FF0000A002439E0FD
:103A1000301B401EC1B20A20FFF7E4FFB9FBF0F0F3
:103A20000A21B0FBF1F201FB1208BAF1000F16D126
:103A3000701EA04213DDB8F1000F0ED10020AB467E
:103A400005EBDB71491001FB0471009088B22B4635
:103A500020220299FFF732FF12E04FF0010A002006
:103A6000AB4605EBDB71491001FB0471009088B295
:103A700008F13001CAB22B460299FFF71FFF00BFC1
:103A8000601CC4B2B442C3DB05B0BDE8F08F2DE9C1
:103A9000FF4F82B0064692461F46DDE90F480020E0
:103AA000019000254DE0781B401EC1B20A20FFF7AF
:103AB00099FFBAFBF0F00A21B0FBF1F201FB120909
:103AC000019850BB781EA84227DDB9F1000F22D122
:103AD00008F0800078B108F00100A34604EBDB7128
:103AE000491001FB0561009088B2234630220399FA
:103AF000FFF7E4FE0EE008F00100A34604EBDB71E3
:103B0000491001FB0561009088B2234620220399E9
:103B1000FFF7D4FE13E00120019008F00100A34656
:103B200004EBDB71491001FB0561009088B209F1DB
:103B30003001CAB223460399FFF7C0FE00BF681CDC
:103B4000C5B2BD42AFDB06B0BDE8F08F2DE9F84746
:103B500004460D4690469946DDE9096704F0FF0AE0
:103B600008EB04001FFA80F809EB05001FFA80F942
:103B700016E0444502DB5446A81985B24D4500DBEA
:103B800014E0002000903A78334629462046FFF79B
:103B900095FE304606EBD07104EB61018CB27F1CC0
:103BA00038787E2802DC38782028E2DA00BFBDE8C9
:103BB000F8872DE9F84F04460F461546A3460097AF
:103BC00060E0002657E006EB8600C0EB861048490F
:103BD00011F81000297888424BD106EB8600C0EB23
:103BE0008610434901EB400040786978884240D113
:103BF0004FF000083AE006EB8600C0EB86103C4927
:103C000001EB4000801C10F808A04FF0000926E0EE
:103C10000AF08000802806D13648028839462046BE
:103C2000FFF7BDFC05E03448028839462046FFF71F
:103C3000B6FC4FF6FF7000EA4A0A601C84B2A4EB9F
:103C40000B00202807D15C46781C87B20098381AF0
:103C50001D2800D1009F09F1010000F0FF09B9F112
:103C6000080FD5DB08F1010000F0FF08B8F1740F70
:103C7000C1DB701CC6B2142EA5DBAD1C04F1200004
:103C800084B2A346287800289BD1BDE8F88F2DE99F
:103C9000F04F8046894615461E46DDF824A00027D1
:103CA0000024A34609EB0600401E83B208EB050082
:103CB000401E82B249464046FFF750FA05FB06F027
:103CC0004FEA400B00BF601C1AF800704FF6FF70FF
:103CD00000EA07271AF8040007433846FFF706FAF8
:103CE000A41C5C45EFDBBDE8F08F00002C00002039
:103CF000EE510208280000202A0000207FB505466A
:103D00000C4601210420FDF71AF8ADF80850ADF873
:103D100004400020ADF80A00ADF8060001A955489E
:103D2000FDF7C8FF012211465248FEF73AFB012178
:103D30005048FEF7F5FD1E208DF8000002208DF89A
:103D4000010003208DF8020001208DF80300684671
:103D5000FCF763FC01214748FEF708FB7FBD10B567
:103D600001214448FEF7CBFD38B14348006808B94B
:103D7000012000E000204049086001213D48FEF795
:103D8000CFFD10BD7FB504460D4601210220FCF792
:103D9000D6FFADF804500020ADF80600ADF808409D
:103DA000ADF80A0001A93548FDF784FF012211464C
:103DB0003248FEF7F6FA1D208DF8000000208DF83D
:103DC000010003208DF8020001208DF803006846F1
:103DD000FCF723FC01212948FEF7C8FA7FBD10B586
:103DE00001212648FEF78BFD20B125480068401CC4
:103DF0002349086001212148FEF792FD10BD7FB5DF
:103E000004460D4601211020FCF799FFADF804503F
:103E10000020ADF80600ADF80840ADF80A0001A991
:103E20001848FDF747FF012241211648FEF7B9FA6D
:103E300036208DF8000001208DF8010003208DF858
:103E4000020001208DF803006846FCF7E6FB012123
:103E50000C48FEF78BFA7FBD10B501210948FEF72B
:103E60004EFD08B10AF000FB01210648FEF758FD9F
:103E700010BD000000080040840122420004004000
:103E800060000020001000402DE9FE43804618200D
:103E9000FEF795FF002425E00020FE49086040461B
:103EA000FEF734FFFF20FEF731FF2DF814003DF838
:103EB00014004FF6FF7101EA00202DF81400FF20D6
:103EC000FEF724FF3DF8141008432DF814003DF8C8
:103ED0001400C0102DF814000120EF49C1F898011A
:103EE000601CC4B2052CD7DB002416E0601CC5B2F0
:103EF0000FE03DF814003DF81510884207DA3DF850
:103F000014603DF815002DF814002DF81560681C9C
:103F1000C5B2052DEDDB601CC4B2042CE6DB042524
:103F20000027012404E03DF814000744601CC4B2DB
:103F3000AC42F8DB0320B7FBF0F086B23046BDE8B8
:103F4000FE832DE9F04704460D46D020FFF79CFF85
:103F500006469020FFF798FF0746D020FFF794FF12
:103F600080469020FFF790FF8146464503DDA6EB93
:103F70000800208002E0A8EB060020804F4503DD0A
:103F8000A7EB0900288002E0A9EB07002880208821
:103F9000142802DC2888142802DDFF20BDE8F08701
:103FA00006EB080000EBD071C1F34F01218007EB55
:103FB000090000EBD071C1F34F0129802088B0F5D2
:103FC0007A6F09DC2088642806DB2888B0F57A6FD0
:103FD00002DC2888642801DAFF20DFE70020DDE723
:103FE0002DE9F0478046894614461D46AB480088B7
:103FF000FFF714F94FF4784249464046FFF7B2FB09
:1040000000261DE029462046FFF79BFF60B9701C83
:10401000C6B20A2E08DDA148028849464046FFF78D
:10402000A1FB0020BDE8F0877F1C17F1020F07D924
:104030009A48028849464046FFF794FBFF20F1E783
:10404000E0E72DE9F04387B001AB03AA0A21084657
:10405000FFF7C6FF10B107B0BDE8F0834FF4FA7068
:1040600000F096F98E4840880A3881B20DF10603B7
:104070000DF10E020A20FFF7B3FF00B1EBE74FF49A
:10408000FA7000F085F9864909880A3988B202ABCE
:1040900004AA0A21FFF7A4FF00B1DCE74FF4FA708D
:1040A00000F076F97E4A52880A3A91B27C4A128828
:1040B0000A3A90B20DF10A030DF11202FFF790FFD8
:1040C00000B1C8E74FF4FA7000F062F9BDF80C10C7
:1040D000BDF80E20881800EBD071C1F34F01ADF888
:1040E0001810BDF80410BDF80820881800EBD07136
:1040F000C1F34F01ADF81410BDF81210BDF8102037
:10410000881800EBD071C1F34F01ADF81A10BDF85B
:104110000A10BDF80620881800EBD071C1F34F01DA
:10412000ADF81610BDF81A10BDF81820881A1FF047
:1041300011FB06465A490988A1F114001FF00AFB39
:10414000074631461FF0D4F90446BDF81610BDF8F5
:104150001420881A1FF0FEFA064651494988A1F139
:1041600014001FF0F7FA074631461FF0C1F9054663
:10417000BDF81A001FF006FB814621461FF016FB12
:104180000746474909880A3908B21FF0E3FA804612
:1041900039461FF0D7FB06461FF0A0FA00B241498E
:1041A0004880BDF816001FF0EDFA814629461FF041
:1041B000FDFA07463A4949880A3908B21FF0CAFA97
:1041C000804639461FF0BEFB06461FF087FA00B254
:1041D0003449888008468460C560592008701022E0
:1041E000C820FEF74BFC00BF35E708B501212020B1
:1041F000FCF798FD4020ADF8000010208DF803007A
:1042000003208DF8020069462748FCF7CFFA80208A
:10421000ADF8000048208DF8030069462248FCF7FD
:10422000C5FAFEF78CFDFEF77EFB10221D49C82063
:10423000FEF713FC1B480078592801D0FFF701FF57
:1042400008BD2DE9F0411949881EFFF77AFE10B12B
:10425000FF20BDE8F0811349B1F902001FF07AFA9E
:1042600006461249891E08881FF08CFA07460D4839
:10427000816838461FF09AFA054631461FF0CAF8A1
:1042800004461FF047FA0949891E88800549B1F99B
:1042900004000DE098812242008022422A00002082
:1042A0002C000020E00D002000140140360000200A
:1042B0001FF050FA0646144948881FF063FA074673
:1042C0001248C16838461FF071FA054631461FF0A2
:1042D000A1F804461FF01EFA0B49C88008468088E2
:1042E0000B490988884203DD09480088064988800F
:1042F0000548C08806494988884203DD044840884B
:104300000149C8800020A4E734000020E00D00200F
:104310002C00002010B504466FF00400FCF7C7F92C
:10432000E11704EB5171C1F3C7012B4A117010461C
:10433000007800EB4001C1EBC0104FF6FF7101EABD
:10434000C0002649088010BD0146234A12784A431E
:104350004FF0E0235A6100229A611A46126942F036
:1043600001021A6100BF4FF0E022106900F0010263
:104370001AB100F48032002AF5D04FF0E022126921
:1043800022F001024FF0E0231A6100229A61704787
:104390000146124A12884A434FF0E0235A61002234
:1043A0009A611A46126942F001021A6100BF4FF089
:1043B000E022106900F001021AB100F48032002AF4
:1043C000F5D04FF0E022126922F001024FF0E02315
:1043D0001A6100229A6170473C0000203E000020D4
:1043E000014600BF704770B504460D46E1B239483A
:1043F000FCF738FE00BF80213648FCF7A1FE0028FC
:10440000F9D0204670BD10B586B00446012144F2B3
:104410000400FCF787FC4FF40070ADF81400032093
:104420008DF8160018208DF8170005A92A48FCF70A
:10443000BDF94FF48060ADF8140004208DF817002A
:1044400005A92548FCF7B2F925208DF800000320C6
:104450008DF801008DF8020001208DF803006846F8
:10446000FCF7DBF801940020ADF80800ADF80A0075
:10447000ADF80C00ADF810000C20ADF80E0001A94D
:104480001448FCF7F6FC012240F225511148FCF7D4
:1044900088FD01210F48FCF778FD06B010BD10B56E
:1044A00040F225510B48FCF761FE70B10948FCF75A
:1044B000DDFDC4B221460748FCF7D4FD00BF402112
:1044C0000448FCF73DFE0128F9D140210148FCF7E2
:1044D00044FE10BD003801400008014070B503469D
:1044E0000C4603E014F8015B03F8015B1500A2F130
:1044F0000102F7D170BD30B5034601E003F8011B9E
:104500001400A2F10102F9D130BD10B504467A4978
:1045100051F824104A00794951F824000021FFF78E
:10452000EAFF774951F824207449083951F82400EA
:104530000021FFF7E0FF012170480830015510BD50
:1045400010B501460023002207E06C4850F8210016
:1045500030F8120000B15B1C521C674850F8210073
:104560009042F2D864205843634C54F82140B0FB89
:10457000F4F0C0B210BD2DE9F04704460F46002507
:10458000A9465E480830005D20B95C4810380168D3
:10459000204688471FB94FF0FF30BDE8F0875948E3
:1045A00050F82400B7FBF0F6564850F82400B7FB4B
:1045B000F0F100FB117000B1761C4F4850F8240058
:1045C000451E20E04D4850F8240030F8150010B981
:1045D00009F1010901E04FF00009B14512D14FF096
:1045E000000808E0454850F8240005EB080220F8D0
:1045F000126008F10108B045F4D3424850F8240095
:104600006843CAE76D1E002DDCDA4FF0FF30C4E7C7
:104610002DE9F04104460E4638480830005D38B9AF
:10462000364810380168204688470120BDE8F081EF
:10463000334850F82400B04217D9324850F82400CB
:10464000B6FBF0F12D4850F8240030F81120002579
:1046500007E00023294850F824004F1920F81730AC
:104660006D1C9542F5DB0020E0E70220DEE770B527
:1046700005460C4604B970BD2048083850F825009E
:10468000261A31462846FFF7C3FF00BFF3E770B58F
:1046900004460E4631462046FFF76DFF0546681C6E
:1046A00008B9002070BD1548083850F82400284487
:1046B000F8E72DE9F04104460F46164631462046FC
:1046C000FFF759FF0546681C10B90020BDE8F081CE
:1046D0000A49083951F82410481932463946FFF77B
:1046E000FDFE39462046FFF7C2FF0448083850F85F
:1046F00024002844EAE70000145602085400002071
:10470000245602081C5602087047704710B5D02086
:10471000FFF7BAFB10BD10B59020FFF7B5FB10BD39
:1047200010B54FF4FA210120FFF7B1FF04464FF412
:10473000FA21204607F092F9802007F0AFFA0248EC
:1047400009F0E6FC10BD00005C9B06082DE9F04175
:1047500007460C4615461E46B2B2A9B2A0B2FEF7F5
:104760001EFFBDE8F0812DE9F04107460C461546D5
:10477000A9B2A0B2FEF721FF06463046BDE8F0819F
:104780002DE9F04104460D4616463246294620469C
:10479000FFF7E9FF0746216988688047804687EA76
:1047A0000803324629462046FFF7D0FFBDE8F081D6
:1047B0002DE9F84380460C4615461E46089FFE48E4
:1047C0000068C06B008880B2BBB2B2B2A9B20090E0
:1047D000A0B2FEF7A8FEBDE8F883F8B505460E4680
:1047E00014461F463B462246314628460094FFF7B2
:1047F000DFFFF8BDF8B506460C4617461D462346B2
:104800003A46214630460095FFF7D2FFF8BD2DE924
:10481000FF4F83B081460E461C46DDE9117A109D9C
:10482000DAF800000290DAF8040001902E44E24821
:104830000068007C00F0030030B1012836D0022867
:104840001CD0032855D130E000BF207880222A41B7
:10485000104008B1019800E0029803463146761CEA
:104860004846059AFFF772FF681C0546082801D1E3
:104870000025641C781E0700E7D13AE000BF2078CD
:1048800080212941084028B131464846019B059ABC
:10489000FFF75CFF761C681C0546082801D100253F
:1048A000641C781E0700EAD123E000BFD9F810107D
:1048B00088688047804600BF2078802129410840D1
:1048C00060B131464846059AFFF74DFF83468BEAB3
:1048D000080331464846059AFFF738FF761C681CE6
:1048E0000546082801D10025641C781E0700E3D185
:1048F00000BF00BF07B0BDE8F08F2DE9FF4F81B0CA
:104900000F469846DDE90F9A98F800B00E9D0E9D6F
:104910002F44A9480068007C00F0030010B1022871
:104920004BD14BE0BAF1000F25D000BFC5F1030019
:104930004400C4F10601C020084100EA0B0020FA3F
:1049400004F65AF82600009039467F1CDDE9003055
:10495000039AFFF7FBFE681C0546042805D10025D5
:1049600008F10100804690F800B0A9F101005FEA6B
:104970000009DBD121E000BFC5F103004400C4F110
:104980000601C020084100EA0B0020FA04F639466F
:104990007F1C3346039A0198FFF7D8FE681C054632
:1049A000042805D1002508F10100804690F800B0E8
:1049B000A9F101005FEA0009DED14DE0BAF1000F74
:1049C00026D000BFC5F103004400C4F10601C02099
:1049D000084100EA0B0020FA04F646B15AF8260016
:1049E00000903946DDE90030039AFFF7AFFE7F1CE7
:1049F000681C0546042805D1002508F10100804601
:104A000090F800B0A9F101005FEA0009DAD122E0D4
:104A100000BFC5F103004400C4F10601C0200841F5
:104A200000EA0B0020FA04F62EB133463946039A09
:104A30000198FFF78BFE7F1C681C0546042805D1F2
:104A4000002508F10100804690F800B0A9F10100AE
:104A50005FEA0009DDD100BF00BF05B0BDE8F08FFF
:104A60002DE9FF4F81B00F469846DDE90F9A98F87F
:104A700000B00E9D0E9D2F444F480068007C00F052
:104A8000030010B102284BD14BE0BAF1000F25D042
:104A900000BFC5F101008400C4F10401F020084109
:104AA00000EA0B0020FA04F65AF826000090394676
:104AB0007F1CDDE90030039AFFF748FE681C0546BD
:104AC000022805D1002508F10100804690F800B0C9
:104AD000A9F101005FEA0009DBD121E000BFC5F1C7
:104AE00001008400C4F10401F020084100EA0B0039
:104AF00020FA04F639467F1C3346039A0198FFF7E3
:104B000025FE681C0546022805D1002508F1010094
:104B1000804690F800B0A9F101005FEA0009DED1FB
:104B200050E0BAF1000F26D000BFC5F101008400AB
:104B3000C4F10401F020084100EA0B0020FA04F659
:104B400046B15AF8260000903946DDE90030039A54
:104B5000FFF7FCFD7F1C681C0546022805D10025D7
:104B600008F10100804690F800B0A9F101005FEA69
:104B70000009DAD125E000BFC5F101008400C4F1CD
:104B80000401F020084100EA0B0020FA04F62EB1DF
:104B900033463946039A0198FFF7D8FD7F1C681CFD
:104BA0000546022805D1002508F10100804690F84D
:104BB00000B0A9F1010001E0480700205FEA000908
:104BC000DAD100BF00BF05B0BDE8F08F2DE9F04796
:104BD00081460F4692461C46DDE90858F7480068B2
:104BE000007C00F0030010B1022841D11EE0B8F1B2
:104BF000000F0ED00AE0267858F826305246394683
:104C00004846FFF7A3FD6D1E7F1C641C002DF2DCDF
:104C10000BE008E02378524639464846FFF796FDF8
:104C20006D1E7F1C641C002DF4DC21E0B8F1000F28
:104C30000FD00BE0267836B158F826305246394668
:104C40004846FFF783FD6D1E7F1C641C002DF1DCC0
:104C50000DE00AE026782EB13346524639464846E2
:104C6000FFF774FD6D1E7F1C641C002DF2DC00BF7D
:104C700000BFBDE8F0872DE9F04781460E46144697
:104C80001F46089D19E0CE480088A84200DA641C3F
:104C9000A3B2DFF82CC3BCF800C0ACEB050C1FFAC4
:104CA0008CF2A1B2B0B2FEF759FAB7F800804046D4
:104CB000FEF71CFA6D1E761CBF1C002DE3DCBDE860
:104CC000F0872DE9F04107460D4690461C46069EAA
:104CD00008E04246294638462368FFF737FD761E2E
:104CE0006D1C241D002EF4DCBDE8F0812DE9FF4F82
:104CF00083B015461E46DDE914BADDE91297DDF8EA
:104D00004080119808283FD006DC012809D00228ED
:104D100018D0042863D126E0102844D020285ED182
:104D20004FE000240BE062193B46CDE900B6CDF818
:104D300008A0DDE90301FFF76AFD4F44641C444508
:104D4000F1DB4CE000240BE062193B46CDE900B6F4
:104D5000CDF808A0DDE90301FFF7CFFD4F44641C47
:104D60004445F1DB3BE000240BE062193B46CDE912
:104D700000B6CDF808A0DDE90301FFF771FE4F444E
:104D8000641C4445F1DB2AE0002409E062193B463B
:104D9000CDE9006ADDE90301FFF718FF4F44641C09
:104DA0004445F3DB1BE0002408E062193B46009613
:104DB000DDE90301FFF75FFF4F44641C4445F4DB6A
:104DC0000DE0002408E062193B460096DDE903018E
:104DD000FFF777FF4F44641C4445F4DB00BF00BF7E
:104DE00007B0BDE8F08F70B50446A06858B91C2024
:104DF00006F07AFEA060A5682169886880470646AB
:104E00000BF02CFFA861A06808B9012070BD00203C
:104E1000FCE703460A4699680F2A1FD2DFE802F032
:104E20001E080A0C0E1E1E1E10121416181A1C0044
:104E3000486870478868FCE7C868FAE70869F8E7D7
:104E40008869F6E70020F4E70120F2E70120F0E7A7
:104E50000020EEE70020ECE70020EAE74FF0FF300B
:104E6000E7E70246012901D1564870470020FCE7D8
:104E7000826800230B804B8093895B1E1BB28B8062
:104E8000138A5B1E1BB2CB8070477CB504460D466F
:104E90001646002000900190009501966A46032175
:104EA000A06900F0E4F87CBDF8B504460D4600208A
:104EB00000902046FFF797FFA06838B1A6683560DC
:104EC00000956A460221A06900F0D1F8F8BD2DE9ED
:104ED000F04105460E4617462846FFF784FFA868AE
:104EE00018B1AC68E66027616661BDE8F0812DE924
:104EF000FC4105460E4617460020009001902846CA
:104F0000FFF771FFA86878B1AC68606908B93046EE
:104F100000E0606960616660A760009601976A467C
:104F20000721A86900F0A3F8BDE8FC8170B504462C
:104F30002046FFF758FF054600220121A06900F036
:104F400096F80543284670BD10B504460022052199
:104F5000A06900F08CF810BD10B5044600220621AF
:104F6000A06900F084F810BD7CB504460D461646D5
:104F70000020009001908DF8045000966A460421AC
:104F8000A06900F074F87CBD0246A1F10900082870
:104F900028D2DFE800F00406080A270C0E100A48A1
:104FA00070470A48FCE70A48FAE70A48F8E70A485F
:104FB000F6E70A48F4E70A48F2E70000480700204D
:104FC0002C00002044FD0608A94E0008CF4E000822
:104FD000EF4E00082D4F0008494F0008594F0008B8
:104FE000694F00080020DBE708B500231A46264970
:104FF000264807F049FA26484288018800200BF02D
:1050000001FD23484288018800200BF011FD204853
:105010008079A0B940F63F7000901D4802889B231C
:105020000021084609F0CAF940F65F700090184860
:105030004288BC230021012009F0C0F916E00520B8
:1050400009F0D0FA40F63F700090114842889B2347
:105050000021084609F0B2F940F65F7000900C4854
:105060000288BC230021012009F0A8F908BD10B571
:1050700003461446012901D1002010BD4FF0FF3234
:1050800000BF00BF1046F8E7209406082C5602081F
:105090002C000020084800687047074A1268111861
:1050A00000BF054A12688A1A002AFADC7047704766
:1050B0007047704770477047600000200020F74934
:1050C0000860F7490860F7490860704710B5044662
:1050D0004FF4080009F00CF807F012F924B105228A
:1050E0001146F14807F03EFC10BD7CB504460BF0BC
:1050F000FFF905460BF008FA06464FF40800EB49A5
:1051000033462A46CDE900100021084607F066FD27
:1051100024B105221146E44807F024FC7CBD2DE9AA
:10512000F04F85B080460BF0E3F903900BF0ECF9FB
:1051300006460BF0D1F98346B34509DD4FF408006C
:1051400008F0D6FF5B4600210846039A07F0E6F810
:10515000D7480068002867D1C925D648D64901221A
:105160002B46CDE9002102902A460021084608F08E
:1051700063F9824601203346009000210846039AD5
:1051800008F01EF9CA490860CA48CB4901226423C5
:10519000CDE9002102900021084608F04DF9814632
:1051A000504608F041FB04904FF4080008F0A0FFBF
:1051B00007F0A6F8484608F037FB4FF40800BB4953
:1051C00064230022CDE900101146104607F006FDC9
:1051D000484608F0A7FA0746504608F025FB002489
:1051E00009E0386808F088FF22466421084607F085
:1051F0004BFC641C3F1D642CF3DBAD48006808F0D9
:1052000013FB0021039833460A46CDE90060029162
:10521000504608F035FA504608F01EF9484608F0A6
:105220001BF9049808F000FBA148006808F050FB47
:10523000B8F1000F04D0052211469B4807F092FBFD
:1052400005B0BDE8F08F10B54FF404719B480068BD
:105250000EF076FB044620460EF078FE10BD10B529
:105260004FF40471954800680EF06AFB044620462E
:105270000FF08AFA10BD70B5044620680E280DD0D4
:105280000F2802D01E2815D105E08D4800788D49E1
:105290000968884712E00020E0600FE0E568686870
:1052A00038B128686E2803D101208749086000BF03
:1052B00000BF03E020460EF021FA00BF00BF70BD22
:1052C00010B502E00A2007F097F974480068012839
:1052D000F8D07D480068012804D100207A49086090
:1052E000012010BD0020FCE7FEB506460C462568EF
:1052F00007F0CCFD684608F0D7FC9DF8080018B10F
:10530000012020600020FEBD9DF8080038B9012D65
:1053100005D10020206001206B490860F3E7FFF70A
:10532000CFFF6949086008460068ECE72DE9FC47B3
:10533000044620680E2806D00F283CD01D2809D02E
:1053400026287BD14BE00EF0E5FA824621460FF08D
:1053500085F882E04FF4047160680EF0F1FA81463E
:105360000E2148460CF0BCFC584948460CF090FC15
:105370004FF4006160680EF0E3FA81460021484670
:1053800004F042FA40F6010160680EF0D9FA814655
:105390000021484604F038FA4FF4B07160680EF00E
:1053A000CFFA81464AA148460DF0B2FA4A4948462A
:1053B0000DF09CFA51E060680EF0CEFB0646606886
:1053C0000EF0DBFB074645486FF07F417B1E721EE7
:1053D000CDE900100021084607F000FC3DE0A06880
:1053E0000EF0DFFA0546D4F80C80B8F1020F2ED18A
:1053F000B5F5006F03D0A5F6010030BB1FE02748CC
:10540000006868B100202549086007F03FFE254983
:105410000968401A2249086000200EF00DFF0CE0D8
:1054200001201E49086007F031FE1D490968401A35
:105430001C49086060680EF0FFFE06E009E00120EC
:1054400021490860FFF73AFE00BF00BF00BF00BF60
:1054500003E020460EF052F900BF00BFBDE8FC8714
:105460002DE9FC410446206801280BD00E2802D00B
:105470000F2849D134E00EF04DFA074621460EF0D0
:10548000EDFF45E00BF034F8054641206B10691044
:105490000090002260680FF068F939E08000002079
:1054A000780000207C000020D82D05085555FF000D
:1054B0009000002008940608B8FD0608640000204B
:1054C0008C0000206C0000208400002000F1030804
:1054D000496E74726F000000B4A70608C0CEDC00ED
:1054E00060680EF039FB054660680EF046FB064624
:1054F000F8486FF07F41731E6A1ECDE9001000214D
:10550000084607F06BFB03E020460EF0F7F800BFFB
:1055100000BFBDE8FC8110B50446606840B90E21AB
:10552000206804F092FE0021206804F0A2FE03E04F
:10553000204604F0CDFB10BD00BF0020FBE770B596
:105540000246002300E05B1CD55C002DFBD101244A
:10555000012003E004EB84056C00401CB1FBF4F572
:105560000A2DF7D20025D61835540DE00A25B1FBD7
:10557000F5F605FB16153035D618064406F8015C1D
:105580000A25B1FBF5F1401E0028EFD170BD10B522
:1055900002460020002300E0401C145C002CFBD1DC
:1055A00003E0CC5C1454401C5B1CCC5C002CF8D198
:1055B000145410BD10B586B0142101A803F0BCFD31
:1055C0004FF4B071C44800680EF0BAF90446C3A1A4
:1055D00001A8FFF7DCFFC3480168491C01A8FFF7D9
:1055E000AEFFC1A101A8FFF7D2FFC048016801A822
:1055F000FFF7A5FFBEA101A8FFF7C9FFBD4840689E
:10560000411E01A8FFF79BFF01A920460DF080F97C
:1056100006B010BD7CB50EF07DF906460EF000FF19
:1056200006F06EFE06F02EFE0AF062FF04460AF057
:105630006BFF05460EF06EF90646A5F13D01A4F19B
:1056400050003346AC4ACDE900010521AB4806F0D5
:10565000A1FEA14908600EF05DF906460021012077
:10566000C0EB64003346A64ACDE900010221A548FB
:1056700006F090FEA4490860084600680EF066FC3B
:10568000954800680EF01BFD0EF044F906460EF03A
:10569000CBF807F0FBFB0EF03DF906460EF0CFF815
:1056A00001F020FE00208F49086014E0FFF706FD9E
:1056B000FFF780FF8F4909688A4A126851F8220073
:1056C0008047002089490860904908608548006843
:1056D000401C84490860874800688249096850F87E
:1056E00021000028E2D17F4908607B4800680EF065
:1056F00039F8854800680EF035F806F0E7FC7CBD07
:1057000008B1012100E00021814A11707047002199
:105710000170704710B57F48006810B17E4800687E
:1057200010BD07F0B3FC7D490968401AF8E72DE980
:10573000F04104464FF40471674800680EF000F928
:105740008046642C01DDFFF78AFD002140460CF005
:10575000D7FA2246002140460CF0A9FA07F096FC41
:10576000064600BFFFF7D6FF871B642C03DD3946D2
:1057700040460CF0C5FA052006F03EFFFFF7A0FDFD
:105780000546A74201D2002DECD0642C01DDFFF7C5
:105790005AFD07F07BFBBDE8F08110B504462046BA
:1057A0005F490968884710BD014652480089084092
:1057B00008B1012070470020FCE710B5464800689A
:1057C0000EF0C4FB0EF0A6F804460EF0F1FF10BD7B
:1057D00010B54D4800680EF0B9FB0EF09BF804467A
:1057E0000EF0E6FF10BD10B540480068401C3F4970
:1057F0000860FFF763FCFFF7DDFE10BD10B536480B
:1058000000680EF0C1FF07F041FB10BD70B5044603
:105810003D4800680EF0A8FC50B14FF4B0713A4812
:1058200000680EF08DF80546214628460DF070F808
:1058300070BD10B5344800680EF0A6FF10BD10B55D
:1058400004462046FFF773FFFFF7CDFF10BD2DE99B
:10585000F84F07460C460AF04BFE82460AF054FE0B
:1058600083464FEA6A0000904FEA6B09FFF7B0FFEA
:10587000FFF7C4FF07F00AFB0120FFF78EFF6FF070
:105880007F4008F039FC022008F090FC254808F021
:1058900047FC3C223846009906F09AFF224808F05F
:1058A0003FFC07F0CBFB8046A9EB080000F10A02A1
:1058B0002046009906F08CFF002500E06D1C605D1D
:1058C0000028FBD105EB850006013046FFF7B7FF46
:1058D000BDE8F88FC0CEDC006400002044656D6F29
:1058E00020000000700000202E0000007400002046
:1058F0002F000000803800202D5300086056020859
:1059000061540008EC56020868000020880000205E
:105910008C000020800000207C0000207800002007
:105920006C0000200820040814CA06088CB02C491A
:105930002C4807F09BFF0DF0EDFF06462A490EF0BC
:10594000A3FD03F073FF002101A804F08FFB0020EA
:105950000690002101A804F031FC012101A804F007
:1059600085FB00200690012101A804F027FC1F48B8
:1059700004F0F8FB1E480CF07DF91E4803F036FFDA
:105980001D480CF0EFFC1D480CF0B6FE1C480AF058
:105990008DFA022008F00AFC1A4801F093F90AF087
:1059A000F7FC0546102D11DB0420FFF7FDFE68B162
:1059B00006F012F90446B4F5001F03DD124813493E
:1059C000086006E012481149086002E011480F49DA
:1059D00008600120FFF794FE01E0FFF71BFEFCE7E3
:1059E00088000020E9520008775200081755000887
:1059F000F11B0108B5950008B121010881250108B6
:105A0000D1FD0008803800201F5100086C000020E4
:105A1000EB500008CD5000082DE9FF4F95B08046AF
:105A200089461546229E4022E04901A803F028FB42
:105A300008FB06F809FB06F97543DD491898484349
:105A400011900027002430E01199781809F02CFFFC
:105A500013901199781809F067F912901298684319
:105A60004FEA104B13986843020C1492A246E117B8
:105A700004EB11710911A4EB011101AA52F82100E4
:105A800008F03AFB05F092FE304605F083FF149AC9
:105A900009EB020108EB0B002A4605F09FFE05F01A
:105AA0007DFE45F2E4700744641CC2488742CBD3B4
:105AB00019B0BDE8F08F2DE9FF4105460C46286876
:105AC00002906868039002A808F014FB00224121AC
:105AD00002A808F0D9F8BDF90800BDF90C10471864
