:020000040800F2
:10000000B0AA0020C1050008A1050008A30500084A
:10001000A7050008AB050008AF05000800000000B8
:10002000000000000000000000000000B305000810
:10003000B5050008000000000BE90308613E000858
:10004000DB050008DB050008DB050008DB05000810
:10005000DB050008DB050008DB050008B905000822
:10006000BB050008BD050008DB050008DB0500082E
:10007000DB050008DB050008DB050008DB050008E0
:10008000DB050008DB050008DB050008DB050008D0
:10009000DB050008DB050008DB050008B7050008E4
:1000A000DB050008DB050008DB050008DB050008B0
:1000B000DB050008DB050008DB050008DB050008A0
:1000C000DB050008DB050008DB050008DB05000890
:1000D000DB05000847400008DB050008DB050008D9
:1000E000DB050008DB050008DB050008DB05000870
:1000F000DB050008DB050008DB050008DB05000860
:10010000DB050008DB050008DB050008DB0500084F
:10011000DB050008DB050008DB050008DB0500083F
:10012000DB050008DB050008DB050008DB0500082F
:1001300000F002F800F06BF80AA090E8000C82448E
:100140008344AAF10107DA4501D100F060F8AFF26B
:10015000090EBAE80F0013F0010F18BFFB1A43F0A5
:100160000103184730900800509008000A444FF0EF
:10017000000C10F8013B13F0070408BF10F8014B06
:100180001D1108BF10F8015B641E05D010F8016B4B
:10019000641E01F8016BF9D113F0080F1EBF10F8AF
:1001A000014BAD1C0C1B09D16D1E58BF01F801CBD2
:1001B000FAD505E014F8016B01F8016B6D1EF9D555
:1001C0009142D6D37047000000230024002500266A
:1001D000103A28BF78C1FBD8520728BF30C148BFAA
:1001E0000B60704764293DF0898578293DF0C28510
:1001F000002070471FB53EF013FA040000200021D4
:1002000046F082FC401C60601FBD10B510BD3EF082
:1002100028FB1146FFF7EEFF00F0D6F83EF054FB46
:1002200003B4FFF7F2FF03BC03F0AEFE0EB511E01E
:10023000BC48006808B9012000E00020B949086006
:1002400002A80821C8230022CDE90010114610465B
:100250000CF07DFBECE70EB50BE040F0EFF802A8E8
:10026000082105230022CDE90010114610460CF0AC
:100270006EFBF2E701E00EF002F9FCE730B58BB05F
:100280000446002500BF05F02FFC0AA809F0EDFF89
:100290000AAA0121084606F072F80121402000F068
:1002A0001CFE3FF0D5F900BF00BF00BF05F054FDB4
:1002B000054600BF00BF9C480078401C9A49087062
:1002C00000BF00BF284605F04BFD00BF00BF00BFC8
:1002D0000AA8032100220592CDE9062108901046C4
:1002E0004FF40061CC22914BCDE90132CDE90310EE
:1002F00006200023AFF283028DA1009090480AF0FF
:100300008BFB0AA8032100220592CDE90621089063
:10031000104680210C228B4BCDE90132CDE9031030
:1003200004200023AFF2D10287A1009089480AF08F
:1003300073FB0AA8032100220592CDE9062108904B
:10034000104680210C22844BCDE90132CDE9031007
:1003500005200023AFF22B1280A1009082480AF002
:100360005BFB0AA981480BF0CCFE00BF00BF00BFB9
:1003700005F0F2FC054600BF00BF6B480078401E48
:100380006949087008460078A0B9794800880028B3
:1003900009DD00BF00BF284605F0E2FC00BF00BF3A
:1003A00006F0D5FB0DE000BF00BF284605F0D8FCE5
:1003B00000BF06E000BF00BF284605F0D1FC00BF2B
:1003C00000BF00BF0BB030BD8AB00024482003F04E
:1003D00053FD4FF4A06000F003FA4FF4165003F001
:1003E000E6FD02F031F803F05FFA02F0E7FA03F0FD
:1003F000C6F902F023F9002003F05FFE012003F0AC
:100400005CFE01F049FD11F059FB5A4901220868D0
:1004100059A10FF0D8FC57490122486857A10FF0A5
:10042000D2FC18E056A010210B46C822CDE90010DE
:100430005A211E2002F01BFFC82003F077FD4FF663
:10044000FF705623E6225A2100901E2002F0F6FB90
:10045000C82003F06BFD03F0A5FB0028E2D109A83A
:1004600005F05EFD00BF00BF00BF05F075FC04464F
:1004700000BF00BF2C480078401C2B49087000BF0B
:1004800000BF204605F06CFC00BF00BF00BF09A8FC
:10049000032100220592CDE90621089010464FF471
:1004A000806166223A4BCDE90132CDE90310032089
:1004B0000023AFF2372237A100902C480AF0ACFAA3
:1004C00000BF00BF00BF05F047FC044600BF00BFEF
:1004D00015480078401E1449087008460078A0B9F5
:1004E00023480088002809DD00BF00BF204605F032
:1004F00037FC00BF00BF06F02AFB0DE000BF00BFC5
:10050000204605F02DFC00BF06E000BF00BF2046DE
:1005100005F026FC00BF00BF00BF09A805F0CFFF13
:1005200000BFFEE780012242DC0000209C1A002070
:10053000456D77696E64656D6F207461736B000043
:10054000D819002014150020546F75636820746159
:10055000736B000050140020D81700204C656431E4
:10056000207461736B000000141700208C030020BE
:10057000A00000203C980020303A0000313A0000F2
:1005800053442043617264204661696C65642100B4
:10059000500400207374617274207461736B0000E6
:1005A000704700BFFEE700BFFEE700BFFEE700BFE9
:1005B000FEE770477047704770477047704700000C
:1005C0000948804709480047FEE7FEE7FEE7FEE7E7
:1005D000FEE7FEE7FEE7FEE7FEE7FEE70448054923
:1005E000054A064B70470000DF060008310100088D
:1005F000B0A00020B0AA0020B0A20020B0A200202D
:100600000CB50020019000906C48006840F48030E8
:100610006A49086000BF6948006800F40030009033
:100620000198401C0190009818B90198B0F5A06F8E
:10063000F1D16248006800F4003010B10120009050
:1006400001E0002000900098012843D15C48006838
:1006500040F010005A4908600846006820F0030086
:1006600008600846006840F002000860534840688F
:10067000524948600846406848600846406840F46F
:10068000806048600846406820F47C104860084656
:10069000406840F4E81048600846006840F0807008
:1006A000086000BF4548006800F000700028F9D0DD
:1006B0004248406820F003004049486008464068CE
:1006C00040F00200486000BF3C48406800F00C0069
:1006D0000828F9D10CBD10B5FFF792FF10BD10B579
:1006E0003648006840F00100344908600846406818
:1006F000344908403149486008460068324908409A
:100700002E4908600846006820F4802008600846EA
:10071000406820F4FE0048604FF41F008860FFF737
:10072000DAFF4FF000602949086010BD10B50021C4
:1007300000200022214B5B6803F00C0121B1042949
:1007400006D0082928D107E0214B224C236027E05E
:100750001F4B204C236023E0184B5B6803F47010A0
:10076000164B5B6803F48032022303EB904022B9FE
:10077000194B4343174C23600DE0104B5B6803F4A7
:10078000003323B1144B4343124C236003E0104B5E
:100790004343104C236003E00D4B0E4C236000BF1D
:1007A00000BF064B5B68C3F303130C4CE15C094BC1
:1007B0001B68CB40074C236010BD000000100240B6
:1007C000002002400000FFF8FFFFF6FE08ED00E009
:1007D00000127A000000002000093D000400002003
:1007E00031490143314A1160704770B5002100233F
:1007F0000F22C47804B32D4C246804F4E064C4F5DB
:10080000E064210AC1F10403CA40447804FA03F108
:100810008478144021430901254C0678A1550478B9
:1008200004F01F050124AC4005786D11AD0005F101
:10083000E025C5F8004109E0047804F01F05012413
:10084000AC401C4D0678761145F8264070BD1A4A1A
:100850000A400243154B1B1F1A60704739B1134AF7
:10086000121D12680243114B1B1D1A6006E00F4A4D
:10087000121D126882430D4B1B1D1A60704704281D
:1008800008D14FF0E021096941F004014FF0E02266
:10089000116107E04FF0E021096921F004014FF0F8
:1008A000E0221161704700000000FA050CED00E045
:1008B00000E400E080E100E080FFFF1F10B5044687
:1008C000CC48844208D10121042000F02DFB0021F6
:1008D000042000F029FB46E0C748844208D10121EA
:1008E000082000F021FB0021082000F01DFB3AE069
:1008F000C248844208D10121102000F015FB0021DC
:10090000102000F011FB2EE0BD48844208D10121E7
:10091000202000F009FB0021202000F005FB22E050
:10092000B848844208D10121402000F0FDFA00219E
:10093000402000F0F9FA16E0B348844208D10121C2
:10094000802000F0F1FA0021802000F0EDFA0AE0AA
:10095000AE48844207D10121801500F0E5FA00215C
:10096000A01500F0E1FA10BD10B50121084600F015
:10097000DBFA0021012000F0D7FA10BD2DE9F0418B
:10098000024600250026002000230024002791F8BD
:1009900003C00CF00F0591F803C00CF0100CBCF173
:1009A000000F03D091F802C04CEA050591F800C091
:1009B000BCF1000F31D0146800202BE04FF0010C87
:1009C0000CFA00F3B1F800C00CEA03069E4220D1F5
:1009D00083004FF00F0C0CFA03F7BC4305FA03FC3D
:1009E0004CEA040491F803C0BCF1280F06D14FF083
:1009F000010C0CFA00FCC2F814C00AE091F803C024
:100A0000BCF1480F05D14FF0010C0CFA00FCC2F804
:100A100010C0401C0828D1D31460B1F800C0BCF14C
:100A2000FF0F34DD546800202EE000F1080C4FF079
:100A3000010808FA0CF3B1F800C00CEA03069E4264
:100A400021D183004FF00F0C0CFA03F7BC4305FAD9
:100A500003FC4CEA040491F803C0BCF1280F05D153
:100A600000F1080C08FA0CF8C2F8148091F803C0E1
:100A7000BCF1480F07D100F1080C4FF0010808FA4B
:100A80000CF8C2F81080401C0828CED35460BDE892
:100A9000F0814FF6FF710180022181700421C17045
:100AA00070470246002093680B400BB1012000E024
:100AB000002070470146886880B2704702460020D7
:100AC000D3680B400BB1012000E0002070470146C5
:100AD000C86880B2704701617047416170470AB1D0
:100AE000016100E041617047C16070474FF480329E
:100AF0000A4382618161826182698269704702462C
:100B00000020434B18684FF68073184040EA0210EB
:100B100008433F4B186070473E49C8617047F0B5C5
:100B20000A46002300240021002500F00046B6F10B
:100B3000004F02D1364EF16901E0354E7168C0F3C5
:100B4000034583B200F44016B6F5401F08D121F0EA
:100B500070612F4E766826F070662D4F7E6012E031
:100B600000F48016B6F5801F06D1032606FA05F4B8
:100B7000A14341F0706106E0460D360103FA06F626
:100B8000B14341F0706122B1460D360103FA06F619
:100B9000314300F00046B6F1004F02D11C4EF16126
:100BA00001E01B4E7160F0BD30B500228B071C0FB9
:100BB0000F2303FA04F2164B08338C1053F8243039
:100BC0009343134C08348D1044F8253023468C1081
:100BD00053F824308C07240F00FA04F423430C4C00
:100BE00008348D1044F8253030BD0A49DC310860E6
:100BF0007047000000080140000C01400010014057
:100C00000014014000180140001C01400020014078
:100C10000000014000002042DF48006840F0010071
:100C2000DD49086008464068DC490840DA49486008
:100C300008460068DA490840D74908600846006855
:100C400020F4802008600846406820F4FE004860D8
:100C50004FF41F0088607047CF49096821F4803144
:100C6000CD4A11601146096821F480211160B0F568
:100C7000803F03D0B0F5802F0ED106E0C649096849
:100C800041F48031C44A116007E0C349096841F466
:100C9000A021C14A116000E000BF00BF704710B53D
:100CA00001460022002300204A11012A02D1BA4C39
:100CB000236806E0022A02D1B74C236A01E0B64C51
:100CC000636A01F01F02012494401C400CB1012012
:100CD00000E0002010BD38B5002000900024002561
:100CE00000BF3120FFF7DBFF05460098401C009055
:100CF0000098B0F5A06F01D0002DF2D03120FFF7A1
:100D0000CEFF08B1012400E00024204638BD014692
:100D10000020A14A106820F0F80040EAC1001060ED
:100D20007047A04908607047024600209A4B5868F7
:100D300020F47C1042EA01031843974B5860704737
:100D400098490866704701460020934A506820F091
:100D500003000843506070478F48406800F00C0063
:100D60007047014600208C4A506820F0F00008438C
:100D70005060704701460020874A506820F4E060C8
:100D800008435060704701460020834A506820F4B1
:100D9000605040EAC1005060704729B17E4A527AE3
:100DA00002437D4B5A7204E07B4A527A82437A4B6B
:100DB0005A7270477B49D83108607047014600205D
:100DC000754A506820F44040084350607047002145
:100DD000714A20321170704A82F82010012802D026
:100DE00004280AD104E001216B4A2032117005E089
:100DF0000521694A2032117000E000BF00BF704732
:100E00006949086070476449096A0143624A11628E
:100E10007047654944390860704730B500210022A9
:100E2000002400235C4D6D6805F00C0121B10429FC
:100E300005D0082923D105E05C4D056022E05B4D1B
:100E400005601FE0544D6D6805F47012524D6D68D9
:100E500005F48034022505EB92421CB9544D5543EC
:100E600005600BE04C4D6D6805F400351DB1504D2B
:100E70005543056002E04D4D5543056002E04B4D82
:100E8000056000BF00BF444D6D6805F0F001090921
:100E9000484D6B5C0568DD4045603F4D6D6805F46D
:100EA000E061090A434D6B5C4568DD4085603A4D61
:100EB0006D6805F46051C90A3E4D6B5C4568DD40C4
:100EC000C560354D6D6805F44041890B3A4D6B5C4A
:100ED000C568B5FBF3F5056130BD29B12E4A5269ED
:100EE00002432D4B5A6104E02B4A526982432A4B3C
:100EF0005A61704729B1284A92690243264B9A6188
:100F000004E0254A92698243234B9A61704729B1D4
:100F1000214AD2690243204BDA6104E01E4AD269B9
:100F200082431D4BDA61704729B11B4AD2680243E4
:100F3000194BDA6004E0184AD2688243164BDA6033
:100F4000704729B1144A12690243134B1A6104E035
:100F5000114A12698243104B1A6170471249403995
:100F6000086070470F49C86470470B49C8717047E3
:100F70000948406A40F0807007494862704701465E
:100F80000020054A92680A400AB1012000E00020D2
:100F90007047014988727047001002400000FFF856
:100FA000FFFFF6FE000042428004424200127A0037
:100FB00000093D00140000202400002010B5044664
:100FC000FB48844209D101218803FFF7ADFF0021CE
:100FD0004FF48040FFF7A8FF32E0F648844209D181
:100FE00001214804FFF7ADFF00214FF40030FFF767
:100FF000A8FF25E0F048844209D101218804FFF7C9
:10100000A0FF00214FF48020FFF79BFF18E0EB4882
:10101000844209D10121C804FFF793FF00214FF456
:101020000020FFF78EFF0BE0E548844208D1012144
:101030000805FFF786FF00214FF48010FFF781FFBE
:1010400010BD2DE9F04786B005460E460024A246A5
:1010500000BFA1460027B08900B100BF2F462C8AEF
:101060004CF6FF700440F08804432C82AC894EF6A5
:10107000F3100440B0883189084371890843044360
:10108000AC81AC8A4FF6FF400440B0890443AC8287
:1010900001A8FFF7C2FEC648874202D1DDF810A0C2
:1010A00001E0DDF80CA0A88900F4004040B10AEB93
:1010B000CA0000EB0A1031684900B0FBF1F807E004
:1010C0000AEBCA0000EB0A1031688900B0FBF1F8A6
:1010D0006420B8FBF0F004012009642101FB1089B1
:1010E000A88900F4004040B1322000EBC900B0FBF9
:1010F000F1F000F00700044308E0322000EB091093
:101100006421B0FBF1F000F00F0004432C8106B025
:10111000BDE8F0874FF41651016000218180C18045
:1011200001810C21418100218181704710B5024667
:101130000020108A4FF2FF0318400B884C8823438D
:101140008C882343CC8823431843108210BD002190
:10115000018041808180C180704721B1828942F441
:101160000052828104E082894DF6FF731A40828129
:101170007047F0B50346002400260025002040F605
:101180006A17B94200D100BF1846C1F3421401F0FA
:101190001F06012707FA06F5012C01D10C3004E0E7
:1011A000022C01D1103000E014301AB107682F432F
:1011B000076002E00768AF430760F0BD1AB1838A99
:1011C0000B43838202E0838A8B4383827047028AC7
:1011D0004FF6F0731A400282028A0A430282704775
:1011E00082894FF2FF731A40828182890A43828189
:1011F000704721B1828942F00202828104E0828933
:101200004FF6FD731A4082817047028A4FF6DF73F2
:101210001A400282028A0A430282704721B1028A7E
:1012200042F48042028204E0028A4BF6FF731A40C5
:1012300002827047C1F308028280704701468888A5
:10124000C0F308007047818941F001018181704736
:10125000028BD2B20283028B42EA012202837047E0
:10126000028B02F47F420283028B0A43028370479F
:1012700021B1828A42F02002828204E0828A4FF603
:10128000DF731A408282704721B1828A42F01002D5
:10129000828204E0828A4FF6EF731A40828270479E
:1012A00021B1828A42F00802828204E0828A4FF6EB
:1012B000F7731A408282704721B1828942F400425A
:1012C000828103E08289C2F30E028281704721B1DC
:1012D000828A42F40062828204E0828A4FF2FF73C3
:1012E0001A4082827047828A4FF6FB731A408282CC
:1012F000828A0A438282704721B1828A42F00202C6
:10130000828204E0828A4FF6FD731A40828270471F
:1013100002460020B1F5007F00D100BF13880B40CA
:101320000BB1012000E00020704701F40072B2F51B
:10133000007F00D100BFCA430280704770B50246EB
:10134000002400230025002040F66A16B14200D197
:1013500000BFC1F3421501F01F03012606FA03F393
:10136000012D02D19689334006E0022D02D1168A62
:10137000334001E0968A33400C12012606FA04F449
:101380001688344013B10CB1012000E0002070BD7C
:1013900010B50022002340F66A14A14200D100BF1C
:1013A0000A1201249440A3B2DC43048010BD000063
:1013B000003801400044004000480040004C00401C
:1013C0000050004030B943F2DB028100A1F1C0417E
:1013D0000A6005E043F2D2028100A1F1C0410A6037
:1013E0006FF07042411C8900A1F1C0410A60810088
:1013F000A1F1C041C1F80421704710280AD1182179
:101400004FF020421166402151664FF0FC31916649
:10141000D16610E01821F74A116040214FF02042B8
:10142000C2F884104FF0FC31F24A083211604FF0DC
:101430002042C2F88C1070471820EE492031086015
:1014400000200906C1F8A4004FF0FC30E94928311A
:101450000860091D0860091D08607047D0E9011285
:101460001143C26811430269114342691143826901
:101470001143C2691143026A1143426A1143826AED
:101480001143C26A1143026B114302689200A2F138
:10149000C0421160816808290BD101688900A1F15F
:1014A000C041096841F0400201688900A1F1C041D2
:1014B0000A60416B0968426B526841EA0211426B53
:1014C000926841EA0221426B928941EA0241426BF1
:1014D000128A41EA0251426B127D41EA0261426B7B
:1014E000926911430268521C9200A2F1C04211603D
:1014F000C16AB1F5804F1BD1816B0968826B52685C
:1015000041EA0211826B926841EA0221826B128ADF
:1015100041EA0251826B127D41EA0261826B92695B
:10152000114302689200A2F1C042C2F8041107E020
:101530006FF0704201688900A1F1C041C1F8042137
:10154000704730B5002100220023446844F00804AD
:1015500085682C43C5682C4305692C43456944EADA
:101560004524856944EA4531C4692468C5696D68C4
:1015700044EA0524C5692D8944EA0544C5692D7BE3
:1015800044EA0562046A2468056A6D6844EA052431
:10159000056A2D8944EA0544056A2D7B44EA056302
:1015A0000468102C05D14FF020442166A266E36642
:1015B00008E0904C21604FF02044C4F888208D4C06
:1015C0000C34236030BD016841F01001426841EAEB
:1015D0004221826841EA4231864A20321160C16864
:1015E0000968C268526841EA0221C268128941EA68
:1015F0000241C268127B41EA02617E4A28321160D0
:10160000016909680269526841EA02210269128986
:1016100041EA02410269127B41EA0261754A2C32B9
:101620001160416909684269526841EA02214269D0
:10163000128941EA02414269127B41EA02614FF09C
:101640002042C2F8B01070470021016002214160C1
:1016500000218160C160016141618161C1610162FC
:101660004FF480514162490081620021C1620163EF
:101670000F21426B1160426B5160FF21426B916000
:101680000F21426BD160426B1161426B51610021AD
:10169000426B91610F21826B1160826B5160FF215F
:1016A000826B91600F21826BD160826B1161826BC2
:1016B00051610021826B916170471021016000210E
:1016C00041608160C160016141618161FC21C26949
:1016D0001160C2695160C2699160C269D160026AD9
:1016E0001160026A5160026A9160026AD1607047BB
:1016F0000021016041608160FC21C2681160C26804
:101700005160C2689160C268D1600269116002696B
:101710005160026991600269D16042691160426959
:101720005160426991604269D160704751B1820055
:10173000A2F1C042126842F001038200A2F1C0424D
:10174000136009E08200A2F1C04212682A4B1A40DD
:101750008300A3F1C0431A60704799B1102808D1E3
:101760004FF02042126E42F004024FF020431A66FE
:101770001DE0204A126842F004024FF02043C3F8F3
:10178000802014E0102809D14FF02042126E1A4B2D
:10179000DB1E1A404FF020431A6608E0154A126813
:1017A000154BDB1E1A404FF02043C3F880207047D2
:1017B00048B110492031096841F004014FF020423E
:1017C000C2F8A01009E00B49203109680A4AD21E6C
:1017D00011404FF02042C2F8A0107047B9B1102854
:1017E0000CD14FF02042126E42F040024FF02043E5
:1017F0001A661FE0800000A0FEFF0F00724A126808
:1018000042F040024FF02043C3F8802012E010283D
:1018100008D14FF02042126E6C4B1A404FF020431B
:101820001A6607E0684A1268684B1A404FF0204376
:10183000C3F88020704701460020102903D14FF0E3
:101840002042506F02E0604A14321068704710B5B1
:10185000F2B1102807D14FF020435B6E0B434FF0DD
:101860002044636632E0B0F5807F08D1564B1B1DE3
:101870001B680B434FF02044C4F8843026E0524BE1
:1018800024331B680B434FF02044C4F8A4301DE000
:10189000102807D14FF020435B6E8B434FF020445C
:1018A000636613E0B0F5807F08D1474B1B1D1B68B2
:1018B0008B434FF02044C4F8843007E0424B24337C
:1018C0001B688B434FF02044C4F8A43010BD10B502
:1018D000024600200023102A03D14FF02044636EFB
:1018E00009E0B2F5807F03D1374C241D236802E064
:1018F000354C2434236803EA01040CB1012000E0D4
:10190000002010BD102807D14FF02042526E8A43AC
:101910004FF020435A6613E0B0F5807F08D12A4A81
:10192000121D12688A434FF02043C3F8842007E059
:10193000254A243212688A434FF02043C3F8A4207A
:10194000704770B502460020002300240025102AAD
:1019500003D14FF02046736E09E0B2F5807F03D1CA
:10196000194E361D336802E0174E2436336803EAF9
:10197000010403EAD10514B10DB1012000E00020FB
:1019800070BD102808D14FF02042526E22EAD102D9
:101990004FF020435A6615E0B0F5807F09D10A4A1E
:1019A000121D126822EAD1024FF02043C3F88420AE
:1019B00008E0054A2432126822EAD1024FF020439F
:1019C000C3F8A42070470000800000A0BFFF0F00F4
:1019D00010B50446BE48844208D101218014FFF7A7
:1019E000A3FA0021A014FFF79FFA16E0B948844239
:1019F00008D101210014FFF7A4FA00212014FFF7F9
:101A0000A0FA0AE0B448844207D10121C013FFF7CD
:101A100098FA0021E013FFF794FA10BD10B50022E8
:101A2000028802F441520B884C8823438C8823435C
:101A3000CC8823430C8923434C8923438C8923433B
:101A4000CC8923431A430280838B4FF2FF742340D7
:101A500083830B8A038210BD2DE9F04F85B00546C4
:101A60000C464FF0000902274FF000084FF0010B21
:101A70000026B246A88B4FF240010840A8830220FE
:101A80002884B5F81C90A068022801D100BF38E076
:101A9000A08810B94FF0010B01E04FF0020B8D4808
:101AA000854200D100E000BF6846FFF7B6F9DDF8D7
:101AB00000A0E088B0F5007F0AD14FEA1A2000EBC1
:101AC00080004000A168B0FBF1F0401D86B20BE041
:101AD0004FEA4B10BAFBF0F000EB80004000A16829
:101AE000B0FBF1F0401D86B20A20B6FBF0F606F01E
:101AF0000108A6EB0800C0F34F074FF6FF7000EA9D
:101B00000828022F01DBFF2F02DD02274FF000081B
:101B1000E08840EA080038432884A088A189084367
:101B2000618808432188084340F4006040EA0909BD
:101B3000A5F81C9005B0BDE8F08F00210180418020
:101B40008180C180018141818181C1810721018220
:101B500070470021018041808180C1800221816025
:101B600000218181704721B1028842F04002028049
:101B700004E002884FF6BF731A400280704721B11B
:101B8000828B42F48062828304E0828B4FF6FF33C3
:101B90001A408283704730B5002400230C110125C0
:101BA000A540ABB21AB185881D43858002E08588C7
:101BB0009D43858030BD1AB183880B43838002E04A
:101BC00083888B4383807047818170470146888971
:101BD00070474FF6FF62914204D0028842F480724F
:101BE000028004E002884FF6FF631A4002807047CB
:101BF00021B1828842F00402828004E082884FF69C
:101C0000FB731A408280704702884FF2FF731A40BC
:101C1000028002880A4302807047018841F48051A3
:101C20000180704721B1028842F40052028004E032
:101C300002884DF6FF731A4002807047024600206A
:101C4000012901D0108B00E0908A70470146088A74
:101C50007047B1F5804F04D1028842F4804202807F
:101C600004E002884BF6FF731A4002807047024678
:101C7000002013890B400BB1012000E000207047C9
:101C8000CA4302817047F0B50246002000240023B9
:101C9000002501F00F070126BE40B4B20B1101264A
:101CA0009E40B3B2968806EA03051689264016B10F
:101CB0000DB1012000E00020F0BD10B5002201F0C0
:101CC0000F040123A3409AB2D343038110BD000047
:101CD0000030014000380040003C004010B500F0EA
:101CE0009BFA10BD70B50446002600F0D0FA2546D8
:101CF000E11704EB11610912A02202EB4101C8B205
:101D000000F047FB00F0F3FAE11704EB1161091250
:101D1000A4EB0121C8B200F03CFB00F0E8FA00F0AF
:101D2000B6FAA12000F035FB00F0E1FA002000F047
:101D30005DFB064600F0C4FA304670BD70B504463F
:101D40000E4600F0A4FA2546E11704EB11610912D2
:101D5000A02202EB4101C8B200F01BFB00F0C7FA61
:101D6000E11704EB11610912A4EB0121C8B200F0E4
:101D700010FB00F0BCFA304600F00BFB00F0B7FAA5
:101D800000F09EFA0A2002F0D1F870BD2DE9F04172
:101D900005460E461746002409E0E20026FA02F244
:101DA000D1B22A1990B2FFF7C9FF601CC4B2BC427D
:101DB000F3DBBDE8F0812DE9F04107460C46002633
:101DC000002509E036023919491B491E88B2FFF780
:101DD00089FF0644681CC5B2A542F3DB3046BDE866
:101DE000F08110B5FF20FFF77DFF0446362C01D1AE
:101DF000002010BD3621FF20FFF7A0FFFF20FFF7D6
:101E000071FF0446362C01D10020F2E70120F0E7F3
:101E100070B506460C46154608E03046721C96B270
:101E2000FFF760FF04F8010B681E85B2002DF4D1A6
:101E300070BD70B505460C46164606E0217828466A
:101E4000FFF77CFF681C85B2641C3000A6F101011D
:101E50008EB2F3D170BD000010B500240020E5491A
:101E60000860902000F075FB002000F072FB00205D
:101E700000F06FFB002000F06CFBFF2000F069FB1E
:101E800044EA0024FF2000F064FB04430120DA4907
:101E9000C1F8B401204610BD08B501214FF4C4704B
:101EA000FFF728F84FF40050ADF8000010208DF82F
:101EB000030003208DF802006946D048FEF75EFD5E
:101EC0004FF40051CD48FEF706FE4FF48040ADF8C8
:101ED00000006946C948FEF751FD4FF48041C748EC
:101EE000FEF7F9FD4FF48050ADF8000010208DF89A
:101EF00003006946C248FEF741FD4FF48051C048D7
:101F0000FEF7E9FD4FF40070ADF800006946BD48EA
:101F1000FEF734FD4FF40071BA48FEF7DCFD0120F6
:101F2000B449086000F02EFBFFF796FFB649088021
:101F300008BD10B500240020AE490860052000F05F
:101F400008FBFF2000F005FB04460120AA49C1F868
:101F5000B401204610BD10B504460020A549086014
:101F6000012000F0F6FA204600F0F3FA0120A24921
:101F7000C1F8B40110BD10B500209E4908600620CC
:101F800000F0E7FA01209C49C1F8B40110BD10B57A
:101F9000002098490860042000F0DBFA01209649EF
:101FA000C1F8B40110BD2DE9F04106460C461746B4
:101FB000002090490860032000F0CBFAC4F30740EA
:101FC00000F0C7FAC4F3072000F0C3FAE0B200F053
:101FD000C0FA002505E0FF2000F0BBFA7055681C30
:101FE00085B2BD42F7DB012082490860BDE8F0817F
:101FF00010B500BFFFF79DFF00F001000028F9D1E8
:1020000010BD2DE9F04106460C461746FFF7B3FF19
:10201000002078490860022000F09BFAC4F30740D2
:1020200000F097FAC4F3072000F093FAE0B200F052
:1020300090FA002504E0705D00F08BFA681C85B210
:10204000BD42F8DB01206B490860FFF7D1FFBDE816
:10205000F0812DE9F04107460E461446F0B2C0F576
:102060008075AC4200DC254612E02A4631463846EF
:10207000FFF7C7FFAC4200D10BE02F442E44601B9A
:1020800084B2B4F5807F02DD4FF4807500E0254610
:10209000EBE700BFBDE8F08110B5044621465BA028
:1020A0003BF0FAFD2403FFF766FFFFF7A1FF0020D6
:1020B00050490860202000F04CFAC4F3074000F0BB
:1020C00048FAC4F3072000F044FAE0B200F041FA05
:1020D00001204949C1F8B401FFF78AFF10BD2DE97D
:1020E000F05F81460F461646DFF828B14FEA1738F1
:1020F000C7F30B0ACAF58054A64200DC344644E01C
:102100004FEA08314FF480525846FFF74CFF002544
:1021100008E00AEB05001BF80000FF2800D003E0F0
:10212000681C85B2A542F4DB00BFA54216DA404622
:10213000FFF7B2FF002507E019F8050005EB0A01DB
:102140000BF80100681C85B2A542F5DB4FEA0831A7
:102150004FF480525846FFF77CFF04E02246394690
:102160004846FFF776FFA64200D10FE008F10108CC
:102170004FF0000AA1442744301B86B2B6F5805FB9
:1021800002DD4FF4805400E03446B9E700BFBDE8FB
:10219000F09F10B5FFF7EFFEFFF72AFF002015496B
:1021A0000860C72000F0D5F901201349C1F8B40137
:1021B000FFF71EFF10BD10B500200E490860B920C2
:1021C00000F0C7F901200C49C1F8B401032001F067
:1021D00082FE10BD10B5002006490860AB2000F05B
:1021E000B8F901200449C1F8B401032001F073FEDD
:1021F00010BD0000B4012442000024420020014030
:10220000000C0140001C01402800002066653A25B2
:10221000780D0A009C3A002008B501210820FEF73D
:1022200069FE4020ADF8000003208DF80200102068
:102230008DF8030069468148FEF7A0FB8020ADF8C9
:10224000000069467D48FEF799FB01207C49086043
:102250007C49C1F89C0108BD08B58020ADF800009C
:1022600003208DF8020010208DF8030069467348A2
:10227000FEF784FB08BD08B58020ADF800004820BB
:102280008DF8030069466D48FEF778FB08BD10B570
:10229000FFF7E2FF01206A49091D08606949C1F89A
:1022A0009801052001F017FE00206549091D08600E
:1022B000062001F010FE00206249C1F8980110BD0F
:1022C00010B5FFF7C9FF00205D4908605D49C1F8FE
:1022D0009C0101205A490860062001F0FCFD012004
:1022E0005849C1F89C01062001F0F5FD10BD10B55C
:1022F0000024FFF7C0FF01205149091D086001F0CB
:10230000EAFD01204F49C1F8980101F0E4FD07E022
:10231000601CC4B2FA2C03DDFFF7D2FF012010BD10
:1023200047487C3800680028F2D14549086000BF62
:10233000F5E710B5002042490860FFF78DFF002047
:102340004049C1F89C01022001F0C5FD01203C4933
:102350000860052001F0BFFD00203A49C1F898014E
:1023600010BD10B5002036490860FFF775FF012049
:102370003449C1F89C01022001F0ADFD0120304933
:102380000860052001F0A7FD00202E49C1F8980142
:1023900010BD70B50446FFF75FFF002028490860B4
:1023A000002520E004F08000002804DD01202449FD
:1023B000091D086003E000202149091D086060062E
:1023C000040E022001F087FD01201D490860022053
:1023D00001F081FD00201B49C1F89801022001F0A5
:1023E0007AFD681CC5B2082DDCDB70BD70B50546F2
:1023F0000024FFF740FF002616E000201049086087
:10240000022001F068FD01200E49C1F89801600624
:10241000040E0B487C38006808B1601CC4B201206F
:1024200001F059FD701CC6B2082EE6DB15B9FFF7A6
:1024300098FF01E0FFF77DFF204670BD000C0140D2
:10244000988121420080214208B501211020FEF729
:1024500051FDFF20ADF8000010208DF8030003208F
:102460008DF8020069460448FEF788FAFF21024809
:10247000FEF731FB08BD00000010014010B5044616
:1024800000BF02216948FFF7F2FB0028F9D021467E
:102490006648FFF799FB00BF01216448FFF7E7FB9F
:1024A0000028F9D06148FFF791FBC0B210BD00B51C
:1024B00087B001210420FEF71DFD01210803FEF76E
:1024C00019FDE020ADF8180018208DF81B0003203E
:1024D0008DF81A0006A95648FEF750FA0020ADF80C
:1024E00004004FF48270ADF806000020ADF808003B
:1024F0000220ADF80A000120ADF80C004002ADF852
:102500000E003820ADF810000020ADF812000720B2
:10251000ADF8140001A94548FFF780FA01214348AE
:10252000FFF721FBFF20FFF7A9FF07B000BD10B5A3
:1025300004463E4800884FF6C77108403B49088072
:10254000084600882043088001213848FFF70BFB2C
:1025500010BD10B5044600BF02213648FFF787FBC7
:102560000028F9D021463348FFF72EFB00BF012198
:102570003048FFF77CFB0028F9D02E48FFF726FBF8
:10258000C0B210BD00B587B001210820FEF7B2FC33
:1025900001218803FEF7BBFC4FF46040ADF8180042
:1025A00018208DF81B0003208DF81A0006A9224878
:1025B000FEF7E4F90020ADF804004FF48270ADF8A6
:1025C00006000020ADF808000220ADF80A00012046
:1025D000ADF80C004002ADF80E003820ADF8100048
:1025E0000020ADF812000720ADF8140001A9114831
:1025F000FFF714FA01210F48FFF7B5FAFF20FFF7A4
:10260000A8FF07B000BD10B504460A4800884FF681
:10261000C7710840074908800846008820430880A1
:1026200001210448FFF79FFA10BD0000003001406F
:102630000008014000380040000C014000B597B090
:1026400001214FF4F070FEF755FC01210802FEF75E
:1026500044FC03208DF85A004FF48060ADF8580018
:1026600018208DF85B0016A93948FEF787F903207A
:10267000ADF8580016A93748FEF780F93020ADF8BC
:10268000580016A93448FEF779F94FF60370ADF8F3
:10269000580016A93048FEF771F94FF68070ADF872
:1026A000580016A92B48FEF769F94FF23F00ADF824
:1026B000580016A92948FEF761F93F20ADF85800E7
:1026C00016A92348FEF75AF9032000900020019034
:1026D000182002900020039004900590069004209A
:1026E000079000200890099010200A9000200B907D
:1026F0000D900C900E900F904FF480501090002091
:10270000119012901390CDF850D0CDF854D007A866
:10271000FEF7A4FE01210420FFF708F817B000BD62
:1027200010B506E010F8014B4FF0D0435C54491C43
:10273000521E002AF6D110BD06E04FF0D0435B5C7C
:1027400000F8013B491C521E002AF6D170470000D8
:10275000002001400018014000140140001C01400D
:1027600008B501214FF4B470FEF7C4FB0120ADF8A9
:10277000000010208DF8030003208DF80200694648
:10278000FE48FEF7FBF84CF23370ADF8000018205D
:102790008DF8030003208DF802006946F848FEF723
:1027A000EDF84FF68070ADF8000018208DF80300AA
:1027B00003208DF802006946F248FEF7DFF841F287
:1027C0000100ADF8000018208DF8030003208DF8FB
:1027D00002006946EC48FEF7D1F808BD00B59DB08F
:1027E00001210802FEF779FB0120079000200890E4
:1027F0000F20099000200A900B900C900D9015204E
:102800000090019005200290002003900490059014
:10281000069006200E9000200F901090102011902E
:102820000020129014901390159016904FF4805041
:102830001790002018904FF48040199000201A90B3
:1028400007A81B90CDF870D00EA8FEF707FE012157
:102850000620FEF76BFF1DB000BDCC490880704715
:10286000CA49891C0880704700B503460A461846C5
:10287000FFF7F3FF1046FFF7F3FF00BDC349891CC4
:1028800008807047C148801C0088704700B5024628
:102890007AB93620FFF7E1FF0020FFF7E1FF4FF4A0
:1028A000F070BB4948804FF4A07008800020887108
:1028B0000EE03620FFF7D1FF6020FFF7D1FF4FF485
:1028C000A070B34948804FF4F070088001208871EF
:1028D00000BD70B504460D462A20FFF7BEFF264610
:1028E000E11704EB1161C1F30F20FFF7B9FFE11706
:1028F00004EB11610912A4EB012188B2FFF7B0FFCC
:102900001646D11702EB1161C1F30F20FFF7A8FFA4
:102910001646D11702EB11610912A2EB012188B210
:10292000FFF79EFF2B20FFF798FF2E46E91705EBD8
:102930001161C1F30F20FFF793FFE91705EB116158
:102940000912A5EB012188B2FFF78AFF1E46D917AD
:1029500003EB1161C1F30F20FFF782FF1E46D91769
:1029600003EB11610912A3EB012188B2FFF778FF95
:102970002C20FFF772FF70BD70B506468448408872
:10298000401E83B282480088401E82B20021084661
:10299000FFF79FFF00240CE0002504E03046FFF71E
:1029A0006DFF681C85B27A484088A842F6DC601C3E
:1029B00084B277480088A042EEDC70BD10B5FFF706
:1029C000CFFEFFF70BFF322001F0B0FAD320FFF764
:1029D00044FF6E48801C00886D4988806B48801CCD
:1029E000008888806948801C008888800846808824
:1029F0004FF6FF7101EA002065498880084680880B
:102A00006249891C09880843614988800846818891
:102A100060A03BF041F9B020FFF71FFF0020FFF757
:102A20001FFF1120FFF719FF142001F07FFAB320D8
:102A3000FFF713FF0220FFF713FF0020FFF710FF3F
:102A40000020FFF70DFF0020FFF70AFFC020FFF76F
:102A500004FF1020FFF704FF3B20FFF701FF0020D9
:102A6000FFF7FEFE0220FFF7FBFE0020FFF7F8FE57
:102A70000120FFF7F5FE0020FFF7F2FE4320FFF7ED
:102A8000EFFEC120FFF7E9FE1020FFF7E9FE10205E
:102A9000FFF7E6FE0820FFF7E3FE0820FFF7E0FE61
:102AA000C420FFF7DAFE1120FFF7DAFE0720FFF758
:102AB000D7FE0320FFF7D4FE0320FFF7D1FEC62088
:102AC000FFF7CBFE0020FFF7CBFEC820FFF7C5FEC7
:102AD0000320FFF7C5FE0320FFF7C2FE1320FFF718
:102AE000BFFE5C20FFF7BCFE0320FFF7B9FE072006
:102AF000FFF7B6FE1420FFF7B3FE0820FFF7B0FE85
:102B00000020FFF7ADFE2120FFF7AAFE0820FFF707
:102B1000A7FE1420FFF7A4FE0720FFF7A1FE532015
:102B2000FFF79EFE0C20FFF79BFE1320FFF798FE99
:102B30000320FFF795FE0320FFF792FE2120FFF709
:102B40008FFE0020FFF78CFE3520FFF786FE002069
:102B5000FFF786FE3620FFF780FE0020FFF780FE9D
:102B60003A20FFF77AFE5520FFF77AFE4420FFF760
:102B700074FE0020FFF774FE012013E0000C0140FA
:102B8000001401400018014000200140FE07006CC5
:102B90002E000020204C43442049443A25780D0A59
:102BA00000000000FFF75CFEB620FFF756FE002095
:102BB000FFF756FE2220FFF753FE3B20FFF750FEA3
:102BC000D020FFF74AFE0720FFF74AFE0720FFF755
:102BD00047FE1D20FFF744FED120FFF73EFE0020F8
:102BE000FFF73EFE0320FFF73BFE0020FFF738FE15
:102BF000D220FFF732FE0320FFF732FE1420FFF74A
:102C00002FFE0420FFF72CFE2920FFF726FE1420BC
:102C100001F08CF9B420FFF720FE0020FFF720FE22
:102C2000142001F083F92C20FFF717FE0120FFF795
:102C30002DFE4FF6FF70FFF79FFE10BD2DE9F0430C
:102C400004460D4616461F46DDF81C80B44201DCE2
:102C5000BD4201DDBDE8F0833B46324629462046B1
:102C6000FFF737FE301B401C84B2781B401C85B236
:102C70000BE0A94602E04046FFF700FE5FEA0900CC
:102C8000A9F101011FFA81F9F5D12000A4F1010198
:102C90008CB2EED100BFDDE730B504460D462B46C1
:102CA000224629462046FFF714FEF9480088FFF720
:102CB000E5FD30BD70B504460D4616462B4622464E
:102CC00029462046FFF705FE3046FFF7D7FD70BDC9
:102CD0002DE9F04104460D4600260027B046ED4898
:102CE0000088A04203DDEB484088A84202DC0020B7
:102CF000BDE8F0812B46224629462046FFF7E9FD34
:102D00002E20FFF7AAFDFFF7BDFD0646FFF7BAFD2F
:102D10000646FFF7B7FD8046FFF7B4FD0746F01201
:102D2000C002B91240EA411040EAE820E0E72DE98C
:102D3000FF4F84B081468A46002003900290069897
:102D4000A0EB09050798A0EB0A06CDF80490CDF892
:102D500000A0002D01DD012705E00DB9002702E0EC
:102D60004FF0FF376D42002E02DD4FF0010806E004
:102D700016B94FF0000802E04FF0FF387642B54236
:102D800001DD2C4600E034464FF0000B21E0009AB4
:102D900091B2019A90B2FFF77FFF03982844039005
:102DA0000298304402900398A04205DD0398001B6E
:102DB00003900198384401900298A04205DD0298E2
:102DC000001B02900098404400900BF101001FFA94
:102DD00080FB601C8345DADD08B0BDE8F08F2DE98B
:102DE000FF4F84B081468A460020029083460698B1
:102DF000A0EB09050798A0EB0A06CDF80490CDF8E2
:102E000000A0002D01DD012705E00DB9002702E03B
:102E10004FF0FF376D42002E02DD4FF0010806E053
:102E200016B94FF0000802E04FF0FF387642B54285
:102E300001DD2C4600E03446002003901EE0009A9D
:102E400091B2019A90B2119AFFF734FF0298284488
:102E50000290B3440298A04205DD0298001B029044
:102E6000019838440190A34504DDABEB040B0098B6
:102E7000404400900398401C80B20390611C03986A
:102E80008842DCDD08B0BDE8F08FF0B504460D46A1
:102E9000174605F1010C1FFA8CF304F1010C1FFA1F
:102EA0008CF2A5F1010C1FFA8CF1A4F1010C1FFAB0
:102EB0008CF0FFF70EFD002604E03846FFF7DEFC3D
:102EC000701CC6B2092EF8DB211D8AB2211F88B200
:102ED0002B462946FFF7FDFC002604E03846FFF7A5
:102EE000CDFC701CC6B2092EF8DB281D83B2281F4A
:102EF00081B222462046FFF7ECFC002604E038466B
:102F0000FFF7BCFC701CC6B2092EF8DBF0BDF0B5B3
:102F100004460D4616461F462B4632462946204695
:102F2000FFF705FF3B46224629462046FFF7FFFEF6
:102F30003B46324639462046FFF7F9FE3B463246CD
:102F400029463046FFF7F3FEF0BD2DE9F043064673
:102F50000F469046002445460320A0EB48093CE07C
:102F60007A1B91B2321990B2FFF796FE3A1B91B2DA
:102F7000721990B2FFF790FE3A1991B2721990B29D
:102F8000FFF78AFE7A1991B2321990B2FFF784FEE8
:102F90007A1991B2321B90B2FFF77EFE3A1991B2C4
:102FA000721B90B2FFF778FE7A1B91B2321B90B27F
:102FB000FFF772FE3A1B91B2721B90B2FFF76CFEE4
:102FC000641CB9F1000F03DAA000801D814404E005
:102FD000601B80000A3081446D1EAC42C0DDBDE83C
:102FE000F0832DE9F84F80460E4617461C46B3463F
:102FF0002046E31704EB5373DB1021464FEAE47CD1
:1030000004EB5C7C4FEAEC0CA4EBCC0CBCF1000FA5
:1030100002D04FF0010C01E04FF0000C6344224657
:1030200004EBD27C4FEA6C0C03FB0CF3DBB2009395
:10303000A7F12000C7B2002560E00C2C07D107EBF8
:103040004700154901EB800010F8059013E0102CA3
:1030500005D1124800EB071010F805900BE0182C72
:1030600007D107EBC7000E4901EB800010F805906F
:1030700001E0BDE8F88F4FF0000A39E009F0800068
:1030800080B10348028831464046FFF713FE11E045
:103090002A0000202E000020CE700408427504088B
:1030A000327B04080A9828B9D8480288314640463D
:1030B000FFF700FE4FEA49604FEA1069701C86B2C4
:1030C000D3484088B04200DCD3E7A6EB0B00A04217
:1030D0000AD15E4608F101001FFA80F8CC4800884A
:1030E000404500DCC5E706E00AF1010000F0FF0AF8
:1030F000BAF1080FC2DB00BF681CC5B20098854258
:103100009BDB00BFB5E710B50246012000E050434D
:103110000B00A1F10104E1B2F9D110BD2DE9FF4F7F
:1031200081B0074691461E460E9D4FF0000A0024CE
:1031300039E0301B401EC1B20A20FFF7E4FFB9FBA3
:10314000F0F00A21B0FBF1F201FB1208BAF1000F16
:1031500016D1701EA04213DDB8F1000F0ED1002071
:10316000AB4605EBDB71491001FB0471009088B29E
:103170002B4620220299FFF734FF12E04FF0010A9C
:103180000020AB4605EBDB71491001FB0471009098
:1031900088B208F13001CAB22B460299FFF721FF2D
:1031A00000BF601CC4B2B442C3DB05B0BDE8F08F01
:1031B0002DE9FF4F82B0064692461F46DDE90F48D3
:1031C0000020019000254DE0781B401EC1B20A206E
:1031D000FFF799FFBAFBF0F00A21B0FBF1F201FB17
:1031E0001209019850BB781EA84227DDB9F1000FE3
:1031F00022D108F0800078B108F00100A34604EB6A
:10320000DB71491001FB0561009088B22346302232
:103210000399FFF7E6FE0EE008F00100A34604EB79
:10322000DB71491001FB0561009088B22346202222
:103230000399FFF7D6FE13E00120019008F001008A
:10324000A34604EBDB71491001FB0561009088B2D5
:1032500009F13001CAB223460399FFF7C2FE00BF4D
:10326000681CC5B2BD42AFDB06B0BDE8F08F2DE9EA
:10327000F84704460D4690469946DDE9096704F093
:10328000FF0A08EB04001FFA80F809EB05001FFA9B
:1032900080F916E0444502DB5446A81985B24D4535
:1032A00000DB14E0002000903A783346294620469F
:1032B000FFF797FE304606EBD07104EB61018CB24C
:1032C0007F1C38787E2802DC38782028E2DA00BFBC
:1032D000BDE8F8872DE9F84F04460F461546A3468A
:1032E000009760E0002657E006EB8600C0EB8610F2
:1032F000484911F81000297888424BD106EB860026
:10330000C0EB8610434901EB400040786978884261
:1033100040D14FF000083AE006EB8600C0EB861083
:103320003C4901EB4000801C10F808A04FF0000958
:1033300026E00AF08000802806D137480288394606
:103340002046FFF7B7FC05E03048028839462046A2
:10335000FFF7B0FC4FF6FF7000EA4A0A601C84B227
:10336000A4EB0B00202807D15C46781C87B200989C
:10337000381A1D2800D1009F09F1010000F0FF0953
:10338000B9F1080FD5DB08F1010000F0FF08B8F132
:10339000740FC1DB701CC6B2142EA5DBAD1C04F18A
:1033A000200084B2A346287800289BD1BDE8F88F7E
:1033B0002DE9F04F8046894615461E46DDF824A0CB
:1033C00000270024A34609EB0600401E83B208EB49
:1033D0000500401E82B249464046FFF77AFA05FBD7
:1033E00006F04FEA400B00BF601C1AF800704FF661
:1033F000FF7000EA07271AF8040007433846FFF772
:103400003DFAA41C5C45EFDBBDE8F08F2C000020EA
:103410002E0000208E8804082A0000202DE9FE439B
:1034200080461820FFF783F8002425E00020FE499D
:1034300008604046FFF722F8FF20FFF71FF82DF83D
:1034400014003DF814004FF6FF7101EA00202DF83A
:103450001400FF20FFF712F83DF8141008432DF870
:1034600014003DF81400C0102DF814000120EF499D
:10347000C1F89801601CC4B2052CD7DB002416E00B
:10348000601CC5B20FE03DF814003DF815108842ED
:1034900007DA3DF814603DF815002DF814002DF8FA
:1034A0001560681CC5B2052DEDDB601CC4B2042C90
:1034B000E6DB04250027012404E03DF8140007445E
:1034C000601CC4B2AC42F8DB0320B7FBF0F086B25C
:1034D0003046BDE8FE832DE9F04704460D46D02076
:1034E000FFF79CFF06469020FFF798FF0746D02085
:1034F000FFF794FF80469020FFF790FF81464645F6
:1035000003DDA6EB0800208002E0A8EB0600208087
:103510004F4503DDA7EB0900288002E0A9EB070077
:1035200028802088142802DC2888142802DDFF2047
:10353000BDE8F08706EB080000EBD071C1F34F0146
:10354000218007EB090000EBD071C1F34F01298006
:103550002088B0F57A6F09DC2088642806DB28888B
:10356000B0F57A6F02DC2888642801DAFF20DFE7F3
:103570000020DDE72DE9F0478046894614461D46C8
:10358000AB480088FFF7F8F94FF4784249464046C7
:10359000FFF77BFC00261DE029462046FFF79BFF36
:1035A00060B9701CC6B20A2E08DDA14802884946DF
:1035B0004046FFF76AFC0020BDE8F0877F1C17F14A
:1035C000020F07D99A48028849464046FFF75DFC3A
:1035D000FF20F1E7E0E72DE9F04387B001AB03AA54
:1035E0000A210846FFF7C6FF10B107B0BDE8F08317
:1035F0004FF4FA7000F09AFC8E4840880A3881B285
:103600000DF106030DF10E020A20FFF7B3FF00B122
:10361000EBE74FF4FA7000F089FC864909880A3913
:1036200088B202AB04AA0A21FFF7A4FF00B1DCE7CD
:103630004FF4FA7000F07AFC7E4A52880A3A91B24E
:103640007C4A12880A3A90B20DF10A030DF1120277
:10365000FFF790FF00B1C8E74FF4FA7000F066FC86
:10366000BDF80C10BDF80E20881800EBD071C1F326
:103670004F01ADF81810BDF80410BDF808208818E7
:1036800000EBD071C1F34F01ADF81410BDF812106A
:10369000BDF81020881800EBD071C1F34F01ADF8D0
:1036A0001A10BDF80A10BDF80620881800EBD0717A
:1036B000C1F34F01ADF81610BDF81A10BDF818206F
:1036C000881A43F097FB06465A490988A1F114006D
:1036D00043F090FB0746314643F08EFA0446BDF8AE
:1036E0001610BDF81420881A43F084FB0646514991
:1036F0004988A1F1140043F07DFB0746314643F0B1
:103700007BFA0546BDF81A0043F08CFB8146214642
:1037100043F09CFB0746474909880A3908B243F041
:1037200069FB8046394643F05DFC064643F026FBC4
:1037300000B241494880BDF8160043F073FB814652
:10374000294643F083FB07463A4949880A3908B2BB
:1037500043F050FB8046394643F044FC064643F0B4
:103760000DFB00B23449888008468460C56059204A
:1037700008701022C820FEF75CFB00BF35E708B5D3
:1037800001212020FDF7B6FB4020ADF800001020FD
:103790008DF8030003208DF8020069462748FDF7E5
:1037A000EDF88020ADF8000048208DF80300694650
:1037B0002248FDF7E3F8FEF77AFEFEF78FFA1022B3
:1037C0001D49C820FEF724FB1B480078592801D06A
:1037D000FFF701FF08BD2DE9F0411949881EFFF7E9
:1037E0007AFE10B1FF20BDE8F0811349B1F9020063
:1037F00043F000FB06461249891E088843F012FB7D
:1038000007460D488168384643F020FB054631469F
:1038100043F090F9044643F0CDFA0949891E8880A7
:103820000549B1F904000DE098812242008022424E
:103830002C0000202E0000209C4A00200014014093
:103840003800002043F0D6FA06461449488843F071
:10385000E9FA07461248C168384643F0F7FA0546C8
:10386000314643F067F9044643F0A4FA0B49C88097
:10387000084680880B490988884203DD094800888A
:10388000064988800548C08806494988884203DD82
:10389000044840880149C8800020A4E73600002081
:1038A0009C4A00202E00002008B501210820FDF7C9
:1038B00021FB2020ADF8000010208DF8030003202C
:1038C0008DF8020069460248FDF758F808BD00006F
:1038D000000C014010B504462046FEF73AFE10BD2C
:1038E00010B53820FEF78FFE10BD10B50020FEF792
:1038F0008AFE10BD08B501214FF4C470FDF7FAFA35
:103900004FF48050ADF8000010208DF80300032024
:103910008DF802006946FE48FDF730F84FF48051FB
:10392000FB48FDF7D8F84FF40070ADF80000694689
:10393000F848FDF723F84FF40071F648FDF7CBF88F
:103940004FF4C040ADF800006946F348FDF716F8A3
:103950004FF40051F048FDF7BEF8FEF713FE0120CA
:10396000EE49086008BD10B50120EC490860FF2051
:10397000FFF7B0FF10BD10B5002400BFFF20FFF718
:10398000A9FFFF2801D1002010BD641C6FF07F400B
:103990008442F3D30120F7E710B50020DF49086027
:1039A000FFF7E9FF08B9002010BDFFF7DCFF012099
:1039B000FAE770B505464FF6FF7401E0601E84B269
:1039C000FF20FFF787FFA84201D0002CF6D10CB9E9
:1039D000FF2070BD0020FCE770B504460D46FE20B8
:1039E000FFF7E7FF08B1012070BD04E0FF20FEF7FC
:1039F000B0FD2070641C2800A5F101018DB2F5D145
:103A0000FF20FFF767FFFF20FFF764FF0020EBE7D1
:103A100070B506460D46FFF7AEFF08B1012070BD38
:103A20002846FFF757FFFD2D19D0002404E0305D34
:103A3000FEF78FFD601C84B2B4F5007FF7DBFF203A
:103A4000FFF748FFFF20FFF745FFFF20FFF742FF8A
:103A5000044604F01F00052801D00220DFE7002003
:103A6000DDE72DE9F04105460C4617464FF000080A
:103A7000FFF779FFFFF790FF10B1FF20BDE8F0815D
:103A800045F04000FFF726FF200EFFF723FFC4F3A9
:103A90000740FFF71FFFC4F30720FFF71BFFE0B24B
:103AA000FFF718FF3846FFF715FF0C2D02D1FF2056
:103AB000FFF710FF4FF01F0800BFFF20FFF70AFFBE
:103AC000064606F0800030B15FEA0800A8F1010167
:103AD00001F0FF08F1D13046D0E770B5054601226C
:103AE00000210A20FFF7BDFF044624B91021284613
:103AF000FFF772FF0446FFF736FF0CB1012070BDDF
:103B00000020FCE770B50546012200210920FFF7DF
:103B1000A8FF044624B910212846FFF75DFF04469C
:103B2000FFF721FF0CB1012070BD0020FCE77FB53D
:103B30006846FFF7E7FF10B1002004B070BD9DF8A4
:103B4000000000F0C000402809D19DF809009DF850
:103B5000081000EB0120401C84B2A50220E09DF873
:103B6000050000F00F009DF80A1000EBD1109DF841
:103B7000091001F0030100EB4100861C9DF80800CC
:103B800080119DF8071000EB81009DF8061001F0F0
:103B9000030100EB8120441CA6F1090004FA00F5A2
:103BA0002846CAE7F8B5FFF7A5FEFFF799FE0025FE
:103BB00004E0FF20FFF78EFE681C85B20A2DF8DBBB
:103BC000142600BF952200210846FFF74AFF04464D
:103BD000012C04D03000A6F101018EB2F2D10020F8
:103BE0004F490870012C4AD187224FF4D571082023
:103BF000FFF737FF012847D1002506E0FF20FFF738
:103C000069FE0DF80500681C85B2042DF6DB9DF8F1
:103C10000200012879D19DF80300AA2875D14FF63A
:103C2000FE7600BF012200213720FFF71AFF012294
:103C300091072920FFF715FF044624B13000A6F1B3
:103C400001018EB2EED1002E5FD0012200213A2078
:103C5000FFF707FF002858D1002506E0FF20FFF7F7
:103C600039FE0DF80500681C85B2042DF6DB9DF8C1
:103C7000000000F0400018B106202949087044E017
:103C800004202749087040E0012200213720FFF777
:103C9000E8FE012200212920FFF7E3FE0446012C63
:103CA00017DC02201E4908704FF6FE7600BF012285
:103CB00000213720FFF7D5FE012200212920FFF740
:103CC000D0FE0446BCB13000A6F101018EB2EED1A7
:103CD00011E00120124908704FF6FE7600BF012264
:103CE00000211046FFF7BDFE044624B13000A6F1C6
:103CF00001018EB2F3D12EB1012251021020FFF743
:103D0000B0FE10B1002006490870FFF72CFE09E054
:103D1000000C0140001C014000200140B801244279
:103D20003E000020FFF7E1FD4348007808B1002085
:103D3000F8BD0CB12046FBE7AA20F9E72DE9F041D8
:103D400006460F4615463C480078062800D07F02FC
:103D5000012D0CD1012239461120FFF782FE0446C5
:103D6000FCB969023046FFF737FE044619E001222C
:103D700039461220FFF775FE044600BF4FF400716C
:103D80003046FFF729FE044606F50076681EC0B2ED
:103D9000050001D0002CF1D0012200210C20FFF7FA
:103DA00060FEFFF7E0FD2046BDE8F0812DE9F0411F
:103DB00006460F46154620480078062800D07F02A8
:103DC000012D0CD1012239461820FFF74AFE044686
:103DD0006CBBFE213046FFF71BFE044627E0164869
:103DE0000078012809D0012200213720FFF739FE91
:103DF000012229461720FFF734FE012239461920F7
:103E0000FFF72FFE044694B900BFFC213046FFF7B0
:103E1000FFFD044606F50076681EC0B2050001D01D
:103E2000002CF2D0FD210020FFF7F2FD0446FFF741
:103E30009AFD2046BDE8F0813E00002008B56846A6
:103E400002F0C2F908BD08B5684602F007FA08BDDD
:103E500038B504466A460821204608F0F3FC38BD10
:103E600010B543480078012805D102F0EFF808F0BA
:103E700075FF02F0FCF810BD70B504466FF0040049
:103E8000FCF7FDFC2046E11704EB5171C1F3C701BB
:103E9000384A1170E11704EB5171CD1036480068B3
:103EA0003649B1FBF0F04543334800684FF47A716E
:103EB000B1FBF0F0324908804FF0E020006940F09B
:103EC00002004FF0E021086108464561006940F0BA
:103ED0000100086170BD2DE9F047074600264FF04C
:103EE000E020D0F814902348007807FB00F800BFCA
:103EF000FFF7A4FF4FF0E020856911E04FF0E020CC
:103F00008469AC420CD0AC4202D2281B064403E0C8
:103F1000A9EB0400284406442546464500D300E0AA
:103F2000ECE700BFFFF78FFFBDE8F08770B50446F0
:103F30000F480078A0B11348007888B9104800886D
:103F4000844206DB0E48008894FBF0F52846FFF714
:103F50007FFF0B48008894FBF0F100FB114084B216
:103F60004FF47A7104FB01F0FFF7B5FF70BD00005C
:103F70009500002040000020C48E040840420F003D
:103F80004200002094000020014600BF704770B539
:103F900004460D46E1B23B48FDF74CF900BF8021D5
:103FA0003848FDF7B5F90028F9D0204670BD10B5A6
:103FB00086B00446012144F20400FCF79BFF4FF455
:103FC0000070ADF8140003208DF8160018208DF84D
:103FD000170005A92C48FCF7D1FC4FF48060ADF820
:103FE000140004208DF8170005A92748FCF7C6FC2B
:103FF00025208DF8000003208DF801008DF80200C7
:1040000001208DF803006846FCF7EFFB01940020C7
:10401000ADF80800ADF80A00ADF80C00ADF81000DE
:104020000C20ADF80E0001A91648FDF70AF8012290
:1040300040F225511348FDF79CF801211148FDF786
:104040008CF806B010BD10B502F000F840F2255112
:104050000C48FDF773F970B10A48FDF7EFF8C4B2E8
:1040600021460848FDF7E6F800BF40210548FDF766
:104070004FF90128F9D140210248FDF756F901F026
:10408000F6FF10BD003801400008014070B503463E
:104090000C4603E014F8015B03F8015B1500A2F184
:1040A0000102F7D170BD30B5034601E003F8011BF2
:1040B0001400A2F10102F9D130BD10B504467A49CD
:1040C00051F824104A00794951F824000021FFF7E3
:1040D000EAFF774951F824207449083951F824003F
:1040E0000021FFF7E0FF012170480830015510BDA5
:1040F00010B501460023002207E06C4850F821006B
:1041000030F8120000B15B1C521C674850F82100C7
:104110009042F2D864205843634C54F82140B0FBDD
:10412000F4F0C0B210BD2DE9F04704460F4600255B
:10413000A9465E480830005D20B95C481038016827
:10414000204688471FB94FF0FF30BDE8F087594837
:1041500050F82400B7FBF0F6564850F82400B7FB9F
:10416000F0F100FB117000B1761C4F4850F82400AC
:10417000451E20E04D4850F8240030F8150010B9D5
:1041800009F1010901E04FF00009B14512D14FF0EA
:10419000000808E0454850F8240005EB080220F824
:1041A000126008F10108B045F4D3424850F82400E9
:1041B0006843CAE76D1E002DDCDA4FF0FF30C4E71C
:1041C0002DE9F04104460E4638480830005D38B904
:1041D000364810380168204688470120BDE8F08144
:1041E000334850F82400B04217D9324850F8240020
:1041F000B6FBF0F12D4850F8240030F811200025CE
:1042000007E00023294850F824004F1920F8173000
:104210006D1C9542F5DB0020E0E70220DEE770B57B
:1042200005460C4604B970BD2048083850F82500F2
:10423000261A31462846FFF7C3FF00BFF3E770B5E3
:1042400004460E4631462046FFF76DFF0546681CC2
:1042500008B9002070BD1548083850F824002844DB
:10426000F8E72DE9F04104460F4616463146204650
:10427000FFF759FF0546681C10B90020BDE8F08122
:104280000A49083951F82410481932463946FFF7CF
:10429000FDFE39462046FFF7C2FF0448083850F8B3
:1042A00024002844EAE70000B48C040858000020E9
:1042B000C48C0408BC8C040800B585B06846FCF7C3
:1042C000ACFD019805B000BD10B5FFF7F5FF044641
:1042D0001748006840F080701549086000201549B3
:1042E00048600846006840F001000860204601F080
:1042F0006CFC10BD0F49486870472DE9F0478246B5
:10430000FFF7DAFF4FF0000980460B4A00234046D2
:10431000494639F049FC064632460B4650460021D4
:1043200039F042FC04460D4620462946BDE8F08798
:10433000FCED00E0001000E040420F000146412982
:1043400003DB5A2901DC012200E00022012A08D007
:10435000612903DB7A2901DC012200E00022012A25
:1043600001D1012200E00022104670470146412998
:1043700003DB5A2901DC012200E00022012A08D0D7
:10438000612903DB7A2901DC012200E00022012AF5
:1043900001D1012200E00022012A08D0302903DBEC
:1043A000392901DC012200E00022012A01D1012289
:1043B00000E00022104670470146612903DB7A299C
:1043C00001DC012200E0002210467047014641292D
:1043D00003DB5A2901DC012200E00022104670476D
:1043E0000146302903DB392901DC012200E00022EB
:1043F000104670470146302903DB372901DC0122D2
:1044000000E00022104670470146302901DB3929BF
:1044100007DD412901DB462903DD612903DB66292C
:1044200001DC012200E000221046704701462029ED
:1044300001D0092901D1012200E000221046704775
:104440000146202909D00D2907D00A2905D00C29B9
:1044500003D0092901D00B2901D1012200E000225B
:10446000104670470146202903DB7E2901DC01222A
:1044700000E00022104670470146212903DB7E2917
:1044800001DC012200E0002210467047014620298D
:1044900003DB7E2901DC012200E00022012A35D164
:1044A000202909D00D2907D00A2905D00C2903D0CD
:1044B000092901D00B2901D1012200E000222ABBE9
:1044C000412903DB5A2901DC012200E00022012AF4
:1044D00008D0612903DB7A2901DC012200E00022F7
:1044E000012A01D1012200E00022012A08D030294E
:1044F00003DB392901DC012200E00022012A01D17D
:10450000012200E000220AB9012200E00022104648
:10451000704701464AB2002A01DB1F2901DD7F29CD
:1045200001D1012200E000221046704701464129D6
:1045300003DB5A2901DC012200E00022012A02D11A
:1045400001F1200200E00A46D0B27047014661291D
:1045500003DB7A2901DC012200E00022012A02D1DA
:10456000A1F1200200E00A46D0B27047F0B504463F
:104570000B462046FFF7EAFF05461846FFF7E6FF21
:104580000646B54201D1012000E00020074638462A
:10459000F0BD0000FC48FD4901600146416000217A
:1045A0008160C160016141618161C161016201633A
:1045B000C1624162F6498163C1634FF48061016465
:1045C00041640146F34A116070472DE9F041054608
:1045D0000B4694460027002402E03F021F43641C60
:1045E000042CFAD3604605F00306294646B134464A
:1045F00003E001F8013B401E641C08B1042CF8D311
:104600000A4601E080C2001F0428FBD2114602E0E6
:1046100001F8013B401E0028FAD1BDE8F08130B519
:1046200005460C46224600212846FFF7CEFF30BD46
:104630002DE9F04F85B007468846914646463D46EF
:10464000AE4207D94A464146384601F01DF905B049
:10465000BDE8F08F4C4607EB0900451E08EB09004A
:10466000461EA81B04900498042834D305F00300C8
:10467000029006F003010191DDE90110884201D1A9
:10468000012000E0002000900098012823D102982A
:10469000032810D0029840B2039008E016F80109F0
:1046A00005F80109641E0398401E40B2039014B13E
:1046B00003980028F2DAA5F1030AA6F1030B04E03F
:1046C0005BF804094AF80409241F042CF8D20AF103
:1046D00003050BF1030604E016F8010905F80109CA
:1046E000641E002CF8D100BFB1E72DE9F84F8046D9
:1046F0008946154615B90120BDE8F88FB8F1000FBD
:1047000001D10020F8E7B9F1000F01D10020F3E753
:104710000124294608EB050209EB050302F0030C0E
:1047200003F0030BDC4501D1012000E000200090E4
:104730000098012829D1BCF1000F12D0E2460AE00E
:10474000521E5B1E107893F800E0704500D00024E4
:10475000491EAAF1010A012C03D111B1BAF1000FCF
:10476000EED1012C11D116461F4608E0361F3F1F1F
:104770003068D7F800E0704500D00024091F012CF4
:1047800001D10429F2D232463B4608E0521E5B1E9C
:10479000107893F800E0704500D00024491E012CE9
:1047A00001D10029F2D12046A6E7F0B503460E4616
:1047B0001546D96BB1FBF5F005FB101CBCF1000FE1
:1047C00002D0A5EB0C0200E000229419586CA04224
:1047D00001D20020F0BD0F191144DF63586C001B9B
:1047E00058640846F6E72DE9F04106460F46B6FB49
:1047F000F3FC03FB1C6109B15C1A00E00024B2FB6E
:10480000F3FC03FB1C2109B15D1A00E0002502EB5B
:104810000508A7F1010C08FB0C4C0CEB0200BDE8ED
:10482000F0812DE9FE4F8046894614461E46002041
:1048300000900CB901AC00BF00202060524F00BFB7
:1048400000BF01F089FA009000BF00BFF86B029032
:10485000D7F844B04B46424601210298FFF7C3FF08
:1048600005465D450FD900BF00BF009801F078FAFA
:1048700000BF00BFA5EB0B00206042F2E270308069
:104880000020BDE8FE8F4A4641463846FFF78DFFBF
:104890008246BAF1000F0CD100BF00BF009801F0B2
:1048A0005FFA00BF00BF256042F2E2703080002056
:1048B000E7E700BF00BF009801F052FA00BF00BF59
:1048C00042F2107030805046DBE72DE9FC5F07466E
:1048D0000C4690460020009000BF00BF01F03CFA5B
:1048E000009000BF00BFD7F80490D9F8380008B195
:1048F000484600E024488246DAF84450DAF83CB0F2
:1049000000BF00BF009801F02BFA00BF00BF012CD0
:104910000AD9BBFBF4F004FB10B60EB1A01B00E0FB
:104920000020019001982D1A42F21070A8F80000A2
:104930002846BDE8FC9F70B504460D462A46214630
:104940001148FFF7C2FF0646304670BD18B942F263
:1049500011720A807047104A026000224260826031
:10496000C260026142618261C2610262826242632C
:104970000263C26242628263C2630264426442F2C0
:1049800010720A8000BFE5E740750020484541509D
:1049900088750020640000204E4F4E452DE9FF4FE2
:1049A00091B00446DDE9208900200090B8F1000FA5
:1049B00002D10DF1180800BF0020C8F800004946D8
:1049C0002046FFF7C3FFB9F8000042F21071884299
:1049D00002D015B0BDE8F08FFE48006820B942F261
:1049E000E770A9F80000F4E7DFF8ECA300200590D9
:1049F00000BF00BF01F0B0F9009000BF00BF1298E7
:104A000080BB5546AB462E46DAF83C000D90042399
:104A10001A4614990D98FFF7E6FE049004990D9834
:104A200008440C90DDE91E2314990C98FFF7DBFE77
:104A30000390DDE9030108440590DAF84470059815
:104A4000B8427DD900BF00BF009801F089F900BFCE
:104A500000BF0598C01BC8F8000042F2E270A9F838
:104A60000000B6E7FFE712980B90DDE91201084459
:104A7000401E0A900025AB46D64806683BE0B16B65
:104A80001298814205D1316C1398814201D135468B
:104A900033E0B06B0990316CB06B0844401E089055
:104AA000DDE90901814200D227E009990B9888428B
:104AB00003D8DDE9091088420FD209990B98884282
:104AC00003D308990A98884207D908990B98884215
:104AD0000FD808990A9888420BD300BF00BF0098EE
:104AE00001F03EF900BF00BF42F27F70A9F800005C
:104AF0006FE7B346F668002EC1D100BF45B9254621
:104B00001298A0631298E06313982064139860646D
:104B1000DAF83C000D9004231A4614990D98FFF71B
:104B200062FE0490DAF844700498B84211D900BFCC
:104B300000BF009801F014F900BF00BF049800E026
:104B400024E0C01BC8F8000042F2E270A9F800009F
:104B50003FE7E86B0C90DDE91E2314990C98FFF7F2
:104B600042FE03906F6C0398B8420FD900BF00BF9C
:104B7000009801F0F5F800BF00BF0398C01BC8F80B
:104B8000000042F2D870A9F8000022E714988000D3
:104B90000290042250460299FFF707FE0F900F98EB
:104BA00030BBDAF8447000BF00BF009801F0D8F8BD
:104BB00000BF00BF129858B90598B84204D90598AB
:104BC000C01BC8F800000EE00598C8F800000AE015
:104BD0000298B84204D90298C01BC8F8000002E04D
:104BE0000298C8F8000042F2E270A9F80000F0E66E
:104BF0000020019034E02846DDE91E12FFF7D5FDC4
:104C00000E900E9820BBE86B0C906F6C00BF00BF3D
:104C1000009801F0A5F800BF00BF01991498401A50
:104C20000790DDE91E2307990C98FFF7DCFD05903E
:104C30000598B84204D90598C01BC8F8000002E0E6
:104C40000598C8F8000042F2D870A9F80000C0E644
:104C5000019ADDE90E0141F822000198401C019003
:104C6000149901988842C6D3A5420DD1C4F808B062
:104C7000E660BBF1000F02D0CBF80C4001E05548D4
:104C800004605EB1B46009E0686910902561109815
:104C900060616C61109808B1109804614F48206001
:104CA00065600C98A06103990C980844401EE0616F
:104CB0000F9820620398A0621F9860631E9820637B
:104CC0001498E0621498606200BF00BF009801F081
:104CD00047F800BF00BF42F21070A9F8000000BF03
:104CE00077E62DE9F04104460D46002700BF00BFDE
:104CF00001F032F8074600BF00BF666A00BF00BF80
:104D0000384601F02DF800BF00BF42F21070288035
:104D10003046BDE8F0812DE9F0410446884615464D
:104D2000002700BF00BF01F017F8074600BF00BF13
:104D3000606A60B900BF00BF384601F011F800BFDB
:104D400000BF42F2DE7028800020BDE8F081E16AF9
:104D5000606A88420BD900BF00BF384601F000F8F6
:104D600000BF00BF42F2957028800020EDE7606A26
:104D7000401E6062D4E9080150F8216000BF00BF06
:104D8000384600F0EDFF00BF00BF42F210702880EF
:104D90003046DAE72DE9F04704460F4615464FF056
:104DA000000900BF00BF00F0D7FF814600BF00BF71
:104DB000E06AC01B461EE06AB04213D800BF00BFC5
:104DC000484600F0CDFF00BF00BF42F2957028803A
:104DD000002005E06400002040750020504F4F4C3B
:104DE000BDE8F087606AB0420BD900BF00BF4846FB
:104DF00000F0B6FF00BF00BF42F29570288000208F
:104E0000E7E7206A50F8268000BF00BF484600F060
:104E1000A7FF00BF00BF42F2107028804046D8E7CD
:104E20002DE9F04704460E4617464FF0000A00BF32
:104E300000BF00F091FF824600BF00BFE16A606AD8
:104E400088420BD300BF00BF504600F089FF00BF6F
:104E500000BF42F2DD703880BDE8F0874FF00008F7
:104E6000656A08E0206A50F82590B14502D14FF0FC
:104E7000010803E06D1CE06AA842F3D800BFB8F156
:104E8000010F06D1D4E9080150F82100216A41F848
:104E90002500D4E9080140F82160606A401C606286
:104EA00000BF00BF504600F05BFF00BF00BF42F2F2
:104EB0001070388000BFCFE72DE9F84F04460F4649
:104EC0001646002000904FF0FF3B00BF00BF00F0EF
:104ED00043FF009000BF00BFE16A606A88420CD3C4
:104EE00000BF00BF009800F03BFF00BF00BF42F2D0
:104EF000DD7030805846BDE8F88F4FF00009656AD4
:104F000008E0206A50F82580B84502D14FF0010929
:104F100003E06D1CE06AA842F3D800BFB9F1010FAD
:104F20000FD1E06A401EA0EB050A00BF00BF009849
:104F300000F016FF00BF00BF42F2107030805046F4
:104F4000D9E700BF00BF009800F00AFF00BF00BF14
:104F500042F2887030805846CDE7000010B5024616
:104F60000B461146002001E0491C401C19B10C7889
:104F70000CB19842F8D310BD30B504464FF0FF3164
:104F80002046FFF7EBFF0546284630BD70B50446C6
:104F90000D4616460CB9002070BD0DB90020FBE788
:104FA00021462A46002304E010780870491C521C50
:104FB0005B1C21B11AB1107808B1B342F4D301B12E
:104FC0000AB90020E8E7B34201D200200870204669
:104FD000E2E770B504460D464FF0FF322946204601
:104FE000FFF7D4FF0646304670BD70B503460C4649
:104FF00015460BB9002070BD0CB90020FBE70DB9B8
:105000001846F8E7194600E0491C11B10878002855
:10501000FAD109B90020EEE72246002604E0107814
:105020000870491C521C761C21B11AB1107808B1C5
:10503000AE42F4D301B10AB90020DCE700200870C9
:105040001846D8E770B504460D464FF0FF322946A2
:105050002046FFF7CAFF0646304670BD2DE9F043F3
:1050600005460B469446BCF1000F02D10020BDE876
:10507000F08335B90BB90020F9E7187842421046A1
:10508000F5E713B92A781046F1E729461C460F4682
:1050900026467F1C761C4FF0000805E0491C641C66
:1050A0007F1C761C08F10108087894F800904845A8
:1050B00005D1087818B117B10EB1E045EED3E0453F
:1050C00001D10020D3E7087894F80090484505D036
:1050D000087894F80090A0EB09020BE0087808B972
:1050E000002207E02FB90EB9002203E030784242D7
:1050F00000E03A781046BAE770B504460D464FF026
:10510000FF3229462046FFF7A9FF0646304670BD0C
:105110002DE9F74F82B080460E46049818B900205A
:1051200005B0BDE8F08FB8F1000F09D10EB900202D
:10513000F6E73078FFF7FAF907467C422046EFE7BA
:105140003EB998F80000FFF7F1F905462C462046D5
:10515000E6E7C146B246C846C3465646CDF804A067
:10516000D8460BF1010B019E701C0190C84699F8BE
:105170000000FFF7DBF9054656469AF80000FFF7F6
:10518000D5F907460020009015E009F101090AF160
:10519000010A0BF1010B0198401C01900098401C82
:1051A000009099F80000FFF7C1F905469AF8000051
:1051B000FFF7BCF90746BD420BD199F8000040B19A
:1051C000BBF1000F05D0019818B1049900988842EE
:1051D000DBD304990098884201D10020A0E7BD42AA
:1051E00001D0EC1B16E00DB9002413E0BBF1000F59
:1051F0000AD1019808B900240CE001990878FFF75A
:1052000095F907467C4205E09BF80000FFF78EF910
:1052100005462C46204683E770B504460D464FF000
:10522000FF3229462046FFF773FF0646304670BD21
:1052300030B504460B4615460CB9002030BD0BB9FD
:105240000020FBE72146002201E0491C521C31B13D
:10525000087820B10878A84201D09A42F5D309B95C
:105260000020EBE79A4201D30020E7E70878A84244
:1052700001D00020E2E70846E0E770B505460C469D
:1052800022464FF0FF312846FFF7D2FF0646304650
:1052900070BD2DE9F04305460E46174615B90020AE
:1052A000BDE8F0830EB90020FAE72C46A6F101090B
:1052B00049462046FFF752FE804644440CB9002080
:1052C000EEE700E0641EAC4202D02078B842F9D18B
:1052D0002078B84201D00020E2E72046E0E770B530
:1052E00005460C4622464FF0FF312846FFF7D1FF16
:1052F0000646304670BD70B504460D4616460CB9DC
:10530000002070BD0BB90020FBE721461A4605E0DE
:105310000878A84200D10E70491C521E19B10878B5
:1053200008B1002AF4D12046EBE7F0B504460D465B
:1053300016464FF0FF33324629462046FFF7DBFF83
:1053400007463846F0BD2DE9FF4F06460F46154685
:105350001EB9002004B0BDE8F08F0FB90020F9E7B6
:105360000DB90020F6E7681C00B101E04FF0FF30F6
:10537000039029463046FFF7F1FD804638460399F1
:10538000FFF7ECFD04460CB93046E3E7444501D98C
:105390000020DFE706EB080BBBF1000F01D1002076
:1053A000D8E707EB040BBBF1000F01D10020D1E7D8
:1053B000A8EB040002904FF000090020019000BF0C
:1053C00006EB09000090224639460098FFF746FE9A
:1053D0008246BAF1000F01D1012000E000200190C7
:1053E00009F10109019810B902988145E8D9BAF18B
:1053F000000F01D00020ADE70098ABE770B5044680
:105400000D464FF0FF3229462046FFF79CFF064627
:10541000304670BD2DE9FF4F8DB00F4615461A9EE0
:105420001D9818B9002011B0BDE8F08F002003903E
:105430000490012F01DA01200390022D01D3242DC5
:1054400001D90120039096B33046FFF70BF8029084
:105450000298012802D00120039028E0302E26D0A7
:10546000A6F13000C0B207901B98012804D0A6F125
:105470004100C0B2069003E0A6F16100C0B2069000
:105480000A2D02D80798A84209DB0A2D09D90798E6
:105490000A2804D3A5F10A000699884201D90120FF
:1054A00000E0002005900598012800D103901D9C84
:1054B0000398002846D1DDF834A0DDF834A0CDF8FB
:1054C00030A001200B9007E00B98401CC0B20B905D
:1054D0000C98B0FBF5F00C900C98A842F4D2109800
:1054E000012800D100E0002009900B990998084498
:1054F000B84225DC002001900B98B84201DA0B98E5
:1055000000E038460A903EB1B8460A98391A099820
:10551000081AC0B2089006E0DDE90910084400F05E
:10552000FF08002008900898002806DD302E01D1E1
:10553000012000E00020049004E00020049001E03D
:1055400001200390039800B1B84644441C9808B168
:1055500000202070641E4FF0000941E00398A8BBB2
:10556000BAF1000F02D1B9F1000F1CD1BAFBF5F06E
:1055700005FB10A000F0FF0BBBF10A0F04D20BF1EA
:10558000300004F801090BE01B98012804D00BF14E
:10559000370004F8010903E00BF1570004F8010992
:1055A000BAFBF5FA1AE01098012810D1049808B94E
:1055B000019828B1049850B1A8F10100484506D1DE
:1055C0002D2004F801090120019007E003E02EB12D
:1055D00004F8016902E03F2004F8010909F101091A
:1055E000C145BBD3039808B100201CE71D981AE7FA
:1055F0002DE9FF5F05460E4617461C46DDE90F9A6A
:10560000DDF8388000233A46314628468DE81007F9
:10561000FFF700FF8346584604B0BDE8F09F2DE930
:10562000FF4F85B0044689461F46DDE913AB002CC9
:1056300002DA6542012601E025460026129833462B
:10564000CDE902ABCDE9007049462846079AFFF73D
:10565000E1FE8046404609B0BDE8F08F2DE9FF4FDE
:105660008BB0064689461546B9F1000F02D10DF1FF
:10567000240900BFC9F80060189810B907A818904D
:1056800000BF0021189801701EB900200FB0BDE8BE
:10569000F08F012D01D0242D01D90020F6E73446EA
:1056A0002078FEF7CDFE039004E0641C2078FEF71E
:1056B000C7FE039003980128F7D020782B2802D04A
:1056C0002D280BD103E0641C4FF0000B09E00E986D
:1056D000012800D1641C4FF0010B02E04FF0000BD9
:1056E00000BF00BF0A9425B1082D1CD0102D36D163
:1056F0001EE02078302814D1641C2078582802D06D
:1057000078280BD100BF102567783846FEF77CFE5D
:105710008246BAF1010F00D1641C01E0082500BFE8
:1057200000E00A251CE02078302800D1641C17E036
:105730002078302812D1641C2078582802D078288C
:105740000AD100BF67783846FEF75EFE8246BAF19E
:10575000010F00D1641C00E000BF00BF00E000BFEB
:1057600000BF4FF0000800200290019040E0277831
:105770003846FEF7FBFD05900598012836D13846DE
:10578000FEF72EFE06900698012804D1A7F13000FE
:10579000C0B208900FE03846FEF70EFE0490049861
:1057A000012804D1A7F15700C0B2089003E0A7F187
:1057B0003700C0B208900898A84214DA029880B95D
:1057C000304850F82500404509D308FB05F80898F3
:1057D00080440898804504D20120029001E0012015
:1057E0000290641C04E00120019001E0012001907E
:1057F00001980028BBD00298012801D14FF0FF3852
:105800000A98844202D0C9F8004001E0C9F800605B
:10581000189880F800B0404638E7F8B504460D46C1
:105820001646002003463246294600902046FFF7E0
:1058300015FF07463846F8BD2DE9FC4105460E46E2
:10584000174601A801233A46314600902846FFF743
:1058500005FF04469DF8040040B9B4F1004F02D39F
:105860006FF0004000E02046804607E0B4F1004FB2
:1058700002D34FF0004000E0604280464046BDE861
:10588000FC810000CC8C0408002800D1704700295E
:1058900000D17047002A00D170472DE9F81F00F0B1
:1058A000030301F00304A34211D1C3F1040303F085
:1058B0000303012B1DD3012A00D2F2E011F8014BA2
:1058C00000F8014BA3F10103A2F10102F1E700F09E
:1058D000010301F00104A34200D094E0012B44D362
:1058E00011F8014B00F8014BA3F10103A2F10102F1
:1058F000F4E7B2F5B47F26D3B1E8F81FA0E8F81FAB
:10590000B1E8F81FA0E8F81FB1E8F81FA0E8F81FF9
:10591000B1E8F81FA0E8F81FB1E8F81FA0E8F81FE9
:10592000B1E8F81FA0E8F81FB1E8F81FA0E8F81FD9
:10593000B1E8F81FA0E8F81FB1E8F81FA0E8F81FC9
:10594000A2F5B472D5E7282A06D3B1E8F81FA0E87B
:10595000F81FA2F12802F6E7042A06D351F8043B07
:1059600040F8043BA2F10402F6E7202A42D331F8C2
:10597000023B20F8023B31F8023B20F8023B31F8B1
:10598000023B20F8023B31F8023B20F8023B31F8A1
:10599000023B20F8023B31F8023B20F8023B31F891
:1059A000023B20F8023B31F8023B20F8023B31F881
:1059B000023B20F8023B31F8023B20F8023B31F871
:1059C000023B20F8023B31F8023B20F8023B31F861
:1059D000023B20F8023B31F8023B20F8023B31F851
:1059E000023B20F8023B31F8023B20F8023BA2F1D7
:1059F0002002BAE7022A06D331F8023B20F8023B24
:105A0000A2F10202F6E7102A42D311F8013B00F896
:105A1000013B11F8013B00F8013B11F8013B00F894
:105A2000013B11F8013B00F8013B11F8013B00F884
:105A3000013B11F8013B00F8013B11F8013B00F874
:105A4000013B11F8013B00F8013B11F8013B00F864
:105A5000013B11F8013B00F8013B11F8013B00F854
:105A6000013B11F8013B00F8013B11F8013B00F844
:105A7000013B11F8013B00F8013B11F8013B00F834
:105A8000013B11F8013B00F8013BA2F11002BAE71B
:105A9000012A06D311F8013B00F8013BA2F10102F3
:105AA000F6E7BDE8F81F704710B5002400BF00BF3F
:105AB00000F052F9044600BF00BF1021A148FEF7D4
:105AC000AEFD00BF00BF204600F04AF900BF00BF96
:105AD00010BD10B5FFF7E8FF10BD10B500209A49C2
