:020000040800F2
:10000000D89A0020310500081105000813050008E2
:10001000170500081B0500081F0500080000000068
:1000200000000000000000000000000023050008A0
:10003000250500080000000077F20008354400089C
:100040004B0500084B0500084B0500084B05000850
:100050004B0500084B0500084B0500082905000862
:100060002B0500082D0500084B0500084B0500086E
:100070004B0500084B0500084B0500084B05000820
:100080004B0500084B0500084B0500084B05000810
:100090004B0500084B0500084B0500082705000824
:1000A0004B0500084B0500084B0500084B050008F0
:1000B0004B050008C73E0008473E00084B050008F6
:1000C0004B0500084B0500084B0500084B050008D0
:1000D0004B0500081B4600084B0500084B050008AF
:1000E0004B0500084B0500084B0500084B050008B0
:1000F0004B0500084B0500084B0500084B050008A0
:100100004B0500084B0500084B0500084B0500088F
:100110004B0500084B050008353F00084B0500085B
:100120004B0500084B0500084B0500084B0500086F
:1001300000F002F800F05FF80AA090E8000C82449A
:100140008344AAF10107DA4501D100F054F8AFF277
:10015000090EBAE80F0013F0010F18BFFB1A43F0A5
:10016000010318470CD702002CD702000A444FF0B5
:10017000000C10F8013B13F0070408BF10F8014B06
:100180001D1108BF10F8015B641E05D010F8016B4B
:10019000641E01F8016BF9D113F0080F1EBF10F8AF
:1001A000014BAD1C0C1B09D16D1E58BF01F801CBD2
:1001B000FAD505E014F8016B01F8016B6D1EF9D555
:1001C0009142D6D37047000000230024002500266A
:1001D000103A28BF78C1FBD8520728BF30C148BFAA
:1001E0000B60704778290EF08D85002070471FB591
:1001F0001FBD10B510BD0EF0F3FF1146FFF7F7FF5E
:1002000000F0D6F80FF011F803B4FFF7F2FF03BCCB
:1002100004F0A4F90EB511E0A548006808B9012062
:1002200000E00020A249086002A80821C82300229B
:10023000CDE90010114610460CF073FEECE70EB548
:100240000BE013F049F802A8082105230022CDE9AC
:100250000010114610460CF064FEF2E701E00EF0CB
:1002600030FCFCE730B58BB00446002500BF05F03C
:1002700025FF0AA80AF0E3FA0AAA0121084606F0B7
:1002800068FB0121402000F0E0FD12F02FF900BFD3
:1002900000BF00BF06F04AF8054600BF00BF854812
:1002A0000078401C8349087000BF00BF284606F054
:1002B00041F800BF00BF00BF0AA803210022059239
:1002C000CDE90621089010464FF40061CC227A4B0C
:1002D000CDE90132CDE9031006200023AFF28302FD
:1002E00076A1009079480AF081FE0AA80321002235
:1002F0000592CDE906210890104680210C22744B0E
:10030000CDE90132CDE9031004200023AFF2D10280
:1003100070A1009072480AF069FE0AA80321002229
:100320000592CDE906210890104680210C226D4BE4
:10033000CDE90132CDE9031005200023AFF22B12E5
:1003400069A100906B480AF051FE0AA96A480CF0B6
:10035000C2F900BF00BF00BF05F0E8FF054600BFBF
:1003600000BF54480078401E524908700846007883
:10037000A0B962480088002809DD00BF00BF2846F8
:1003800005F0D8FF00BF00BF06F0CBFE0DE000BFB8
:1003900000BF284605F0CEFF00BF06E000BF00BF4B
:1003A000284605F0C7FF00BF00BF00BF0BB030BD3F
:1003B0008AB00024482004F049F84FF4A06000F00F
:1003C000C7F94FF4165004F0DCF802F021FD04F0F8
:1003D00009F802F0D7FF03F070FF02F013FE0020CF
:1003E00004F055F9012004F052F909A806F082F84A
:1003F00000BF00BF00BF05F099FF044600BF00BF6B
:100400002C480078401C2B49087000BF00BF2046D4
:1004100005F090FF00BF00BF00BF09A80321002224
:100420000592CDE90621089010464FF480616622BE
:10043000334BCDE90132CDE9031003200023AFF2A5
:10044000DB1230A100902C480AF0D0FD00BF00BFA5
:1004500000BF05F06BFF044600BF00BF15480078E1
:10046000401E1449087008460078A0B92348008847
:10047000002809DD00BF00BF204605F05BFF00BF7C
:1004800000BF06F04EFE0DE000BF00BF204605F0A5
:1004900051FF00BF06E000BF00BF204605F04AFF45
:1004A00000BF00BF00BF09A806F0F3FA00BFFEE7D7
:1004B00080012242D800002000230020456D77698A
:1004C0006E64656D6F207461736B00003C220020C8
:1004D000781D0020546F756368207461736B000091
:1004E000B41C00203C2000204C65643120746173F2
:1004F0006B000000781F0020F00B00209C00002003
:10050000B40C00207374617274207461736B00000A
:10051000704700BFFEE700BFFEE700BFFEE700BF79
:10052000FEE770477047704770477047704700009C
:100530000948804709480047FEE7FEE7FEE7FEE777
:10054000FEE7FEE7FEE7FEE7FEE7FEE704480549B3
:10055000054A064B704700004F06000831010008AD
:10056000D8900020D89A0020D8920020D89200205D
:100570000CB50020019000906C48006840F4803079
:100580006A49086000BF6948006800F400300090C4
:100590000198401C0190009818B90198B0F5A06F1F
:1005A000F1D16248006800F4003010B101200090E1
:1005B00001E0002000900098012843D15C480068C9
:1005C00040F010005A4908600846006820F0030017
:1005D00008600846006840F0020008605348406820
:1005E000524948600846406848600846406840F400
:1005F000806048600846406820F47C1048600846E7
:10060000406840F4E81048600846006840F0807098
:10061000086000BF4548006800F000700028F9D06D
:100620004248406820F0030040494860084640685E
:1006300040F00200486000BF3C48406800F00C00F9
:100640000828F9D10CBD10B5FFF792FF10BD10B509
:100650003648006840F001003449086008464068A8
:10066000344908403149486008460068324908402A
:100670002E4908600846006820F48020086008467B
:10068000406820F4FE0048604FF41F008860FFF7C8
:10069000DAFF4FF000602949086010BD10B5002155
:1006A00000200022214B5B6803F00C0121B10429DA
:1006B00006D0082928D107E0214B224C236027E0EF
:1006C0001F4B204C236023E0184B5B6803F4701031
:1006D000164B5B6803F48032022303EB904022B98F
:1006E000194B4343174C23600DE0104B5B6803F438
:1006F000003323B1144B4343124C236003E0104BEF
:100700004343104C236003E00D4B0E4C236000BFAD
:1007100000BF064B5B68C3F303130C4CE15C094B51
:100720001B68CB40074C236010BD00000010024046
:10073000002002400000FFF8FFFFF6FE08ED00E099
:1007400000127A000000002000093D000400002093
:1007500031490143314A1160704770B500210023CF
:100760000F22C47804B32D4C246804F4E064C4F56B
:10077000E064210AC1F10403CA40447804FA03F199
:100780008478144021430901254C0678A15504784A
:1007900004F01F050124AC4005786D11AD0005F192
:1007A000E025C5F8004109E0047804F01F050124A4
:1007B000AC401C4D0678761145F8264070BD1A4AAB
:1007C0000A400243154B1B1F1A60704739B1134A88
:1007D000121D12680243114B1B1D1A6006E00F4ADE
:1007E000121D126882430D4B1B1D1A6070470428AE
:1007F00008D14FF0E021096941F004014FF0E022F7
:10080000116107E04FF0E021096921F004014FF088
:10081000E0221161704700000000FA050CED00E0D5
:1008200000E400E080E100E080FFFF1F10B5044617
:10083000CC48844208D10121042000F02DFB002186
:10084000042000F029FB46E0C748844208D101217A
:10085000082000F021FB0021082000F01DFB3AE0F9
:10086000C248844208D10121102000F015FB00216C
:10087000102000F011FB2EE0BD48844208D1012178
:10088000202000F009FB0021202000F005FB22E0E1
:10089000B848844208D10121402000F0FDFA00212F
:1008A000402000F0F9FA16E0B348844208D1012153
:1008B000802000F0F1FA0021802000F0EDFA0AE03B
:1008C000AE48844207D10121801500F0E5FA0021ED
:1008D000A01500F0E1FA10BD10B50121084600F0A6
:1008E000DBFA0021012000F0D7FA10BD2DE9F0411C
:1008F000024600250026002000230024002791F84E
:1009000003C00CF00F0591F803C00CF0100CBCF103
:10091000000F03D091F802C04CEA050591F800C021
:10092000BCF1000F31D0146800202BE04FF0010C17
:100930000CFA00F3B1F800C00CEA03069E4220D185
:1009400083004FF00F0C0CFA03F7BC4305FA03FCCD
:100950004CEA040491F803C0BCF1280F06D14FF013
:10096000010C0CFA00FCC2F814C00AE091F803C0B4
:10097000BCF1480F05D14FF0010C0CFA00FCC2F895
:1009800010C0401C0828D1D31460B1F800C0BCF1DD
:10099000FF0F34DD546800202EE000F1080C4FF00A
:1009A000010808FA0CF3B1F800C00CEA03069E42F5
:1009B00021D183004FF00F0C0CFA03F7BC4305FA6A
:1009C00003FC4CEA040491F803C0BCF1280F05D1E4
:1009D00000F1080C08FA0CF8C2F8148091F803C072
:1009E000BCF1480F07D100F1080C4FF0010808FADC
:1009F0000CF8C2F81080401C0828CED35460BDE823
:100A0000F0814FF6FF710180022181700421C170D5
:100A100070470246002093680B400BB1012000E0B4
:100A2000002070470146886880B270470246002067
:100A3000D3680B400BB1012000E000207047014655
:100A4000C86880B2704701617047416170470AB160
:100A5000016100E041617047C16070474FF480322E
:100A60000A438261816182618269826970470246BC
:100A70000020434B18684FF68073184040EA02107C
:100A800008433F4B186070473E49C8617047F0B556
:100A90000A46002300240021002500F00046B6F19C
:100AA000004F02D1364EF16901E0354E7168C0F356
:100AB000034583B200F44016B6F5401F08D121F07B
:100AC00070612F4E766826F070662D4F7E6012E0C2
:100AD00000F48016B6F5801F06D1032606FA05F449
:100AE000A14341F0706106E0460D360103FA06F6B7
:100AF000B14341F0706122B1460D360103FA06F6AA
:100B0000314300F00046B6F1004F02D11C4EF161B6
:100B100001E01B4E7160F0BD30B500228B071C0F49
:100B20000F2303FA04F2164B08338C1053F82430C9
:100B30009343134C08348D1044F8253023468C1011
:100B400053F824308C07240F00FA04F423430C4C90
:100B500008348D1044F8253030BD0A49DC31086076
:100B60007047000000080140000C014000100140E7
:100B70000014014000180140001C01400020014009
:100B80000000014000002042DF48006840F0010002
:100B9000DD49086008464068DC490840DA49486099
:100BA00008460068DA490840D749086008460068E6
:100BB00020F4802008600846406820F4FE00486069
:100BC0004FF41F0088607047CF49096821F48031D5
:100BD000CD4A11601146096821F480211160B0F5F9
:100BE000803F03D0B0F5802F0ED106E0C6490968DA
:100BF00041F48031C44A116007E0C349096841F4F7
:100C0000A021C14A116000E000BF00BF704710B5CD
:100C100001460022002300204A11012A02D1BA4CC9
:100C2000236806E0022A02D1B74C236A01E0B64CE1
:100C3000636A01F01F02012494401C400CB10120A2
:100C400000E0002010BD38B50020009000240025F1
:100C500000BF3120FFF7DBFF05460098401C0090E5
:100C60000098B0F5A06F01D0002DF2D03120FFF731
:100C7000CEFF08B1012400E00024204638BD014623
:100C80000020A14A106820F0F80040EAC10010607E
:100C90007047A04908607047024600209A4B586888
:100CA00020F47C1042EA01031843974B58607047C8
:100CB00098490866704701460020934A506820F022
:100CC00003000843506070478F48406800F00C00F4
:100CD0007047014600208C4A506820F0F00008431D
:100CE0005060704701460020874A506820F4E06059
:100CF00008435060704701460020834A506820F442
:100D0000605040EAC1005060704729B17E4A527A73
:100D100002437D4B5A7204E07B4A527A82437A4BFB
:100D20005A7270477B49D8310860704701460020ED
:100D3000754A506820F440400843506070470021D5
:100D4000714A20321170704A82F82010012802D0B6
:100D500004280AD104E001216B4A2032117005E019
:100D60000521694A2032117000E000BF00BF7047C2
:100D70006949086070476449096A0143624A11621F
:100D80007047654944390860704730B5002100223A
:100D9000002400235C4D6D6805F00C0121B104298D
:100DA00005D0082923D105E05C4D056022E05B4DAC
:100DB00005601FE0544D6D6805F47012524D6D686A
:100DC00005F48034022505EB92421CB9544D55437D
:100DD00005600BE04C4D6D6805F400351DB1504DBC
:100DE0005543056002E04D4D5543056002E04B4D13
:100DF000056000BF00BF444D6D6805F0F0010909B2
:100E0000484D6B5C0568DD4045603F4D6D6805F4FD
:100E1000E061090A434D6B5C4568DD4085603A4DF1
:100E20006D6805F46051C90A3E4D6B5C4568DD4054
:100E3000C560354D6D6805F44041890B3A4D6B5CDA
:100E4000C568B5FBF3F5056130BD29B12E4A52697D
:100E500002432D4B5A6104E02B4A526982432A4BCC
:100E60005A61704729B1284A92690243264B9A6118
:100E700004E0254A92698243234B9A61704729B165
:100E8000214AD2690243204BDA6104E01E4AD2694A
:100E900082431D4BDA61704729B11B4AD268024375
:100EA000194BDA6004E0184AD2688243164BDA60C4
:100EB000704729B1144A12690243134B1A6104E0C6
:100EC000114A12698243104B1A6170471249403926
:100ED000086070470F49C86470470B49C871704774
:100EE0000948406A40F080700749486270470146EF
:100EF0000020054A92680A400AB1012000E0002063
:100F00007047014988727047001002400000FFF8E6
:100F1000FFFFF6FE000042428004424200127A00C7
:100F200000093D00140000202400002010B50446F4
:100F3000FB48844209D101218803FFF7ADFF00215E
:100F40004FF48040FFF7A8FF32E0F648844209D111
:100F500001214804FFF7ADFF00214FF40030FFF7F7
:100F6000A8FF25E0F048844209D101218804FFF759
:100F7000A0FF00214FF48020FFF79BFF18E0EB4813
:100F8000844209D10121C804FFF793FF00214FF4E7
:100F90000020FFF78EFF0BE0E548844208D10121D5
:100FA0000805FFF786FF00214FF48010FFF781FF4F
:100FB00010BD2DE9F04786B005460E460024A24636
:100FC00000BFA1460027B08900B100BF2F462C8A80
:100FD0004CF6FF700440F08804432C82AC894EF636
:100FE000F3100440B08831890843718908430443F1
:100FF000AC81AC8A4FF6FF400440B0890443AC8218
:1010000001A8FFF7C2FEC648874202D1DDF810A052
:1010100001E0DDF80CA0A88900F4004040B10AEB23
:10102000CA0000EB0A1031684900B0FBF1F807E094
:101030000AEBCA0000EB0A1031688900B0FBF1F836
:101040006420B8FBF0F004012009642101FB108941
:10105000A88900F4004040B1322000EBC900B0FB89
:10106000F1F000F00700044308E0322000EB091023
:101070006421B0FBF1F000F00F0004432C8106B0B6
:10108000BDE8F0874FF41651016000218180C180D6
:1010900001810C21418100218181704710B50246F8
:1010A0000020108A4FF2FF0318400B884C8823431E
:1010B0008C882343CC8823431843108210BD002121
:1010C000018041808180C180704721B1828942F4D2
:1010D0000052828104E082894DF6FF731A408281BA
:1010E0007047F0B50346002400260025002040F696
:1010F0006A17B94200D100BF1846C1F3421401F08B
:101100001F06012707FA06F5012C01D10C3004E077
:10111000022C01D1103000E014301AB107682F43BF
:10112000076002E00768AF430760F0BD1AB1838A29
:101130000B43838202E0838A8B4383827047028A57
:101140004FF6F0731A400282028A0A430282704705
:1011500082894FF2FF731A40828182890A43828119
:10116000704721B1828942F00202828104E08289C3
:101170004FF6FD731A4082817047028A4FF6DF7383
:101180001A400282028A0A430282704721B1028A0F
:1011900042F48042028204E0028A4BF6FF731A4056
:1011A00002827047C1F30802828070470146888836
:1011B000C0F308007047818941F0010181817047C7
:1011C000028BD2B20283028B42EA01220283704771
:1011D000028B02F47F420283028B0A430283704730
:1011E00021B1828A42F02002828204E0828A4FF694
:1011F000DF731A408282704721B1828A42F0100266
:10120000828204E0828A4FF6EF731A40828270472E
:1012100021B1828A42F00802828204E0828A4FF67B
:10122000F7731A408282704721B1828942F40042EA
:10123000828103E08289C2F30E028281704721B16C
:10124000828A42F40062828204E0828A4FF2FF7353
:101250001A4082827047828A4FF6FB731A4082825C
:10126000828A0A438282704721B1828A42F0020256
:10127000828204E0828A4FF6FD731A4082827047B0
:1012800002460020B1F5007F00D100BF13880B405B
:101290000BB1012000E00020704701F40072B2F5AC
:1012A000007F00D100BFCA430280704770B502467C
:1012B000002400230025002040F66A16B14200D128
:1012C00000BFC1F3421501F01F03012606FA03F324
:1012D000012D02D19689334006E0022D02D1168AF3
:1012E000334001E0968A33400C12012606FA04F4DA
:1012F0001688344013B10CB1012000E0002070BD0D
:1013000010B50022002340F66A14A14200D100BFAC
:101310000A1201249440A3B2DC43048010BD0000F3
:10132000003801400044004000480040004C0040AC
:101330000050004030B943F2DB028100A1F1C0410E
:101340000A6005E043F2D2028100A1F1C0410A60C7
:101350006FF07042411C8900A1F1C0410A60810018
:10136000A1F1C041C1F80421704710280AD1182109
:101370004FF020421166402151664FF0FC319166DA
:10138000D16610E01821F74A116040214FF0204249
:10139000C2F884104FF0FC31F24A083211604FF06D
:1013A0002042C2F88C1070471820EE4920310860A6
:1013B00000200906C1F8A4004FF0FC30E9492831AB
:1013C0000860091D0860091D08607047D0E9011216
:1013D0001143C26811430269114342691143826992
:1013E0001143C2691143026A1143426A1143826A7E
:1013F0001143C26A1143026B114302689200A2F1C9
:10140000C0421160816808290BD101688900A1F1EF
:10141000C041096841F0400201688900A1F1C04162
:101420000A60416B0968426B526841EA0211426BE3
:10143000926841EA0221426B928941EA0241426B81
:10144000128A41EA0251426B127D41EA0261426B0B
:10145000926911430268521C9200A2F1C0421160CD
:10146000C16AB1F5804F1BD1816B0968826B5268EC
:1014700041EA0211826B926841EA0221826B128A70
:1014800041EA0251826B127D41EA0261826B9269EC
:10149000114302689200A2F1C042C2F8041107E0B1
:1014A0006FF0704201688900A1F1C041C1F80421C8
:1014B000704730B5002100220023446844F008043E
:1014C00085682C43C5682C4305692C43456944EA6B
:1014D0004524856944EA4531C4692468C5696D6855
:1014E00044EA0524C5692D8944EA0544C5692D7B74
:1014F00044EA0562046A2468056A6D6844EA0524C2
:10150000056A2D8944EA0544056A2D7B44EA056392
:101510000468102C05D14FF020442166A266E366D2
:1015200008E0904C21604FF02044C4F888208D4C96
:101530000C34236030BD016841F01001426841EA7B
:101540004221826841EA4231864A20321160C168F4
:101550000968C268526841EA0221C268128941EAF8
:101560000241C268127B41EA02617E4A2832116060
:10157000016909680269526841EA02210269128917
:1015800041EA02410269127B41EA0261754A2C324A
:101590001160416909684269526841EA0221426961
:1015A000128941EA02414269127B41EA02614FF02D
:1015B0002042C2F8B0107047002101600221416052
:1015C00000218160C160016141618161C16101628D
:1015D0004FF480514162490081620021C162016380
:1015E0000F21426B1160426B5160FF21426B916091
:1015F0000F21426BD160426B1161426B516100213E
:10160000426B91610F21826B1160826B5160FF21EF
:10161000826B91600F21826BD160826B1161826B52
:1016200051610021826B916170471021016000219E
:1016300041608160C160016141618161FC21C269D9
:101640001160C2695160C2699160C269D160026A69
:101650001160026A5160026A9160026AD16070474B
:101660000021016041608160FC21C2681160C26894
:101670005160C2689160C268D160026911600269FC
:101680005160026991600269D160426911604269EA
:101690005160426991604269D160704751B18200E6
:1016A000A2F1C042126842F001038200A2F1C042DE
:1016B000136009E08200A2F1C04212682A4B1A406E
:1016C0008300A3F1C0431A60704799B1102808D174
:1016D0004FF02042126E42F004024FF020431A668F
:1016E0001DE0204A126842F004024FF02043C3F884
:1016F000802014E0102809D14FF02042126E1A4BBE
:10170000DB1E1A404FF020431A6608E0154A1268A3
:10171000154BDB1E1A404FF02043C3F88020704762
:1017200048B110492031096841F004014FF02042CE
:10173000C2F8A01009E00B49203109680A4AD21EFC
:1017400011404FF02042C2F8A0107047B9B11028E4
:101750000CD14FF02042126E42F040024FF0204375
:101760001A661FE0800000A0FEFF0F00724A126898
:1017700042F040024FF02043C3F8802012E01028CE
:1017800008D14FF02042126E6C4B1A404FF02043AC
:101790001A6607E0684A1268684B1A404FF0204307
:1017A000C3F88020704701460020102903D14FF074
:1017B0002042506F02E0604A14321068704710B542
:1017C000F2B1102807D14FF020435B6E0B434FF06E
:1017D0002044636632E0B0F5807F08D1564B1B1D74
:1017E0001B680B434FF02044C4F8843026E0524B72
:1017F00024331B680B434FF02044C4F8A4301DE091
:10180000102807D14FF020435B6E8B434FF02044EC
:10181000636613E0B0F5807F08D1474B1B1D1B6842
:101820008B434FF02044C4F8843007E0424B24330C
:101830001B688B434FF02044C4F8A43010BD10B592
:10184000024600200023102A03D14FF02044636E8B
:1018500009E0B2F5807F03D1374C241D236802E0F4
:10186000354C2434236803EA01040CB1012000E064
:10187000002010BD102807D14FF02042526E8A433D
:101880004FF020435A6613E0B0F5807F08D12A4A12
:10189000121D12688A434FF02043C3F8842007E0EA
:1018A000254A243212688A434FF02043C3F8A4200B
:1018B000704770B502460020002300240025102A3E
:1018C00003D14FF02046736E09E0B2F5807F03D15B
:1018D000194E361D336802E0174E2436336803EA8A
:1018E000010403EAD10514B10DB1012000E000208C
:1018F00070BD102808D14FF02042526E22EAD1026A
:101900004FF020435A6615E0B0F5807F09D10A4AAE
:10191000121D126822EAD1024FF02043C3F884203E
:1019200008E0054A2432126822EAD1024FF020432F
:10193000C3F8A42070470000800000A0BFFF0F0084
:1019400010B50446BE48844208D101218014FFF737
:10195000A3FA0021A014FFF79FFA16E0B9488442C9
:1019600008D101210014FFF7A4FA00212014FFF789
:10197000A0FA0AE0B448844207D10121C013FFF75E
:1019800098FA0021E013FFF794FA10BD10B5002279
:10199000028802F441520B884C8823438C882343ED
:1019A000CC8823430C8923434C8923438C892343CC
:1019B000CC8923431A430280838B4FF2FF74234068
:1019C00083830B8A038210BD2DE9F04F85B0054655
:1019D0000C464FF0000902274FF000084FF0010BB2
:1019E0000026B246A88B4FF240010840A88302208F
:1019F0002884B5F81C90A068022801D100BF38E007
:101A0000A08810B94FF0010B01E04FF0020B8D4898
:101A1000854200D100E000BF6846FFF7B6F9DDF867
:101A200000A0E088B0F5007F0AD14FEA1A2000EB51
:101A300080004000A168B0FBF1F0401D86B20BE0D1
:101A40004FEA4B10BAFBF0F000EB80004000A168B9
:101A5000B0FBF1F0401D86B20A20B6FBF0F606F0AE
:101A60000108A6EB0800C0F34F074FF6FF7000EA2D
:101A70000828022F01DBFF2F02DD02274FF00008AC
:101A8000E08840EA080038432884A088A1890843F8
:101A9000618808432188084340F4006040EA09094E
:101AA000A5F81C9005B0BDE8F08F002101804180B1
:101AB0008180C180018141818181C18107210182B1
:101AC00070470021018041808180C18002218160B6
:101AD00000218181704721B1028842F040020280DA
:101AE00004E002884FF6BF731A400280704721B1AC
:101AF000828B42F48062828304E0828B4FF6FF3354
:101B00001A408283704730B5002400230C11012550
:101B1000A540ABB21AB185881D43858002E0858857
:101B20009D43858030BD1AB183880B43838002E0DA
:101B300083888B4383807047818170470146888901
:101B400070474FF6FF62914204D0028842F48072DF
:101B5000028004E002884FF6FF631A40028070475B
:101B600021B1828842F00402828004E082884FF62C
:101B7000FB731A408280704702884FF2FF731A404D
:101B8000028002880A4302807047018841F4805134
:101B90000180704721B1028842F40052028004E0C3
:101BA00002884DF6FF731A400280704702460020FB
:101BB000012901D0108B00E0908A70470146088A05
:101BC0007047B1F5804F04D1028842F48042028010
:101BD00004E002884BF6FF731A4002807047024609
:101BE000002013890B400BB1012000E0002070475A
:101BF000CA4302817047F0B502460020002400234A
:101C0000002501F00F070126BE40B4B20B110126DA
:101C10009E40B3B2968806EA03051689264016B19F
:101C20000DB1012000E00020F0BD10B5002201F050
:101C30000F040123A3409AB2D343038110BD0000D7
:101C40000030014000380040003C004010B5044620
:101C5000FE48844208D10121C014FFF71DF900217C
:101C6000E014FFF719F9C4E0B4F1804F08D1012165
:101C70000846FFF71EF900210120FFF71AF9B8E026
:101C8000F348844208D101210220FFF712F9002114
:101C90000220FFF70EF9ACE0EE48844208D10121A2
:101CA0000420FFF706F900210420FFF702F9A0E065
:101CB000E948844208D101210820FFF7FAF8002101
:101CC0000820FFF7F6F894E0E448844208D10121A7
:101CD0001020FFF7EEF800211020FFF7EAF888E067
:101CE000DF48844208D101212020FFF7E2F80021DB
:101CF0002020FFF7DEF87CE0DA48844208D1012199
:101D00004014FFF7C9F800216014FFF7C5F870E030
:101D1000D548844209D10121C804FFF7BDF800214C
:101D20004FF40020FFF7B8F863E0D048844209D1AF
:101D300001210805FFF7B0F800214FF48010FFF7EC
:101D4000ABF856E0CA48844209D101214805FFF7A3
:101D5000A3F800214FF40010FFF79EF849E0C548B2
:101D6000844208D101214020FFF7A3F80021402040
:101D7000FFF79FF83DE0C048844208D10121802050
:101D8000FFF797F800218020FFF793F831E0BB4878
:101D9000844208D101218015FFF78BF80021A0159E
:101DA000FFF787F825E0B648844209D101210804ED
:101DB000FFF772F800214FF48030FFF76DF818E05C
:101DC000B048844209D101214804FFF765F8002199
:101DD0004FF40030FFF760F80BE0AB48844208D1C5
:101DE00001218804FFF758F800214FF48020FFF705
:101DF00053F810BD00220288944B98420ED0994BA4
:101E000098420BD0B0F1804F08D0914B984205D04A
:101E1000904B984202D0904B984204D14FF68F736A
:101E20001A404B881A438D4B984207D08C4B9842EE
:101E300004D04FF6FF431A40CB881A4302808B88A8
:101E400083850B880385814B98420BD0854B984244
:101E500008D08B4B984205D08A4B984202D08A4BCF
:101E6000984201D10B7A038601238382704770B5B3
:101E7000002400220023058C4FF6FE7635400584B1
:101E8000028C8388048B4FF68F752C40B51E2C4036
:101E90000D882C43751E2A400D892A434D882A43FC
:101EA0006A4DA8420BD06F4DA84208D0744DA8428D
:101EB00005D0744DA84202D0734DA84213D14FF6FD
:101EC000F7752A404D892A434FF6FB752A408D88C5
:101ED0002A434FF6FF652B404FF6FF552B408D8967
:101EE0002B43CD892B4383800483CD888586028450
:101EF00070BD70B5002400220023058C4FF6EF76EC
:101F000035400584028C8388048B48F6FF752C408D
:101F10004FF6FF452C400D884FF6FF7606EA052563
:101F20002C434FF6DF752A400D8906EA05152A4332
:101F30004D8806EA05152A43444DA84202D0494D72
:101F4000A8421DD14FF67F752A404D894FF6FF7686
:101F500006EA05152A434FF6BF752A408D8806EA22
:101F600005152A434FF6FF352B404FF2FF752B40E6
:101F70008D8906EA85052B43CD8906EA85052B4325
:101F800083800483CD880587028470BD70B50024EA
:101F900000220023058C4FF6FF6635400584028C35
:101FA0008388848B4FF68F752C404FF6FC752C4040
:101FB0000D882C434FF6FF552A400D894FF6FF76CA
:101FC00006EA05252A434D8806EA05252A431F4DC2
:101FD000A84202D0234DA8421DD14FF2FF752A40DE
:101FE0004D894FF6FF7606EA05252A434FF6FF3561
:101FF0002A408D8806EA05252A434EF6FF752B40B8
:102000004DF6FF752B408D8906EA05152B43CD89CA
:1020100006EA05152B4383808483CD888587028457
:1020200070BD70B5002200230024058C4EF6FF76AB
:1020300035400584038C8488828B48F6FF752A40DE
:102040004FF6FF452A400D8820E00000002C01409B
:102050000004004000080040000C00400010004058
:102060000014004000340140004C01400050014089
:102070000054014000180040001C004000200040B7
:102080000040014000440140004801404FF6FF7607
:1020900006EA05252A434DF6FF752B400D8906EA11
:1020A00005352B434D8806EA05352B43FA4DA842EA
:1020B00002D0FA4DA84208D14BF6FF752C408D890D
:1020C0004FF6FF7606EA85152C4384808283CD88FF
:1020D000A0F84050038470BD828B4FF2FF331A404A
:1020E0008283828B4FF6FF7303EA01231A438283B4
:1020F0007047F0B50C461546002200210026078CDB
:102100004EF6FF7C07EA0C070784828B018C4FF6A2
:10211000FF7707EA043640F6FF473A404FF6FF776D
:1021200007EA05273A434FF6FF7707EA03373A43B2
:10213000D94FB8420ED0D94FB8420BD0B0F1804F32
:1021400008D0D74FB84205D0D64FB84202D0D64FAC
:10215000B84206D14DF6FF77394046F480573943EF
:1021600005E047F6FF57394044F4805739438283EE
:102170000184F0BD828B4FF6F3731A408283828B09
:102180000A4382837047F0B50C46154600220021B1
:102190000026078C4FF6FF6C07EA0C070784828B3A
:1021A000018C4FF6FF7707EA04264FF60C773A408A
:1021B0004FF6FF7707EA03172F433A43B64FB8426B
:1021C0000ED0B64FB8420BD0B0F1804F08D0B44F0C
:1021D000B84205D0B34FB84202D0B34FB84206D18F
:1021E0004FF6FF57394046F48077394305E04FF208
:1021F000FF57394044F48077394382830184F0BD2E
:10220000028B4FF2FF331A400283028B4FF6FF73AB
:1022100003EA01231A4302837047F0B50C461546C2
:10222000002200210026078C4FF6EF7C07EA0C07FE
:102230000784028B018C4FF6FF7707EA041640F6FD
:10224000FF473A404FF6FF7707EA03373A434FF626
:10225000FF7707EA05273A438F4FB8420ED08F4FDA
:10226000B8420BD0B0F1804F08D08D4FB84205D0A6
:102270008C4FB84202D08C4FB84206D14FF6DF7770
:10228000394046F01007394305E04FF65F77394093
:1022900044F01007394302830184F0BD028B4FF6EE
:1022A000F3731A400283028B0A4302837047F0B52E
:1022B0000C46154600220021068C4FF6FE773E4064
:1022C0000684028B018C4FF60C7632407E1C06EAA7
:1022D00003162E433243704EB0420ED06F4EB042C2
:1022E0000BD0B0F1804F08D06D4EB04205D06D4E8E
:1022F000B04202D06C4EB04206D14FF6FD7631406E
:1023000044F00106314305E04FF6F576314044F0E4
:102310000106314302830184F0BD70B505460C46C9
:102320005D4885420ED05D4885420BD0B5F1804FA7
:1023300008D05B48854205D05A48854202D05A48A9
:10234000854200D100E000BF208850B92389A288CF
:1023500061882846FFF7ABFFE1882846FFF79EFF1C
:1023600025E0208804280AD12389A288618828468C
:10237000FFF753FFE1882846FFF742FF17E0208868
:1023800008280AD12389A28861882846FFF7FBFE26
:10239000E1882846FFF7EEFE09E02389A2886188DC
:1023A0002846FFF7A6FEE1882846FFF795FE70BD98
:1023B0002DE9F04105460C4600260127608808B942
:1023C000022600E00026A088012801D1022700E0B3
:1023D00001272088A0B92389A28861882846FFF7B1
:1023E00066FFE1882846FFF759FF23893A463146C0
:1023F0002846FFF712FFE1882846FFF701FF13E0A8
:102400002389A28861882846FFF707FFE1882846CC
:10241000FFF7F6FE23893A4631462846FFF747FF85
:10242000E1882846FFF73AFFBDE8F0810A884B882B
:102430001A438B881A43CB881A430B891A434B895A
:102440001A438B891A43A0F8442070474FF6FF7156
:10245000818000210180C18041800172704700218C
:10246000018041808180C180018141818181C18160
:102470007047002101804180012181800021C180BD
:10248000018170470021018041808180C1800181EC
:102490004181818170470000002C014000340140DF
:1024A0000004004000080040000C004021B10288F8
:1024B00042F00102028004E002884FF6FE731A40E7
:1024C0000280704731B1B0F8442042F40042A0F8D5
:1024D000442005E0B0F84420C2F30E02A0F84420E6
:1024E00070471AB183890B43838102E083898B4350
:1024F000838170478182704741EA0203A0F8483027
:1025000070471AB183890B43838102E083898B432F
:102510008381704701894FF6F8721140018170473D
:102520000A46002101894FF68F731940114301813A
:10253000704730B504460D4629462046FFF7F0FFA8
:10254000208940F00700208130BD2DE9F04104468C
:102550000D4616461F46602D06D13B4601223146E8
:102560002046FFF75AFE05E03B4601223146204651
:10257000FFF79DFE29462046FFF7D2FF208940F055
:1025800007002081BDE8F08130B50C4600210189AB
:10259000C9B24FF6FF7505EA0325154325432943C4
:1025A000018130BD2DE9F04105460E46174698469B
:1025B000002443463A4631462846FFF7E5FF2C897A
:1025C0004FF6F870044044F007044FF68F70044053
:1025D00044F070042C81BDE8F081F0B504460D464E
:1025E00016461F463B46324629462046FFF7CCFF9B
:1025F000208940F480402081F0BD018582827047AF
:102600000A46002101884FF68F731940114301805B
:102610007047F0B50C4615461E46002100220023E7
:102620000189028B038C4FF6F877394021434FF62E
:10263000FC473A4040F201173A434FF6DD773B4002
:102640004FF6FF7707EA06172F433B4301810283CA
:102650000384F0BD0A460021018B4FF68F731940A9
:102660001143018370470A460021018B48F6FF732E
:1026700019404FF6FF7303EA0223194301837047A1
:102680000A460021818B4FF68F73194011438183D5
:1026900070470A460021818B48F6FF7319404FF6B8
:1026A000FF7303EA022319438183704721B1028833
:1026B00042F08002028004E002884FF67F731A40E5
:1026C0000280704721B1828842F00402828004E0D7
:1026D00082884FF6FB731A408280704721B182884E
:1026E00042F00802828004E082884FF6F7731A40B5
:1026F0008280704721B1828842F00102828004E02A
:1027000082884FF6FE731A40828070470A46002185
:10271000018B4FF6F77319401143018370470A4646
:102720000021018B4FF2FF7319404FF6FF7303EA4C
:1027300002231943018370470A460021818B4FF61B
:10274000F77319401143818370470A460021818B3A
:102750004FF2FF7319404FF6FF7303EA0223194348
:10276000818370470A460021018B4FF6FB731940A5
:102770001143018370470A460021018B4FF6FF3356
:1027800019404FF6FF7303EA022319430183704790
:102790000A460021818B4FF6FB7319401143818358
:1027A00070470A460021818B4FF6FF3319404FF6E0
:1027B000FF7303EA02231943818370470A4600210D
:1027C000018B4FF67F7319401143018370470A460E
:1027D0000021018BC1F30E014FF6FF7303EA0223C0
:1027E0001943018370470A460021818B4FF67F739E
:1027F00019401143818370470A460021818BC1F340
:102800000E014FF6FF7303EA0223194381837047D9
:102810000A460021018C4FF6FD73194011430184D3
:1028200070470A460021018C4FF6F7731940114397
:10283000018470470A460021018C4FF6DF7319406E
:102840004FF6FF7303EA02131943018470470A46E7
:102850000021018C4FF67F7319404FF6FF7303EA96
:1028600002131943018470470A460021018C4FF678
:10287000FF5319404FF6FF7303EA02231943018403
:1028800070470A460021018C4FF2FF7319404FF642
:10289000FF7303EA02231943018470470A460021AB
:1028A000018C4DF6FF7319404FF6FF7303EA0233B4
:1028B00019430184704730B5002301248C40A3B232
:1028C000048C9C430484048C02FA01F5ADB22C43C1
:1028D000048430BD30B5002304248C40A3B2048CA2
:1028E0009C430484048C02FA01F5ADB22C430484A9
:1028F00030BD70B50346002000241846183001256D
:102900008D40ACB21D8CA5431D8409B1082909D1A5
:1029100000EB6100056825F070050560056815434A
:1029200005600EE00D1FC5F34E052844056825F42B
:10293000E045056005684FF6FF7606EA0226354356
:10294000056070BD21B1028842F00202028004E0FD
:1029500002884FF6FD731A400280704721B1028849
:1029600042F00402028004E002884FF6FB731A4032
:102970000280704721B1828842F08002828004E0A8
:1029800082884FF67F731A408280704702884FF624
:10299000F7731A40028002880A43028070478288D7
:1029A0004FF68F731A40828082880A438280704774
:1029B00002894FF6F8731A40028102890A430281A4
:1029C000704702894FF67F731A40028102890A43D9
:1029D0000281704781847047818570478186704786
:1029E0000187704781877047A0F8401070470288C0
:1029F0004FF6FF431A40028002880A430280704764
:102A00000146888E70470146088F70470146888FBF
:102A100070470146B1F8400070470146888C704706
:102A20000146088D704702460020138A0B400BB107
:102A3000012000E000207047CA430282704730B591
:102A40000246002000230024158A05EA0103958927
:102A500005EA010413B10CB1012000E0002030BDF3
:102A6000CA430282704710B500F0BAF810BD70B5C5
:102A70000446002600F0EFF82546E11704EB11614B
:102A80000912A02202EB4101C8B200F066F900F081
:102A900012F9E11704EB11610912A4EB0121C8B28C
:102AA00000F05BF900F007F900F0D5F8A12000F084
:102AB00054F900F000F9002000F07CF9064600F01F
:102AC000E3F8304670BD70B504460E4600F0C3F81A
:102AD0002546E11704EB11610912A02202EB410126
:102AE000C8B200F03AF900F0E6F8E11704EB116122
:102AF0000912A4EB0121C8B200F02FF900F0DBF8B5
:102B0000304600F02AF900F0D6F800F0BDF80A20AF
:102B100001F0F6FC70BD2DE9F04105460E46174662
:102B2000002409E0E20026FA02F2D1B22A1990B29A
:102B3000FFF7C9FF601CC4B2BC42F3DBBDE8F08103
:102B40002DE9F04107460C460026002509E0360233
:102B50003919491B491E88B2FFF789FF0644681CD2
:102B6000C5B2A542F3DB3046BDE8F08110B5FF20C9
:102B7000FFF77DFF0446362C01D1002010BD362121
:102B8000FF20FFF7A0FFFF20FFF771FF0446362C60
:102B900001D10020F2E70120F0E770B506460C46AF
:102BA000154608E03046721C96B2FFF760FF04F845
:102BB000010B681E85B2002DF4D170BD70B50546BD
:102BC0000C46164606E021782846FFF77CFF681C75
:102BD00085B2641C3000A6F101018EB2F3D170BD44
:102BE00008B501210820FEF73DF94020ADF80000AE
:102BF00003208DF8020010208DF8030069468148FB
:102C0000FDF774FE8020ADF8000069467D48FDF7B1
:102C10006DFE01207C4908607C49C1F89C0108BD1B
:102C200008B58020ADF8000003208DF802001020C8
:102C30008DF8030069467348FDF758FE08BD08B5D6
:102C40008020ADF8000048208DF8030069466D48EB
:102C5000FDF74CFE08BD10B5FFF7E2FF01206A4901
:102C6000091D08606949C1F89801052001F01DFCA3
:102C700000206549091D0860062001F016FC0020AF
:102C80006249C1F8980110BD10B5FFF7C9FF0020D7
:102C90005D4908605D49C1F89C0101205A490860FE
:102CA000062001F002FC01205849C1F89C010620D1
:102CB00001F0FBFB10BD10B50024FFF7C0FF0120A1
:102CC0005149091D086001F0F0FB01204F49C1F88E
:102CD000980101F0EAFB07E0601CC4B2FA2C03DDA6
:102CE000FFF7D2FF012010BD47487C38006800285C
:102CF000F2D14549086000BFF5E710B50020424910
:102D00000860FFF78DFF00204049C1F89C010220B8
:102D100001F0CBFB01203C490860052001F0C5FB18
:102D200000203A49C1F8980110BD10B5002036497D
:102D30000860FFF775FF01203449C1F89C010220AB
:102D400001F0B3FB012030490860052001F0ADFB24
:102D500000202E49C1F8980110BD70B50446FFF758
:102D60005FFF002028490860002520E004F0800073
:102D7000002804DD01202449091D086003E000202B
:102D80002149091D08606006040E022001F08DFB38
:102D900001201D490860022001F087FB00201B492B
:102DA000C1F89801022001F080FB681CC5B2082D13
:102DB000DCDB70BD70B505460024FFF740FF002640
:102DC00016E0002010490860022001F06EFB01208F
:102DD0000E49C1F898016006040E0B487C38006863
:102DE00008B1601CC4B2012001F05FFB701CC6B2C8
:102DF000082EE6DB15B9FFF798FF01E0FFF77DFF2E
:102E0000204670BD000C0140988121420080214283
:102E100008B501211020FEF725F8FF20ADF80000CD
:102E200010208DF8030003208DF802006946044845
:102E3000FDF75CFDFF210248FDF705FE08BD00001F
:102E40000010014010B5044600BF02216948FEF79A
:102E5000C6FE0028F9D021466648FEF76DFE00BF89
:102E600001216448FEF7BBFE0028F9D06148FEF757
:102E700065FEC0B210BD00B587B001210420FDF78A
:102E8000F1FF01210803FDF7EDFFE020ADF8180088
:102E900018208DF81B0003208DF81A0006A956484B
:102EA000FDF724FD0020ADF804004FF48270ADF86A
:102EB00006000020ADF808000220ADF80A0001204D
:102EC000ADF80C004002ADF80E003820ADF810004F
:102ED0000020ADF812000720ADF8140001A9454804
:102EE000FEF754FD01214348FEF7F5FDFF20FFF7F3
:102EF000A9FF07B000BD10B504463E4800884FF654
:102F0000C77108403B490880084600882043088074
:102F100001213848FEF7DFFD10BD10B5044600BFA3
:102F200002213648FEF75BFE0028F9D021463348DF
:102F3000FEF702FE00BF01213048FEF750FE0028D8
:102F4000F9D02E48FEF7FAFDC0B210BD00B587B02B
:102F500001210820FDF786FF01218803FDF78FFF7F
:102F60004FF46040ADF8180018208DF81B000320C6
:102F70008DF81A0006A92248FDF7B8FC0020ADF82C
:102F800004004FF48270ADF806000020ADF8080090
:102F90000220ADF80A000120ADF80C004002ADF8A7
:102FA0000E003820ADF810000020ADF81200072008
:102FB000ADF8140001A91148FEF7E8FC01210F4803
:102FC000FEF789FDFF20FFF7A8FF07B000BD10B591
:102FD00004460A4800884FF6C77108400749088030
:102FE000084600882043088001210448FEF773FD4D
:102FF00010BD0000003001400008014000380040D2
:10300000000C014000B597B001214FF4F070FDF7BE
:1030100029FF01210802FDF718FF03208DF85A004F
:103020004FF48060ADF8580018208DF85B0016A9A9
:103030003948FDF75BFC0320ADF8580016A9374866
:10304000FDF754FC3020ADF8580016A93448FDF7C0
:103050004DFC4FF60370ADF8580016A93048FDF747
:1030600045FC4FF68070ADF8580016A92B48FDF7C7
:103070003DFC4FF23F00ADF8580016A92948FDF776
:1030800035FC3F20ADF8580016A92348FDF72EFC6B
:10309000032000900020019018200290002003904F
:1030A0000490059006900420079000200890099055
:1030B00010200A9000200B900D900C900E900F9015
:1030C0004FF4805010900020119012901390CDF882
:1030D00050D0CDF854D007A8FEF778F9012104208C
:1030E000FEF7DCFA17B000BD10B506E010F8014B92
:1030F0004FF0D0435C54491C521E002AF6D110BD3B
:1031000006E04FF0D0435B5C00F8013B491C521EC7
:10311000002AF6D17047000000200140001801404D
:1031200000140140001C014008B501214FF4B470A7
:10313000FDF798FE0120ADF8000010208DF8030087
:1031400003208DF802006946FE48FDF7CFFB4CF2E4
:103150003370ADF8000018208DF8030003208DF8BF
:1031600002006946F848FDF7C1FB4FF68070ADF8E4
:10317000000018208DF8030003208DF80200694636
:10318000F248FDF7B3FB41F20100ADF80000182052
:103190008DF8030003208DF802006946EC48FDF726
:1031A000A5FB08BD00B59DB001210802FDF74DFE4D
:1031B00001200790002008900F20099000200A901D
:1031C0000B900C900D90152000900190052002901E
:1031D0000020039004900590069006200E90002099
:1031E0000F901090102011900020129014901390C6
:1031F000159016904FF480501790002018904FF4BF
:103200008040199000201A9007A81B90CDF870D02C
:103210000EA8FEF7DBF801210620FEF73FFA1DB0ED
:1032200000BDCC4908807047CA49891C0880704796
:1032300000B503460A461846FFF7F3FF1046FFF7AE
:10324000F3FF00BDC349891C08807047C148801C3A
:103250000088704700B502467AB93620FFF7E1FFD3
:103260000020FFF7E1FF4FF4F070BB4948804FF4B6
:10327000A0700880002088710EE03620FFF7D1FF93
:103280006020FFF7D1FF4FF4A070B34948804FF49E
:10329000F07008800120887100BD70B504460D46AD
:1032A0002A20FFF7BEFF2646E11704EB1161C1F3A8
:1032B0000F20FFF7B9FFE11704EB11610912A4EB2E
:1032C000012188B2FFF7B0FF1646D11702EB11615A
:1032D000C1F30F20FFF7A8FF1646D11702EB1161CB
:1032E0000912A2EB012188B2FFF79EFF2B20FFF706
:1032F00098FF2E46E91705EB1161C1F30F20FFF788
:1033000093FFE91705EB11610912A5EB012188B2C2
:10331000FFF78AFF1E46D91703EB1161C1F30F2097
:10332000FFF782FF1E46D91703EB11610912A3EBC9
:10333000012188B2FFF778FF2C20FFF772FF70BDE4
:1033400070B5064684484088401E83B28248008893
:10335000401E82B200210846FFF79FFF00240CE0C8
:10336000002504E03046FFF76DFF681C85B27A48FF
:103370004088A842F6DC601C84B277480088A042EE
:10338000EEDC70BD10B5FFF7CFFEFFF70BFF32206C
:1033900001F0B6F8D320FFF744FF6E48801C008888
:1033A0006D4988806B48801C008888806948801C33
:1033B00000888880084680884FF6FF7101EA002067
:1033C00065498880084680886249891C09880843C5
:1033D000614988800846818860A00BF053FCB020CA
:1033E000FFF71FFF0020FFF71FFF1120FFF719FF56
:1033F000142001F085F8B320FFF713FF0220FFF738
:1034000013FF0020FFF710FF0020FFF70DFF002043
:10341000FFF70AFFC020FFF704FF1020FFF704FFAB
:103420003B20FFF701FF0020FFF7FEFE0220FFF721
:10343000FBFE0020FFF7F8FE0120FFF7F5FE00205D
:10344000FFF7F2FE4320FFF7EFFEC120FFF7E9FE92
:103450001020FFF7E9FE1020FFF7E6FE0820FFF737
:10346000E3FE0820FFF7E0FEC420FFF7DAFE11209C
:10347000FFF7DAFE0720FFF7D7FE0320FFF7D4FEA1
:103480000320FFF7D1FEC620FFF7CBFE0020FFF799
:10349000CBFEC820FFF7C5FE0320FFF7C5FE0320C3
:1034A000FFF7C2FE1320FFF7BFFE5C20FFF7BCFE54
:1034B0000320FFF7B9FE0720FFF7B6FE1420FFF741
:1034C000B3FE0820FFF7B0FE0020FFF7ADFE21207D
:1034D000FFF7AAFE0820FFF7A7FE1420FFF7A4FEBF
:1034E0000720FFF7A1FE5320FFF79EFE0C20FFF7F9
:1034F0009BFE1320FFF798FE0320FFF795FE0320A5
:10350000FFF792FE2120FFF78FFE0020FFF78CFED1
:103510003520FFF786FE0020FFF786FE3620FFF7F6
:1035200080FE0020FFF780FE3A20FFF77AFE55204C
:10353000FFF77AFE4420FFF774FE0020FFF774FEC9
:10354000012013E0000C014000140140001801406C
:1035500000200140FE07006C2C000020204C43445A
:103560002049443A25780D0A00000000FFF75CFE70
:10357000B620FFF756FE0020FFF756FE2220FFF789
:1035800053FE3B20FFF750FED020FFF74AFE0720F6
:10359000FFF74AFE0720FFF747FE1D20FFF744FE16
:1035A000D120FFF73EFE0020FFF73EFE0320FFF78D
:1035B0003BFE0020FFF738FED220FFF732FE03204B
:1035C000FFF732FE1420FFF72FFE0420FFF72CFE3A
:1035D0002920FFF726FE142000F092FFB420FFF709
:1035E00020FE0020FFF720FE142000F089FF2C2091
:1035F000FFF717FE0120FFF72DFE4FF6FF70FFF7D4
:103600009FFE10BD2DE9F04304460D4616461F46A9
:10361000DDF81C80B44201DCBD4201DDBDE8F08371
:103620003B46324629462046FFF737FE301B401CFA
:1036300084B2781B401C85B20BE0A94602E04046EC
:10364000FFF700FE5FEA0900A9F101011FFA81F905
:10365000F5D12000A4F101018CB2EED100BFDDE76D
:1036600030B504460D462B46224629462046FFF734
:1036700014FEF9480088FFF7E5FD30BD70B504463B
:103680000D4616462B46224629462046FFF705FEE4
:103690003046FFF7D7FD70BD2DE9F04104460D46D9
:1036A00000260027B046ED480088A04203DDEB4825
:1036B0004088A84202DC0020BDE8F0812B4622466B
:1036C00029462046FFF7E9FD2E20FFF7AAFDFFF768
:1036D000BDFD0646FFF7BAFD0646FFF7B7FD80467B
:1036E000FFF7B4FD0746F012C002B91240EA4110DC
:1036F00040EAE820E0E72DE9FF4F84B081468A46A2
:103700000020039002900698A0EB09050798A0EB13
:103710000A06CDF80490CDF800A0002D01DD0127A8
:1037200005E00DB9002702E04FF0FF376D42002E93
:1037300002DD4FF0010806E016B94FF0000802E084
:103740004FF0FF387642B54201DD2C4600E03446AA
:103750004FF0000B21E0009A91B2019A90B2FFF76E
:103760007FFF039828440390029830440290039806
:10377000A04205DD0398001B039001983844019096
:103780000298A04205DD0298001B02900098404478
:1037900000900BF101001FFA80FB601C8345DADD0D
:1037A00008B0BDE8F08F2DE9FF4F84B081468A460E
:1037B0000020029083460698A0EB09050798A0EB2D
:1037C0000A06CDF80490CDF800A0002D01DD0127F8
:1037D00005E00DB9002702E04FF0FF376D42002EE3
:1037E00002DD4FF0010806E016B94FF0000802E0D4
:1037F0004FF0FF387642B54201DD2C4600E03446FA
:10380000002003901EE0009A91B2019A90B2119AA2
:10381000FFF734FF029828440290B3440298A04274
:1038200005DD0298001B0290019838440190A345E1
:1038300004DDABEB040B0098404400900398401C5F
:1038400080B20390611C03988842DCDD08B0BDE8BB
:10385000F08FF0B504460D46174605F1010C1FFA2E
:103860008CF304F1010C1FFA8CF2A5F1010C1FFA84
:103870008CF1A4F1010C1FFA8CF0FFF70EFD00266D
:1038800004E03846FFF7DEFC701CC6B2092EF8DBF8
:10389000211D8AB2211F88B22B462946FFF7FDFC65
:1038A000002604E03846FFF7CDFC701CC6B2092E96
:1038B000F8DB281D83B2281F81B222462046FFF77D
:1038C000ECFC002604E03846FFF7BCFC701CC6B2D6
:1038D000092EF8DBF0BDF0B504460D4616461F462E
:1038E0002B46324629462046FFF705FF3B46224637
:1038F00029462046FFF7FFFE3B4632463946204622
:10390000FFF7F9FE3B46324629463046FFF7F3FE05
:10391000F0BD2DE9F04306460F469046002445468B
:103920000320A0EB48093CE07A1B91B2321990B217
:10393000FFF796FE3A1B91B2721990B2FFF790FE14
:103940003A1991B2721990B2FFF78AFE7A1991B2C0
:10395000321990B2FFF784FE7A1991B2321B90B2FD
:10396000FFF77EFE3A1991B2721B90B2FFF778FE14
:103970007A1B91B2321B90B2FFF772FE3A1B91B2E2
:10398000721B90B2FFF76CFE641CB9F1000F03DAF2
:10399000A000801D814404E0601B80000A30814447
:1039A0006D1EAC42C0DDBDE8F0832DE9F84F8046C6
:1039B0000E4617461C46B3462046E31704EB5373E6
:1039C000DB1021464FEAE47C04EB5C7C4FEAEC0C14
:1039D000A4EBCC0CBCF1000F02D04FF0010C01E0C5
:1039E0004FF0000C6344224604EBD27C4FEA6C0C8F
:1039F00003FB0CF3DBB20093A7F12000C7B2002554
:103A000060E00C2C07D107EB4700154901EB800063
:103A100010F8059013E0102C05D1124800EB0710A8
:103A200010F805900BE0182C07D107EBC7000E49E2
:103A300001EB800010F8059001E0BDE8F88F4FF031
:103A4000000A39E009F0800080B10348028831465D
:103A50004046FFF713FE11E0280000202C00002054
:103A60004E230208C2270208B22D02080A9828B97C
:103A7000D848028831464046FFF700FE4FEA4960C9
:103A80004FEA1069701C86B2D3484088B04200DC0F
:103A9000D3E7A6EB0B00A0420AD15E4608F1010075
:103AA0001FFA80F8CC480088404500DCC5E706E0F6
:103AB0000AF1010000F0FF0ABAF1080FC2DB00BFF3
:103AC000681CC5B2009885429BDB00BFB5E710B506
:103AD0000246012000E050430B00A1F10104E1B2D5
:103AE000F9D110BD2DE9FF4F81B0074691461E4622
:103AF0000E9D4FF0000A002439E0301B401EC1B279
:103B00000A20FFF7E4FFB9FBF0F00A21B0FBF1F265
:103B100001FB1208BAF1000F16D1701EA04213DD8E
:103B2000B8F1000F0ED10020AB4605EBDB71491058
:103B300001FB0471009088B22B4620220299FFF706
:103B400034FF12E04FF0010A0020AB4605EBDB71B9
:103B5000491001FB0471009088B208F13001CAB22B
:103B60002B460299FFF721FF00BF601CC4B2B4428C
:103B7000C3DB05B0BDE8F08F2DE9FF4F82B00646EC
:103B800092461F46DDE90F480020019000254DE0D8
:103B9000781B401EC1B20A20FFF799FFBAFBF0F074
:103BA0000A21B0FBF1F201FB1209019850BB781E0B
:103BB000A84227DDB9F1000F22D108F0800078B1CA
:103BC00008F00100A34604EBDB71491001FB05611D
:103BD000009088B2234630220399FFF7E6FE0EE0FC
:103BE00008F00100A34604EBDB71491001FB0561FD
:103BF000009088B2234620220399FFF7D6FE13E0F7
:103C00000120019008F00100A34604EBDB7149108C
:103C100001FB0561009088B209F13001CAB2234668
:103C20000399FFF7C2FE00BF681CC5B2BD42AFDBFF
:103C300006B0BDE8F08F2DE9F84704460D469046E2
:103C40009946DDE9096704F0FF0A08EB04001FFA52
:103C500080F809EB05001FFA80F916E0444502DB05
:103C60005446A81985B24D4500DB14E000200090B1
:103C70003A78334629462046FFF797FE304606EB52
:103C8000D07104EB61018CB27F1C38787E2802DC95
:103C900038782028E2DA00BFBDE8F8872DE9F84F30
:103CA00004460F461546A346009760E0002657E0FD
:103CB00006EB8600C0EB8610484911F81000297801
:103CC00088424BD106EB8600C0EB8610434901EBDE
:103CD000400040786978884240D14FF000083AE0CF
:103CE00006EB8600C0EB86103C4901EB4000801CCF
:103CF00010F808A04FF0000926E00AF080008028A4
:103D000006D13748028839462046FFF7B7FC05E060
:103D10003048028839462046FFF7B0FC4FF6FF7066
:103D200000EA4A0A601C84B2A4EB0B00202807D1E9
:103D30005C46781C87B20098381A1D2800D1009F75
:103D400009F1010000F0FF09B9F1080FD5DB08F116
:103D5000010000F0FF08B8F1740FC1DB701CC6B29F
:103D6000142EA5DBAD1C04F1200084B2A3462878F4
:103D700000289BD1BDE8F88F2DE9F04F8046894699
:103D800015461E46DDF824A000270024A34609EBB3
:103D90000600401E83B208EB0500401E82B2494671
:103DA0004046FFF77AFA05FB06F04FEA400B00BFEA
:103DB000601C1AF800704FF6FF7000EA07271AF827
:103DC000040007433846FFF73DFAA41C5C45EFDBCF
:103DD000BDE8F08F2A0000202C0000200E3B0208D6
:103DE000280000207FB505460C4601210420FDF780
:103DF00046F8ADF80850ADF804400020ADF80A00D0
:103E0000ADF8060001A95048FDF7F4FF0122114664
:103E10004D48FEF766FB01214B48FEF721FE1E20B0
:103E20008DF8000002208DF8010003208DF80200BB
:103E300001208DF803006846FCF78FFC0121424801
:103E4000FEF734FB7FBD10B501213F48FEF7F7FDBB
:103E500038B13E48006808B9012000E000203B4925
:103E6000086001213848FEF7FBFD10BD7FB5044610
:103E70000D4601210220FDF702F8ADF804500020A4
:103E8000ADF80600ADF80840ADF80A0001A93048C9
:103E9000FDF7B0FF012211462D48FEF722FB1D2041
:103EA0008DF8000000208DF8010003208DF802003D
:103EB00001208DF803006846FCF74FFC01212448DF
:103EC000FEF7F4FA7FBD10B501212148FEF7B7FDDA
:103ED00001211F48FEF7C4FD10BD7FB504460D4605
:103EE00001211020FCF7CBFFADF804500020ADF805
:103EF0000600ADF80840ADF80A0001A91548FDF725
:103F000079FF012241211348FEF7EBFA36208DF8A4
:103F1000000001208DF8010003208DF8020001202F
:103F20008DF803006846FCF718FC01210948FEF7EC
:103F3000BDFA7FBD10B501210648FEF780FD0121C5
:103F40000448FEF78DFD10BD0008004084012242A8
:103F500000040040001000402DE9FE438046182078
:103F6000FEF7C9FF002425E00020FE490860404616
:103F7000FEF768FFFF20FEF765FF2DF814003DF8FF
:103F800014004FF6FF7101EA00202DF81400FF2005
:103F9000FEF758FF3DF8141008432DF814003DF8C3
:103FA0001400C0102DF814000120EF49C1F8980149
:103FB000601CC4B2052CD7DB002416E0601CC5B21F
:103FC0000FE03DF814003DF81510884207DA3DF87F
:103FD00014603DF815002DF814002DF81560681CCC
:103FE000C5B2052DEDDB601CC4B2042CE6DB042554
:103FF0000027012404E03DF814000744601CC4B20B
:10400000AC42F8DB0320B7FBF0F086B23046BDE8E7
:10401000FE832DE9F04704460D46D020FFF79CFFB4
:1040200006469020FFF798FF0746D020FFF794FF41
:1040300080469020FFF790FF8146464503DDA6EBC2
:104040000800208002E0A8EB060020804F4503DD39
:10405000A7EB0900288002E0A9EB07002880208850
:10406000142802DC2888142802DDFF20BDE8F08730
:1040700006EB080000EBD071C1F34F01218007EB84
:10408000090000EBD071C1F34F0129802088B0F501
:104090007A6F09DC2088642806DB2888B0F57A6FFF
:1040A00002DC2888642801DAFF20DFE70020DDE752
:1040B0002DE9F0478046894614461D46AB480088E6
:1040C000FFF73EF94FF4784249464046FFF7C1FBFF
:1040D00000261DE029462046FFF79BFF60B9701CB3
:1040E000C6B20A2E08DDA148028849464046FFF7BD
:1040F000B0FB0020BDE8F0877F1C17F1020F07D945
:104100009A48028849464046FFF7A3FBFF20F1E7A3
:10411000E0E72DE9F04387B001AB03AA0A21084686
:10412000FFF7C6FF10B107B0BDE8F0834FF4FA7097
:1041300000F0E6F98E4840880A3881B20DF1060396
:104140000DF10E020A20FFF7B3FF00B1EBE74FF4C9
:10415000FA7000F0D5F9864909880A3988B202ABAD
:1041600004AA0A21FFF7A4FF00B1DCE74FF4FA70BC
:1041700000F0C6F97E4A52880A3A91B27C4A128807
:104180000A3A90B20DF10A030DF11202FFF790FF07
:1041900000B1C8E74FF4FA7000F0B2F9BDF80C10A6
:1041A000BDF80E20881800EBD071C1F34F01ADF8B7
:1041B0001810BDF80410BDF80820881800EBD07165
:1041C000C1F34F01ADF81410BDF81210BDF8102066
:1041D000881800EBD071C1F34F01ADF81A10BDF88B
:1041E0000A10BDF80620881800EBD071C1F34F010A
:1041F000ADF81610BDF81A10BDF81820881A1DF079
:1042000039FF06465A490988A1F114001DF032FF12
:10421000074631461DF030FE0446BDF81610BDF8C5
:104220001420881A1DF026FF064651494988A1F13D
:1042300014001DF01FFF074631461DF01DFE054608
:10424000BDF81A001DF02EFF814621461DF03EFFED
:104250000746474909880A3908B21DF00BFF804616
:1042600039461DF0FFFF06461DF0C8FE00B2414969
:104270004880BDF816001DF015FF814629461DF047
:1042800025FF07463A4949880A3908B21DF0F2FE6F
:10429000804639461DF0E6FF06461DF0AFFE00B22F
:1042A0003449888008468460C5605920087010220F
:1042B000C820FEF783FC00BF35E708B501212020A8
:1042C000FCF7D0FD4020ADF8000010208DF8030071
:1042D00003208DF8020069462748FCF707FB802081
:1042E000ADF8000048208DF8030069462248FCF72D
:1042F000FDFAFEF7C0FDFEF7B6FB10221D49C820EF
:10430000FEF74BFC1B480078592801D0FFF701FF4E
:1043100008BD2DE9F0411949881EFFF77AFE10B15A
:10432000FF20BDE8F0811349B1F902001DF0A2FEA3
:1043300006461249891E08881DF0B4FE07460D483E
:10434000816838461DF0C2FE054631461DF032FD3B
:1043500004461DF06FFE0949891E88800549B1F9A0
:1043600004000DE098812242008022422A000020B1
:104370002C000020004300200014014036000020E3
:104380001DF078FE0646144948881DF08BFE07464E
:104390001248C16838461DF099FE054631461DF0A9
:1043A00009FD04461DF046FE0B49C880084680887A
:1043B0000B490988884203DD09480088064988803E
:1043C0000548C08806494988884203DD044840887A
:1043D0000149C8800020A4E73400002000430020E9
:1043E0002C00002008B501210820FCF73BFD20200F
:1043F000ADF8000010208DF8030003208DF80200B6
:1044000069460248FCF772FA08BD0000000C014042
:1044100008B5684602F0C2F908BD08B5684602F062
:1044200007FA08BD38B504466A460821204608F058
:10443000F3FC38BD10B543480078012805D102F0DF
:10444000EFF808F075FF02F0FCF810BD70B50446F7
:104450006FF00400FCF7CBF92046E11704EB517133
:10446000C1F3C701384A1170E11704EB5171CD1047
:10447000364800683649B1FBF0F0454333480068E0
:104480004FF47A71B1FBF0F0324908804FF0E02030
:10449000006940F002004FF0E021086108464561E4
:1044A000006940F00100086170BD2DE9F047074642
:1044B00000264FF0E020D0F814902348007807FB46
:1044C00000F800BFFFF7A4FF4FF0E020856911E07E
:1044D0004FF0E0208469AC420CD0AC4202D2281BE1
:1044E000064403E0A9EB040028440644254646455B
:1044F00000D300E0ECE700BFFFF78FFFBDE8F087D7
:1045000070B504460F480078A0B11348007888B908
:1045100010480088844206DB0E48008894FBF0F5C2
:104520002846FFF77FFF0B48008894FBF0F100FB63
:10453000114084B24FF47A7104FB01F0FFF7B5FF2C
:1045400070BD0000910000203C00002044410208A2
:1045500040420F003E00002090000020014600BFB6
:10456000704770B504460D46E1B23B48FCF71AFEB1
:1045700000BF80213848FCF783FE0028F9D0204690
:1045800070BD10B586B00446012144F20400FCF76A
:1045900069FC4FF40070ADF8140003208DF816008C
:1045A00018208DF8170005A92C48FCF79FF94FF447
:1045B0008060ADF8140004208DF8170005A9274885
:1045C000FCF794F925208DF8000003208DF80100F8
:1045D0008DF8020001208DF803006846FCF7BDF855
:1045E00001940020ADF80800ADF80A00ADF80C0009
:1045F000ADF810000C20ADF80E0001A91648FCF72C
:10460000D8FC012240F225511348FCF76AFD012134
:104610001148FCF75AFD06B010BD10B502F000F8C5
:1046200040F225510C48FCF741FE70B10A48FCF7F6
:10463000BDFDC4B221460848FCF7B4FD00BF4021CF
:104640000548FCF71DFE0128F9D140210248FCF77E
:1046500024FE01F0F6FF10BD0038014000080140C3
:1046600070B503460C4603E014F8015B03F8015BE8
:104670001500A2F10102F7D170BD30B5034601E08B
:1046800003F8011B1400A2F10102F9D130BD10B5ED
:1046900004467A4951F824104A00794951F8240017
:1046A0000021FFF7EAFF774951F8242074490839BF
:1046B00051F824000021FFF7E0FF01217048083085
:1046C000015510BD10B501460023002207E06C48DB
:1046D00050F8210030F8120000B15B1C521C6748F2
:1046E00050F821009042F2D864205843634C54F8AB
:1046F0002140B0FBF4F0C0B210BD2DE9F0470446F4
:104700000F460025A9465E480830005D20B95C4888
:1047100010380168204688471FB94FF0FF30BDE8C8
:10472000F087594850F82400B7FBF0F6564850F887
:104730002400B7FBF0F100FB117000B1761C4F486C
:1047400050F82400451E20E04D4850F8240030F871
:10475000150010B909F1010901E04FF00009B14558
:1047600012D14FF0000808E0454850F8240005EB4E
:10477000080220F8126008F10108B045F4D342485D
:1047800050F824006843CAE76D1E002DDCDA4FF0B4
:10479000FF30C4E72DE9F04104460E4638480830A2
:1047A000005D38B936481038016820468847012036
:1047B000BDE8F081334850F82400B04217D93248A0
:1047C00050F82400B6FBF0F12D4850F8240030F8E2
:1047D0001120002507E00023294850F824004F1934
:1047E00020F817306D1C9542F5DB0020E0E7022031
:1047F000DEE770B505460C4604B970BD20480838A0
:1048000050F82500261A31462846FFF7C3FF00BF9F
:10481000F3E770B504460E4631462046FFF76DFFBC
:104820000546681C08B9002070BD1548083850F8C6
:1048300024002844F8E72DE9F04104460F461646C7
:1048400031462046FFF759FF0546681C10B9002085
:10485000BDE8F0810A49083951F824104819324658
:104860003946FFF7FDFE39462046FFF7C2FF0448F0
:10487000083850F824002844EAE70000343F0208D2
:1048800054000020443F02083C3F020800B585B0B8
:104890006846FCF77AFA019805B000BD10B5FFF73D
:1048A000F5FF04461748006840F08070154908601D
:1048B0000020154948600846006840F00100086083
:1048C000204601F06CFC10BD0F49486870472DE987
:1048D000F0478246FFF7DAFF4FF0000980460B4AA7
:1048E0000023404649460AF055F9064632460B4633
:1048F000504600210AF04EF904460D46204629464E
:10490000BDE8F087FCED00E0001000E040420F0041
:104910000146412903DB5A2901DC012200E0002283
:10492000012A08D0612903DB7A2901DC012200E099
:104930000022012A01D1012200E000221046704726
:104940000146412903DB5A2901DC012200E0002253
:10495000012A08D0612903DB7A2901DC012200E069
:104960000022012A01D1012200E00022012A08D000
:10497000302903DB392901DC012200E00022012A71
:1049800001D1012200E00022104670470146612952
:1049900003DB7A2901DC012200E000221046704787
:1049A0000146412903DB5A2901DC012200E00022F3
:1049B000104670470146302903DB392901DC01220A
:1049C00000E00022104670470146302903DB3729FA
:1049D00001DC012200E00022104670470146302928
:1049E00001DB392907DD412901DB462903DD612986
:1049F00003DB662901DC012200E00022104670473B
:104A00000146202901D0092901D1012200E000221C
:104A1000104670470146202909D00D2907D00A29E0
:104A200005D00C2903D0092901D00B2901D101227D
:104A300000E00022104670470146202903DB7E2952
:104A400001DC012200E000221046704701462129C6
:104A500003DB7E2901DC012200E0002210467047C2
:104A60000146202903DB7E2901DC012200E000222F
:104A7000012A35D1202909D00D2907D00A2905D0CE
:104A80000C2903D0092901D00B2901D1012200E012
:104A900000222ABB412903DB5A2901DC012200E064
:104AA0000022012A08D0612903DB7A2901DC0122D6
:104AB00000E00022012A01D1012200E00022012AA7
:104AC00008D0302903DB392901DC012200E0002273
:104AD000012A01D1012200E000220AB9012200E0EE
:104AE00000221046704701464AB2002A01DB1F2906
:104AF00001DD7F2901D1012200E00022104670472C
:104B00000146412903DB5A2901DC012200E0002291
:104B1000012A02D101F1200200E00A46D0B270471A
:104B20000146612903DB7A2901DC012200E0002231
:104B3000012A02D1A1F1200200E00A46D0B270475A
:104B4000F0B504460B462046FFF7EAFF0546184637
:104B5000FFF7E6FF0646B54201D1012000E0002044
:104B600007463846F0BD0000FC48FD49016001469B
:104B7000416000218160C160016141618161C16169
:104B800001620163C1624162F6498163C1634FF40E
:104B90008061016441640146F34A116070472DE968
:104BA000F04105460B4694460027002402E03F02F0
:104BB0001F43641C042CFAD3604605F00306294603
:104BC00046B1344603E001F8013B401E641C08B1C5
:104BD000042CF8D30A4601E080C2001F0428FBD24F
:104BE000114602E001F8013B401E0028FAD1BDE861
:104BF000F08130B505460C46224600212846FFF7D5
:104C0000CEFF30BD2DE9F04F85B00746884691466E
:104C100046463D46AE4207D94A464146384601F02F
:104C20001DF905B0BDE8F08F4C4607EB0900451EA5
:104C300008EB0900461EA81B04900498042834D3EE
:104C400005F00300029006F003010191DDE9011077
:104C5000884201D1012000E0002000900098012846
:104C600023D10298032810D0029840B2039008E0A4
:104C700016F8010905F80109641E0398401E40B2A8
:104C8000039014B103980028F2DAA5F1030AA6F103
:104C9000030B04E05BF804094AF80409241F042C00
:104CA000F8D20AF103050BF1030604E016F8010936
:104CB00005F80109641E002CF8D100BFB1E72DE909
:104CC000F84F80468946154615B90120BDE8F88F92
:104CD000B8F1000F01D10020F8E7B9F1000F01D1C0
:104CE0000020F3E70124294608EB050209EB050340
:104CF00002F0030C03F0030BDC4501D1012000E0BE
:104D0000002000900098012829D1BCF1000F12D09A
:104D1000E2460AE0521E5B1E107893F800E07045F0
:104D200000D00024491EAAF1010A012C03D111B1BF
:104D3000BAF1000FEED1012C11D116461F4608E042
:104D4000361F3F1F3068D7F800E0704500D00024C0
:104D5000091F012C01D10429F2D232463B4608E05A
:104D6000521E5B1E107893F800E0704500D00024BE
:104D7000491E012C01D10029F2D12046A6E7F0B549
:104D800003460E461546D96BB1FBF5F005FB101C2A
:104D9000BCF1000F02D0A5EB0C0200E00022941938
:104DA000586CA04201D20020F0BD0F191144DF63FE
:104DB000586C001B58640846F6E72DE9F04106469A
:104DC0000F46B6FBF3FC03FB1C6109B15C1A00E063
:104DD0000024B2FBF3FC03FB1C2109B15D1A00E0C7
:104DE000002502EB0508A7F1010C08FB0C4C0CEBAD
:104DF0000200BDE8F0812DE9FE4F80468946144649
:104E00001E46002000900CB901AC00BF00202060BD
:104E1000524F00BF00BF01F089FA009000BF00BFF1
:104E2000F86B0290D7F844B04B46424601210298F5
:104E3000FFF7C3FF05465D450FD900BF00BF0098CF
:104E400001F078FA00BF00BFA5EB0B00206042F232
:104E5000E27030800020BDE8FE8F4A464146384669
:104E6000FFF78DFF8246BAF1000F0CD100BF00BFE3
:104E7000009801F05FFA00BF00BF256042F2E270C7
:104E800030800020E7E700BF00BF009801F052FA31
:104E900000BF00BF42F2107030805046DBE72DE9C2
:104EA000FC5F07460C4690460020009000BF00BF04
:104EB00001F03CFA009000BF00BFD7F80490D9F889
:104EC000380008B1484600E024488246DAF84450E9
:104ED000DAF83CB000BF00BF009801F02BFA00BF29
:104EE00000BF012C0AD9BBFBF4F004FB10B60EB1D5
:104EF000A01B00E00020019001982D1A42F21070D2
:104F0000A8F800002846BDE8FC9F70B504460D4691
:104F10002A4621461148FFF7C2FF0646304670BDBB
:104F200018B942F211720A807047104A02600022DA
:104F300042608260C260026142618261C26102625B
:104F4000826242630263C26242628263C26302643B
:104F5000426442F210720A8000BFE5E7A06D0020B3
:104F600048454150E86D0020600000204E4F4E45FE
:104F70002DE9FF4F91B00446DDE920890020009023
:104F8000B8F1000F02D10DF1180800BF0020C8F8D9
:104F9000000049462046FFF7C3FFB9F8000042F27F
:104FA0001071884202D015B0BDE8F08FFE4800684D
:104FB00020B942F2E770A9F80000F4E7DFF8ECA3AB
:104FC0000020059000BF00BF01F0B0F9009000BFC5
:104FD00000BF129880BB5546AB462E46DAF83C001F
:104FE0000D9004231A4614990D98FFF7E6FE0490DD
:104FF00004990D9808440C90DDE91E2314990C982F
:10500000FFF7DBFE0390DDE9030108440590DAF8C1
:1050100044700598B8427DD900BF00BF009801F0E8
:1050200089F900BF00BF0598C01BC8F8000042F214
:10503000E270A9F80000B6E7FFE712980B90DDE9EF
:1050400012010844401E0A900025AB46D648066867
:105050003BE0B16B1298814205D1316C13988142CB
:1050600001D1354633E0B06B0990316CB06B084428
:10507000401E0890DDE90901814200D227E009992C
:105080000B98884203D8DDE9091088420FD20999AC
:105090000B98884203D308990A98884207D908993F
:1050A0000B9888420FD808990A9888420BD300BF02
:1050B00000BF009801F03EF900BF00BF42F27F70D0
:1050C000A9F800006FE7B346F668002EC1D100BF13
:1050D00045B925461298A0631298E063139820649E
:1050E00013986064DAF83C000D9004231A46149972
:1050F0000D98FFF762FE0490DAF844700498B84205
:1051000011D900BF00BF009801F014F900BF00BF23
:10511000049800E024E0C01BC8F8000042F2E270EE
:10512000A9F800003FE7E86B0C90DDE91E23149915
:105130000C98FFF742FE03906F6C0398B8420FD9AA
:1051400000BF00BF009801F0F5F800BF00BF039852
:10515000C01BC8F8000042F2D870A9F8000022E78E
:10516000149880000290042250460299FFF707FE2F
:105170000F900F9830BBDAF8447000BF00BF009862
:1051800001F0D8F800BF00BF129858B90598B8428E
:1051900004D90598C01BC8F800000EE00598C8F8AF
:1051A00000000AE00298B84204D90298C01BC8F86F
:1051B000000002E00298C8F8000042F2E270A9F88C
:1051C0000000F0E60020019034E02846DDE91E12E0
:1051D000FFF7D5FD0E900E9820BBE86B0C906F6C1E
:1051E00000BF00BF009801F0A5F800BF00BF019903
:1051F0001498401A0790DDE91E2307990C98FFF7D1
:10520000DCFD05900598B84204D90598C01BC8F884
:10521000000002E00598C8F8000042F2D870A9F832
:105220000000C0E6019ADDE90E0141F82200019874
:10523000401C0190149901988842C6D3A5420DD113
:10524000C4F808B0E660BBF1000F02D0CBF80C4008
:1052500001E0554804605EB1B46009E068691090EF
:105260002561109860616C61109808B11098046114
:105270004F48206065600C98A06103990C98084421
:10528000401EE0610F9820620398A0621F9860633F
:105290001E9820631498E0621498606200BF00BFFB
:1052A000009801F047F800BF00BF42F21070A9F863
:1052B000000000BF77E62DE9F04104460D460027C7
:1052C00000BF00BF01F032F8074600BF00BF666AAA
:1052D00000BF00BF384601F02DF800BF00BF42F20A
:1052E000107028803046BDE8F0812DE9F041044679
:1052F00088461546002700BF00BF01F017F8074693
:1053000000BF00BF606A60B900BF00BF384601F04F
:1053100011F800BF00BF42F2DE7028800020BDE817
:10532000F081E16A606A88420BD900BF00BF38464D
:1053300001F000F800BF00BF42F295702880002005
:10534000EDE7606A401E6062D4E9080150F8216010
:1053500000BF00BF384600F0EDFF00BF00BF42F2C3
:10536000107028803046DAE72DE9F04704460F46F2
:1053700015464FF0000900BF00BF00F0D7FF81467F
:1053800000BF00BFE06AC01B461EE06AB04213D8EF
:1053900000BF00BF484600F0CDFF00BF00BF42F293
:1053A00095702880002005E060000020A06D00209E
:1053B000504F4F4CBDE8F087606AB0420BD900BF38
:1053C00000BF484600F0B6FF00BF00BF42F2957034
:1053D00028800020E7E7206A50F8268000BF00BF41
:1053E000484600F0A7FF00BF00BF42F210702880BF
:1053F0004046D8E72DE9F04704460E4617464FF0E1
:10540000000A00BF00BF00F091FF824600BF00BF4E
:10541000E16A606A88420BD300BF00BF504600F0CB
:1054200089FF00BF00BF42F2DD703880BDE8F08721
:105430004FF00008656A08E0206A50F82590B145F1
:1054400002D14FF0010803E06D1CE06AA842F3D8D6
:1054500000BFB8F1010F06D1D4E9080150F82100CE
:10546000216A41F82500D4E9080140F82160606A0A
:10547000401C606200BF00BF504600F05BFF00BFF1
:1054800000BF42F21070388000BFCFE72DE9F84F1F
:1054900004460F461646002000904FF0FF3B00BF29
:1054A00000BF00F043FF009000BF00BFE16A606AE8
:1054B00088420CD300BF00BF009800F03BFF00BF44
:1054C00000BF42F2DD7030805846BDE8F88F4FF0E3
:1054D0000009656A08E0206A50F82580B84502D1C5
:1054E0004FF0010903E06D1CE06AA842F3D800BF49
:1054F000B9F1010F0FD1E06A401EA0EB050A00BF11
:1055000000BF009800F016FF00BF00BF42F210700D
:1055100030805046D9E700BF00BF009800F00AFF76
:1055200000BF00BF42F2887030805846CDE70000CF
:1055300010B502460B461146002001E0491C401CF4
:1055400019B10C780CB19842F8D310BD30B50446AF
:105550004FF0FF312046FFF7EBFF0546284630BDF0
:1055600070B504460D4616460CB9002070BD0DB945
:105570000020FBE721462A46002304E0107808704B
:10558000491C521C5B1C21B11AB1107808B1B342FE
:10559000F4D301B10AB90020E8E7B34201D20020F8
:1055A00008702046E2E770B504460D464FF0FF3222
:1055B00029462046FFF7D4FF0646304670BD70B539
:1055C00003460C4615460BB9002070BD0CB90020EF
:1055D000FBE70DB91846F8E7194600E0491C11B180
:1055E00008780028FAD109B90020EEE72246002603
:1055F00004E010780870491C521C761C21B11AB1C5
:10560000107808B1AE42F4D301B10AB90020DCE74A
:10561000002008701846D8E770B504460D464FF0D4
:10562000FF3229462046FFF7CAFF0646304670BDC6
:105630002DE9F04305460B469446BCF1000F02D11C
:105640000020BDE8F08335B90BB90020F9E71878E0
:1056500042421046F5E713B92A781046F1E7294689
:105660001C460F4626467F1C761C4FF0000805E0BE
:10567000491C641C7F1C761C08F10108087894F80A
:105680000090484505D1087818B117B10EB1E04532
:10569000EED3E04501D10020D3E7087894F80090DC
:1056A000484505D0087894F80090A0EB09020BE07B
:1056B000087808B9002207E02FB90EB9002203E0EC
:1056C0003078424200E03A781046BAE770B50446B6
:1056D0000D464FF0FF3229462046FFF7A9FF064648
:1056E000304670BD2DE9F74F82B080460E460498D3
:1056F00018B9002005B0BDE8F08FB8F1000F09D14E
:105700000EB90020F6E73078FFF7FAF907467C4239
:105710002046EFE73EB998F80000FFF7F1F905469B
:105720002C462046E6E7C146B246C846C346564622
:10573000CDF804A0D8460BF1010B019E701C01901E
:10574000C84699F80000FFF7DBF9054656469AF877
:105750000000FFF7D5F907460020009015E009F199
:1057600001090AF1010A0BF1010B0198401C01909B
:105770000098401C009099F80000FFF7C1F9054619
:105780009AF80000FFF7BCF90746BD420BD199F823
:10579000000040B1BBF1000F05D0019818B1049989
:1057A00000988842DBD304990098884201D10020F8
:1057B000A0E7BD4201D0EC1B16E00DB9002413E0B8
:1057C000BBF1000F0AD1019808B900240CE001993F
:1057D0000878FFF795F907467C4205E09BF8000042
:1057E000FFF78EF905462C46204683E770B5044640
:1057F0000D464FF0FF3229462046FFF773FF06465D
:10580000304670BD30B504460B4615460CB9002035
:1058100030BD0BB90020FBE72146002201E0491C06
:10582000521C31B1087820B10878A84201D09A42C0
:10583000F5D309B90020EBE79A4201D30020E7E74E
:105840000878A84201D00020E2E70846E0E770B5FA
:1058500005460C4622464FF0FF312846FFF7D2FF9F
:105860000646304670BD2DE9F04305460E46174604
:1058700015B90020BDE8F0830EB90020FAE72C46E8
:10588000A6F1010949462046FFF752FE80464444EE
:105890000CB90020EEE700E0641EAC4202D0207894
:1058A000B842F9D12078B84201D00020E2E7204682
:1058B000E0E770B505460C4622464FF0FF3128461A
:1058C000FFF7D1FF0646304670BD70B504460D4661
:1058D00016460CB9002070BD0BB90020FBE721462D
:1058E0001A4605E00878A84200D10E70491C521EE5
:1058F00019B1087808B1002AF4D12046EBE7F0B5D9
:1059000004460D4616464FF0FF33324629462046E0
:10591000FFF7DBFF07463846F0BD2DE9FF4F06468F
:105920000F4615461EB9002004B0BDE8F08F0FB930
:105930000020F9E70DB90020F6E7681C00B101E08E
:105940004FF0FF30039029463046FFF7F1FD8046C7
:1059500038460399FFF7ECFD04460CB93046E3E7FF
:10596000444501D90020DFE706EB080BBBF1000F2F
:1059700001D10020D8E707EB040BBBF1000F01D1E8
:105980000020D1E7A8EB040002904FF000090020AE
:10599000019000BF06EB09000090224639460098AE
:1059A000FFF746FE8246BAF1000F01D1012000E068
:1059B0000020019009F10109019810B90298814570
:1059C000E8D9BAF1000F01D00020ADE70098ABE7AD
:1059D00070B504460D464FF0FF3229462046FFF7CA
:1059E0009CFF0646304670BD2DE9FF4F8DB00F4637
:1059F00015461A9E1D9818B9002011B0BDE8F08F09
:105A0000002003900490012F01DA01200390022D61
:105A100001D3242D01D90120039096B33046FFF71E
:105A20000BF802900298012802D00120039028E090
:105A3000302E26D0A6F13000C0B207901B98012866
:105A400004D0A6F14100C0B2069003E0A6F16100C7
:105A5000C0B206900A2D02D80798A84209DB0A2D89
:105A600009D907980A2804D3A5F10A0006998842A3
:105A700001D9012000E0002005900598012800D1FF
:105A800003901D9C0398002846D1DDF834A0DDF872
:105A900034A0CDF830A001200B9007E00B98401CFB
:105AA000C0B20B900C98B0FBF5F00C900C98A8428B
:105AB000F4D21098012800D100E0002009900B9941
:105AC00009980844B84225DC002001900B98B842A0
:105AD00001DA0B9800E038460A903EB1B8460A98C1
